{
  "_format": "hh-sol-artifact-1",
  "contractName": "SimpleT",
  "sourceName": "contracts/SimpleT.sol",
  "abi": [
    {
      "inputs": [
        {
          "internalType": "string",
          "name": "_name",
          "type": "string"
        },
        {
          "internalType": "address",
          "name": "_initialTrustee",
          "type": "address"
        },
        {
          "internalType": "uint128",
          "name": "_checkInPeriod",
          "type": "uint128"
        },
        {
          "internalType": "address[]",
          "name": "_grantors",
          "type": "address[]"
        },
        {
          "internalType": "string",
          "name": "distributionType",
          "type": "string"
        },
        {
          "internalType": "address[]",
          "name": "_successorTrustees",
          "type": "address[]"
        },
        {
          "internalType": "uint256[]",
          "name": "_successorTrusteePositions",
          "type": "uint256[]"
        },
        {
          "internalType": "uint256",
          "name": "_successorTrusteePeriod",
          "type": "uint256"
        },
        {
          "internalType": "address[]",
          "name": "_beneficiaries",
          "type": "address[]"
        },
        {
          "internalType": "uint256[]",
          "name": "_beneficiaryPercentages",
          "type": "uint256[]"
        }
      ],
      "stateMutability": "nonpayable",
      "type": "constructor"
    },
    {
      "anonymous": false,
      "inputs": [
        {
          "indexed": false,
          "internalType": "address",
          "name": "owner",
          "type": "address"
        },
        {
          "indexed": false,
          "internalType": "address",
          "name": "grantorAddress",
          "type": "address"
        }
      ],
      "name": "AddedGrantor",
      "type": "event"
    },
    {
      "anonymous": false,
      "inputs": [
        {
          "indexed": false,
          "internalType": "address",
          "name": "owner",
          "type": "address"
        },
        {
          "indexed": false,
          "internalType": "address",
          "name": "successorTrustees",
          "type": "address"
        },
        {
          "indexed": false,
          "internalType": "uint256",
          "name": "position",
          "type": "uint256"
        }
      ],
      "name": "AddedSccessorTrustee",
      "type": "event"
    },
    {
      "anonymous": false,
      "inputs": [
        {
          "indexed": true,
          "internalType": "address",
          "name": "account",
          "type": "address"
        },
        {
          "indexed": true,
          "internalType": "address",
          "name": "operator",
          "type": "address"
        },
        {
          "indexed": false,
          "internalType": "bool",
          "name": "approved",
          "type": "bool"
        }
      ],
      "name": "ApprovalForAll",
      "type": "event"
    },
    {
      "anonymous": false,
      "inputs": [
        {
          "indexed": false,
          "internalType": "address",
          "name": "owner",
          "type": "address"
        }
      ],
      "name": "AssetsAssigned",
      "type": "event"
    },
    {
      "anonymous": false,
      "inputs": [
        {
          "indexed": false,
          "internalType": "address",
          "name": "from",
          "type": "address"
        },
        {
          "indexed": false,
          "internalType": "uint256",
          "name": "amount",
          "type": "uint256"
        }
      ],
      "name": "AssetsReceived",
      "type": "event"
    },
    {
      "anonymous": false,
      "inputs": [
        {
          "indexed": false,
          "internalType": "address",
          "name": "to",
          "type": "address"
        },
        {
          "indexed": false,
          "internalType": "uint256",
          "name": "amount",
          "type": "uint256"
        }
      ],
      "name": "AssetsReleased",
      "type": "event"
    },
    {
      "anonymous": false,
      "inputs": [
        {
          "indexed": false,
          "internalType": "address",
          "name": "sender",
          "type": "address"
        },
        {
          "indexed": false,
          "internalType": "address",
          "name": "account",
          "type": "address"
        },
        {
          "indexed": false,
          "internalType": "uint256",
          "name": "shares",
          "type": "uint256"
        }
      ],
      "name": "BeneficiaryAdded",
      "type": "event"
    },
    {
      "anonymous": false,
      "inputs": [
        {
          "indexed": false,
          "internalType": "address",
          "name": "sender",
          "type": "address"
        },
        {
          "indexed": false,
          "internalType": "address",
          "name": "beneficiary",
          "type": "address"
        },
        {
          "indexed": false,
          "internalType": "uint256",
          "name": "shares",
          "type": "uint256"
        }
      ],
      "name": "BeneficiaryRemoved",
      "type": "event"
    },
    {
      "anonymous": false,
      "inputs": [
        {
          "indexed": false,
          "internalType": "address",
          "name": "sender",
          "type": "address"
        },
        {
          "indexed": false,
          "internalType": "address",
          "name": "account",
          "type": "address"
        },
        {
          "indexed": false,
          "internalType": "uint256",
          "name": "shares",
          "type": "uint256"
        }
      ],
      "name": "BeneficiaryUpdated",
      "type": "event"
    },
    {
      "anonymous": false,
      "inputs": [
        {
          "indexed": false,
          "internalType": "address",
          "name": "sender",
          "type": "address"
        },
        {
          "indexed": false,
          "internalType": "address",
          "name": "removed",
          "type": "address"
        },
        {
          "indexed": false,
          "internalType": "uint256",
          "name": "shares_redistributed",
          "type": "uint256"
        }
      ],
      "name": "BeneficiaryUpdatedProRata",
      "type": "event"
    },
    {
      "anonymous": false,
      "inputs": [
        {
          "indexed": false,
          "internalType": "address",
          "name": "owner",
          "type": "address"
        },
        {
          "indexed": false,
          "internalType": "uint256",
          "name": "newStart",
          "type": "uint256"
        },
        {
          "indexed": false,
          "internalType": "uint256",
          "name": "newEnd",
          "type": "uint256"
        }
      ],
      "name": "CkeckedIn",
      "type": "event"
    },
    {
      "anonymous": false,
      "inputs": [
        {
          "indexed": false,
          "internalType": "address",
          "name": "owner",
          "type": "address"
        },
        {
          "indexed": false,
          "internalType": "uint256",
          "name": "periodInDays",
          "type": "uint256"
        }
      ],
      "name": "PeriodSet",
      "type": "event"
    },
    {
      "anonymous": false,
      "inputs": [
        {
          "indexed": false,
          "internalType": "address",
          "name": "owner",
          "type": "address"
        },
        {
          "indexed": false,
          "internalType": "address",
          "name": "grantorAddress",
          "type": "address"
        }
      ],
      "name": "RemovedGrantor",
      "type": "event"
    },
    {
      "anonymous": false,
      "inputs": [
        {
          "indexed": false,
          "internalType": "address",
          "name": "owner",
          "type": "address"
        },
        {
          "indexed": false,
          "internalType": "address",
          "name": "successorTrustees",
          "type": "address"
        },
        {
          "indexed": false,
          "internalType": "uint256",
          "name": "newPeriod",
          "type": "uint256"
        }
      ],
      "name": "RemovedSuccessorTrustee",
      "type": "event"
    },
    {
      "anonymous": false,
      "inputs": [
        {
          "indexed": false,
          "internalType": "address",
          "name": "owner",
          "type": "address"
        }
      ],
      "name": "ResetGrantors",
      "type": "event"
    },
    {
      "anonymous": false,
      "inputs": [
        {
          "indexed": true,
          "internalType": "bytes32",
          "name": "role",
          "type": "bytes32"
        },
        {
          "indexed": true,
          "internalType": "bytes32",
          "name": "previousAdminRole",
          "type": "bytes32"
        },
        {
          "indexed": true,
          "internalType": "bytes32",
          "name": "newAdminRole",
          "type": "bytes32"
        }
      ],
      "name": "RoleAdminChanged",
      "type": "event"
    },
    {
      "anonymous": false,
      "inputs": [
        {
          "indexed": true,
          "internalType": "bytes32",
          "name": "role",
          "type": "bytes32"
        },
        {
          "indexed": true,
          "internalType": "address",
          "name": "account",
          "type": "address"
        },
        {
          "indexed": true,
          "internalType": "address",
          "name": "sender",
          "type": "address"
        }
      ],
      "name": "RoleGranted",
      "type": "event"
    },
    {
      "anonymous": false,
      "inputs": [
        {
          "indexed": true,
          "internalType": "bytes32",
          "name": "role",
          "type": "bytes32"
        },
        {
          "indexed": true,
          "internalType": "address",
          "name": "account",
          "type": "address"
        },
        {
          "indexed": true,
          "internalType": "address",
          "name": "sender",
          "type": "address"
        }
      ],
      "name": "RoleRevoked",
      "type": "event"
    },
    {
      "anonymous": false,
      "inputs": [
        {
          "indexed": false,
          "internalType": "address",
          "name": "owner",
          "type": "address"
        },
        {
          "indexed": false,
          "internalType": "address",
          "name": "initialTrusteeAddress",
          "type": "address"
        }
      ],
      "name": "SetInitialTrustee",
      "type": "event"
    },
    {
      "anonymous": false,
      "inputs": [
        {
          "indexed": true,
          "internalType": "address",
          "name": "operator",
          "type": "address"
        },
        {
          "indexed": true,
          "internalType": "address",
          "name": "from",
          "type": "address"
        },
        {
          "indexed": true,
          "internalType": "address",
          "name": "to",
          "type": "address"
        },
        {
          "indexed": false,
          "internalType": "uint256[]",
          "name": "ids",
          "type": "uint256[]"
        },
        {
          "indexed": false,
          "internalType": "uint256[]",
          "name": "values",
          "type": "uint256[]"
        }
      ],
      "name": "TransferBatch",
      "type": "event"
    },
    {
      "anonymous": false,
      "inputs": [
        {
          "indexed": true,
          "internalType": "address",
          "name": "operator",
          "type": "address"
        },
        {
          "indexed": true,
          "internalType": "address",
          "name": "from",
          "type": "address"
        },
        {
          "indexed": true,
          "internalType": "address",
          "name": "to",
          "type": "address"
        },
        {
          "indexed": false,
          "internalType": "uint256",
          "name": "id",
          "type": "uint256"
        },
        {
          "indexed": false,
          "internalType": "uint256",
          "name": "value",
          "type": "uint256"
        }
      ],
      "name": "TransferSingle",
      "type": "event"
    },
    {
      "anonymous": false,
      "inputs": [
        {
          "indexed": false,
          "internalType": "string",
          "name": "value",
          "type": "string"
        },
        {
          "indexed": true,
          "internalType": "uint256",
          "name": "id",
          "type": "uint256"
        }
      ],
      "name": "URI",
      "type": "event"
    },
    {
      "anonymous": false,
      "inputs": [
        {
          "indexed": false,
          "internalType": "address",
          "name": "owner",
          "type": "address"
        },
        {
          "indexed": false,
          "internalType": "uint256",
          "name": "newPeriod",
          "type": "uint256"
        }
      ],
      "name": "successorTrusteePeriodSet",
      "type": "event"
    },
    {
      "inputs": [],
      "name": "ACTIVE_TRUSTEE_ROLE",
      "outputs": [
        {
          "internalType": "bytes32",
          "name": "",
          "type": "bytes32"
        }
      ],
      "stateMutability": "view",
      "type": "function"
    },
    {
      "inputs": [],
      "name": "BENEFICIARY_ROLE",
      "outputs": [
        {
          "internalType": "bytes32",
          "name": "",
          "type": "bytes32"
        }
      ],
      "stateMutability": "view",
      "type": "function"
    },
    {
      "inputs": [],
      "name": "DECIMALS_PER_SHARE",
      "outputs": [
        {
          "internalType": "uint256",
          "name": "",
          "type": "uint256"
        }
      ],
      "stateMutability": "view",
      "type": "function"
    },
    {
      "inputs": [],
      "name": "DED",
      "outputs": [
        {
          "internalType": "bytes32",
          "name": "",
          "type": "bytes32"
        }
      ],
      "stateMutability": "view",
      "type": "function"
    },
    {
      "inputs": [],
      "name": "DEFAULT_ADMIN_ROLE",
      "outputs": [
        {
          "internalType": "bytes32",
          "name": "",
          "type": "bytes32"
        }
      ],
      "stateMutability": "view",
      "type": "function"
    },
    {
      "inputs": [],
      "name": "GRANTOR_ROLE",
      "outputs": [
        {
          "internalType": "bytes32",
          "name": "",
          "type": "bytes32"
        }
      ],
      "stateMutability": "view",
      "type": "function"
    },
    {
      "inputs": [],
      "name": "INITIAL_TRUSTEE_ROLE",
      "outputs": [
        {
          "internalType": "bytes32",
          "name": "",
          "type": "bytes32"
        }
      ],
      "stateMutability": "view",
      "type": "function"
    },
    {
      "inputs": [
        {
          "internalType": "address[]",
          "name": "generation",
          "type": "address[]"
        }
      ],
      "name": "NGenerationLivingLineage",
      "outputs": [
        {
          "internalType": "uint256",
          "name": "N",
          "type": "uint256"
        }
      ],
      "stateMutability": "view",
      "type": "function"
    },
    {
      "inputs": [],
      "name": "SUCCESSOR_TRUSTEE_ROLE",
      "outputs": [
        {
          "internalType": "bytes32",
          "name": "",
          "type": "bytes32"
        }
      ],
      "stateMutability": "view",
      "type": "function"
    },
    {
      "inputs": [],
      "name": "TOKENS_PER_GRANTOR",
      "outputs": [
        {
          "internalType": "uint256",
          "name": "",
          "type": "uint256"
        }
      ],
      "stateMutability": "view",
      "type": "function"
    },
    {
      "inputs": [],
      "name": "VERSION",
      "outputs": [
        {
          "internalType": "string",
          "name": "",
          "type": "string"
        }
      ],
      "stateMutability": "view",
      "type": "function"
    },
    {
      "inputs": [
        {
          "internalType": "address",
          "name": "",
          "type": "address"
        }
      ],
      "name": "_tokenIds",
      "outputs": [
        {
          "internalType": "uint256",
          "name": "",
          "type": "uint256"
        }
      ],
      "stateMutability": "view",
      "type": "function"
    },
    {
      "inputs": [],
      "name": "activeTrustee",
      "outputs": [
        {
          "internalType": "address",
          "name": "",
          "type": "address"
        }
      ],
      "stateMutability": "view",
      "type": "function"
    },
    {
      "inputs": [],
      "name": "activeTrusteeCheckInNow",
      "outputs": [],
      "stateMutability": "nonpayable",
      "type": "function"
    },
    {
      "inputs": [],
      "name": "activeTrusteeLastCheckInTime",
      "outputs": [
        {
          "internalType": "uint256",
          "name": "",
          "type": "uint256"
        }
      ],
      "stateMutability": "view",
      "type": "function"
    },
    {
      "inputs": [
        {
          "internalType": "address[]",
          "name": "_grantorAddresses",
          "type": "address[]"
        }
      ],
      "name": "addGrantors",
      "outputs": [],
      "stateMutability": "nonpayable",
      "type": "function"
    },
    {
      "inputs": [
        {
          "internalType": "address[]",
          "name": "trusteeAddresses",
          "type": "address[]"
        },
        {
          "internalType": "uint256[]",
          "name": "_successorTrusteePositions",
          "type": "uint256[]"
        }
      ],
      "name": "addSuccessorTrustees",
      "outputs": [],
      "stateMutability": "nonpayable",
      "type": "function"
    },
    {
      "inputs": [
        {
          "internalType": "address",
          "name": "beneficiaryAddress",
          "type": "address"
        }
      ],
      "name": "adminRemoveBeneficiary",
      "outputs": [],
      "stateMutability": "nonpayable",
      "type": "function"
    },
    {
      "inputs": [
        {
          "internalType": "address",
          "name": "_grantorAddress",
          "type": "address"
        }
      ],
      "name": "adminRemoveGrantor",
      "outputs": [],
      "stateMutability": "nonpayable",
      "type": "function"
    },
    {
      "inputs": [],
      "name": "assignAssetsToTrust",
      "outputs": [],
      "stateMutability": "nonpayable",
      "type": "function"
    },
    {
      "inputs": [
        {
          "internalType": "address",
          "name": "",
          "type": "address"
        }
      ],
      "name": "assignedAssets",
      "outputs": [
        {
          "internalType": "bool",
          "name": "",
          "type": "bool"
        }
      ],
      "stateMutability": "view",
      "type": "function"
    },
    {
      "inputs": [
        {
          "internalType": "address",
          "name": "account",
          "type": "address"
        },
        {
          "internalType": "uint256",
          "name": "id",
          "type": "uint256"
        }
      ],
      "name": "balanceOf",
      "outputs": [
        {
          "internalType": "uint256",
          "name": "",
          "type": "uint256"
        }
      ],
      "stateMutability": "view",
      "type": "function"
    },
    {
      "inputs": [
        {
          "internalType": "address[]",
          "name": "accounts",
          "type": "address[]"
        },
        {
          "internalType": "uint256[]",
          "name": "ids",
          "type": "uint256[]"
        }
      ],
      "name": "balanceOfBatch",
      "outputs": [
        {
          "internalType": "uint256[]",
          "name": "",
          "type": "uint256[]"
        }
      ],
      "stateMutability": "view",
      "type": "function"
    },
    {
      "inputs": [
        {
          "internalType": "uint256",
          "name": "",
          "type": "uint256"
        }
      ],
      "name": "beneficiaries",
      "outputs": [
        {
          "internalType": "address",
          "name": "",
          "type": "address"
        }
      ],
      "stateMutability": "view",
      "type": "function"
    },
    {
      "inputs": [
        {
          "internalType": "address",
          "name": "deadBeneficiary",
          "type": "address"
        },
        {
          "internalType": "address[]",
          "name": "beneficiaryDescendants",
          "type": "address[]"
        }
      ],
      "name": "beneficiaryDeceasedPerStirpes",
      "outputs": [],
      "stateMutability": "nonpayable",
      "type": "function"
    },
    {
      "inputs": [
        {
          "internalType": "address",
          "name": "beneficiary",
          "type": "address"
        }
      ],
      "name": "beneficiaryDeceasedProRata",
      "outputs": [],
      "stateMutability": "nonpayable",
      "type": "function"
    },
    {
      "inputs": [
        {
          "internalType": "address",
          "name": "",
          "type": "address"
        }
      ],
      "name": "beneficiaryGeneration",
      "outputs": [
        {
          "internalType": "uint256",
          "name": "",
          "type": "uint256"
        }
      ],
      "stateMutability": "view",
      "type": "function"
    },
    {
      "inputs": [
        {
          "internalType": "address",
          "name": "",
          "type": "address"
        }
      ],
      "name": "beneficiaryHasClaimed",
      "outputs": [
        {
          "internalType": "bool",
          "name": "",
          "type": "bool"
        }
      ],
      "stateMutability": "view",
      "type": "function"
    },
    {
      "inputs": [
        {
          "internalType": "address",
          "name": "",
          "type": "address"
        }
      ],
      "name": "beneficiaryShares",
      "outputs": [
        {
          "internalType": "uint256",
          "name": "",
          "type": "uint256"
        }
      ],
      "stateMutability": "view",
      "type": "function"
    },
    {
      "inputs": [],
      "name": "checkInNow",
      "outputs": [],
      "stateMutability": "nonpayable",
      "type": "function"
    },
    {
      "inputs": [],
      "name": "checkInPeriod",
      "outputs": [
        {
          "internalType": "uint256",
          "name": "",
          "type": "uint256"
        }
      ],
      "stateMutability": "view",
      "type": "function"
    },
    {
      "inputs": [],
      "name": "claim",
      "outputs": [],
      "stateMutability": "nonpayable",
      "type": "function"
    },
    {
      "inputs": [],
      "name": "defaultState",
      "outputs": [
        {
          "internalType": "enum Roles.TrustStates",
          "name": "",
          "type": "uint8"
        }
      ],
      "stateMutability": "view",
      "type": "function"
    },
    {
      "inputs": [
        {
          "internalType": "address",
          "name": "",
          "type": "address"
        },
        {
          "internalType": "uint256",
          "name": "",
          "type": "uint256"
        }
      ],
      "name": "descendants",
      "outputs": [
        {
          "internalType": "address",
          "name": "",
          "type": "address"
        }
      ],
      "stateMutability": "view",
      "type": "function"
    },
    {
      "inputs": [
        {
          "internalType": "address",
          "name": "",
          "type": "address"
        }
      ],
      "name": "descendantsProgenitor",
      "outputs": [
        {
          "internalType": "address",
          "name": "",
          "type": "address"
        }
      ],
      "stateMutability": "view",
      "type": "function"
    },
    {
      "inputs": [
        {
          "internalType": "address",
          "name": "",
          "type": "address"
        }
      ],
      "name": "descendantsShares",
      "outputs": [
        {
          "internalType": "uint256",
          "name": "",
          "type": "uint256"
        }
      ],
      "stateMutability": "view",
      "type": "function"
    },
    {
      "inputs": [],
      "name": "distributionType",
      "outputs": [
        {
          "internalType": "enum Grantor.DistributionTypes",
          "name": "",
          "type": "uint8"
        }
      ],
      "stateMutability": "view",
      "type": "function"
    },
    {
      "inputs": [
        {
          "internalType": "address",
          "name": "_beneficiary",
          "type": "address"
        }
      ],
      "name": "findIsABeneficiary",
      "outputs": [
        {
          "internalType": "bool",
          "name": "isABeneficiary",
          "type": "bool"
        }
      ],
      "stateMutability": "view",
      "type": "function"
    },
    {
      "inputs": [
        {
          "internalType": "address",
          "name": "grantor",
          "type": "address"
        }
      ],
      "name": "findIsAGrantor",
      "outputs": [
        {
          "internalType": "bool",
          "name": "isAGrantor",
          "type": "bool"
        }
      ],
      "stateMutability": "view",
      "type": "function"
    },
    {
      "inputs": [
        {
          "internalType": "address",
          "name": "_trustee",
          "type": "address"
        }
      ],
      "name": "findIsATrustee",
      "outputs": [
        {
          "internalType": "bool",
          "name": "isATrustee",
          "type": "bool"
        }
      ],
      "stateMutability": "view",
      "type": "function"
    },
    {
      "inputs": [
        {
          "internalType": "uint256",
          "name": "",
          "type": "uint256"
        },
        {
          "internalType": "uint256",
          "name": "",
          "type": "uint256"
        }
      ],
      "name": "generations",
      "outputs": [
        {
          "internalType": "address",
          "name": "",
          "type": "address"
        }
      ],
      "stateMutability": "view",
      "type": "function"
    },
    {
      "inputs": [],
      "name": "getActiveTrusteeExpirationTime",
      "outputs": [
        {
          "internalType": "uint256",
          "name": "",
          "type": "uint256"
        }
      ],
      "stateMutability": "view",
      "type": "function"
    },
    {
      "inputs": [
        {
          "internalType": "address",
          "name": "_addr",
          "type": "address"
        }
      ],
      "name": "getAddressShares",
      "outputs": [
        {
          "internalType": "uint256",
          "name": "",
          "type": "uint256"
        }
      ],
      "stateMutability": "view",
      "type": "function"
    },
    {
      "inputs": [],
      "name": "getBeneficiaries",
      "outputs": [
        {
          "internalType": "address[]",
          "name": "",
          "type": "address[]"
        }
      ],
      "stateMutability": "view",
      "type": "function"
    },
    {
      "inputs": [],
      "name": "getBeneficiariesLength",
      "outputs": [
        {
          "internalType": "uint256",
          "name": "",
          "type": "uint256"
        }
      ],
      "stateMutability": "view",
      "type": "function"
    },
    {
      "inputs": [],
      "name": "getExpirationTime",
      "outputs": [
        {
          "internalType": "uint256",
          "name": "",
          "type": "uint256"
        }
      ],
      "stateMutability": "view",
      "type": "function"
    },
    {
      "inputs": [],
      "name": "getGrantorsLength",
      "outputs": [
        {
          "internalType": "uint256",
          "name": "",
          "type": "uint256"
        }
      ],
      "stateMutability": "view",
      "type": "function"
    },
    {
      "inputs": [
        {
          "internalType": "address",
          "name": "_grantor",
          "type": "address"
        }
      ],
      "name": "getGrantorsTokenID",
      "outputs": [
        {
          "internalType": "uint256",
          "name": "",
          "type": "uint256"
        }
      ],
      "stateMutability": "view",
      "type": "function"
    },
    {
      "inputs": [
        {
          "internalType": "bytes32",
          "name": "role",
          "type": "bytes32"
        }
      ],
      "name": "getRoleAdmin",
      "outputs": [
        {
          "internalType": "bytes32",
          "name": "",
          "type": "bytes32"
        }
      ],
      "stateMutability": "view",
      "type": "function"
    },
    {
      "inputs": [],
      "name": "getSuccessorTrusteeLength",
      "outputs": [
        {
          "internalType": "uint256",
          "name": "",
          "type": "uint256"
        }
      ],
      "stateMutability": "view",
      "type": "function"
    },
    {
      "inputs": [
        {
          "internalType": "bytes32",
          "name": "role",
          "type": "bytes32"
        },
        {
          "internalType": "address",
          "name": "account",
          "type": "address"
        }
      ],
      "name": "grantRole",
      "outputs": [],
      "stateMutability": "nonpayable",
      "type": "function"
    },
    {
      "inputs": [],
      "name": "grantorRemoveSelf",
      "outputs": [],
      "stateMutability": "nonpayable",
      "type": "function"
    },
    {
      "inputs": [
        {
          "internalType": "uint256",
          "name": "",
          "type": "uint256"
        }
      ],
      "name": "grantors",
      "outputs": [
        {
          "internalType": "address",
          "name": "",
          "type": "address"
        }
      ],
      "stateMutability": "view",
      "type": "function"
    },
    {
      "inputs": [
        {
          "internalType": "address",
          "name": "",
          "type": "address"
        }
      ],
      "name": "hasLivingDescendants",
      "outputs": [
        {
          "internalType": "bool",
          "name": "",
          "type": "bool"
        }
      ],
      "stateMutability": "view",
      "type": "function"
    },
    {
      "inputs": [
        {
          "internalType": "bytes32",
          "name": "role",
          "type": "bytes32"
        },
        {
          "internalType": "address",
          "name": "account",
          "type": "address"
        }
      ],
      "name": "hasRole",
      "outputs": [
        {
          "internalType": "bool",
          "name": "",
          "type": "bool"
        }
      ],
      "stateMutability": "view",
      "type": "function"
    },
    {
      "inputs": [
        {
          "internalType": "address",
          "name": "_grantorAddress",
          "type": "address"
        }
      ],
      "name": "initialTrusteeRemoveSuccessorTrustee",
      "outputs": [],
      "stateMutability": "nonpayable",
      "type": "function"
    },
    {
      "inputs": [
        {
          "internalType": "uint256",
          "name": "",
          "type": "uint256"
        }
      ],
      "name": "initialTrustees",
      "outputs": [
        {
          "internalType": "address",
          "name": "",
          "type": "address"
        }
      ],
      "stateMutability": "view",
      "type": "function"
    },
    {
      "inputs": [],
      "name": "initializedTrust",
      "outputs": [
        {
          "internalType": "uint256",
          "name": "",
          "type": "uint256"
        }
      ],
      "stateMutability": "view",
      "type": "function"
    },
    {
      "inputs": [
        {
          "internalType": "bytes",
          "name": "signature",
          "type": "bytes"
        }
      ],
      "name": "initiateTrustExecution",
      "outputs": [],
      "stateMutability": "nonpayable",
      "type": "function"
    },
    {
      "inputs": [
        {
          "internalType": "address",
          "name": "account",
          "type": "address"
        },
        {
          "internalType": "address",
          "name": "operator",
          "type": "address"
        }
      ],
      "name": "isApprovedForAll",
      "outputs": [
        {
          "internalType": "bool",
          "name": "",
          "type": "bool"
        }
      ],
      "stateMutability": "view",
      "type": "function"
    },
    {
      "inputs": [
        {
          "internalType": "address",
          "name": "",
          "type": "address"
        }
      ],
      "name": "isDeceased",
      "outputs": [
        {
          "internalType": "bool",
          "name": "",
          "type": "bool"
        }
      ],
      "stateMutability": "view",
      "type": "function"
    },
    {
      "inputs": [],
      "name": "lastCheckInTime",
      "outputs": [
        {
          "internalType": "uint256",
          "name": "",
          "type": "uint256"
        }
      ],
      "stateMutability": "view",
      "type": "function"
    },
    {
      "inputs": [],
      "name": "name",
      "outputs": [
        {
          "internalType": "string",
          "name": "",
          "type": "string"
        }
      ],
      "stateMutability": "view",
      "type": "function"
    },
    {
      "inputs": [
        {
          "internalType": "address",
          "name": "",
          "type": "address"
        }
      ],
      "name": "noDescendants",
      "outputs": [
        {
          "internalType": "bool",
          "name": "",
          "type": "bool"
        }
      ],
      "stateMutability": "view",
      "type": "function"
    },
    {
      "inputs": [
        {
          "internalType": "address",
          "name": "",
          "type": "address"
        },
        {
          "internalType": "address",
          "name": "",
          "type": "address"
        },
        {
          "internalType": "uint256[]",
          "name": "",
          "type": "uint256[]"
        },
        {
          "internalType": "uint256[]",
          "name": "",
          "type": "uint256[]"
        },
        {
          "internalType": "bytes",
          "name": "",
          "type": "bytes"
        }
      ],
      "name": "onERC1155BatchReceived",
      "outputs": [
        {
          "internalType": "bytes4",
          "name": "",
          "type": "bytes4"
        }
      ],
      "stateMutability": "nonpayable",
      "type": "function"
    },
    {
      "inputs": [
        {
          "internalType": "address",
          "name": "",
          "type": "address"
        },
        {
          "internalType": "address",
          "name": "",
          "type": "address"
        },
        {
          "internalType": "uint256",
          "name": "",
          "type": "uint256"
        },
        {
          "internalType": "uint256",
          "name": "",
          "type": "uint256"
        },
        {
          "internalType": "bytes",
          "name": "",
          "type": "bytes"
        }
      ],
      "name": "onERC1155Received",
      "outputs": [
        {
          "internalType": "bytes4",
          "name": "",
          "type": "bytes4"
        }
      ],
      "stateMutability": "nonpayable",
      "type": "function"
    },
    {
      "inputs": [],
      "name": "openClaims",
      "outputs": [],
      "stateMutability": "nonpayable",
      "type": "function"
    },
    {
      "inputs": [],
      "name": "redistributeDeadWithNoDescendantPerStirpes",
      "outputs": [],
      "stateMutability": "nonpayable",
      "type": "function"
    },
    {
      "inputs": [],
      "name": "releaseAssets",
      "outputs": [],
      "stateMutability": "nonpayable",
      "type": "function"
    },
    {
      "inputs": [],
      "name": "removeActiveTrustee",
      "outputs": [],
      "stateMutability": "nonpayable",
      "type": "function"
    },
    {
      "inputs": [
        {
          "internalType": "bytes32",
          "name": "role",
          "type": "bytes32"
        },
        {
          "internalType": "address",
          "name": "account",
          "type": "address"
        }
      ],
      "name": "renounceRole",
      "outputs": [],
      "stateMutability": "nonpayable",
      "type": "function"
    },
    {
      "inputs": [],
      "name": "resetTrustBeneficiaries",
      "outputs": [],
      "stateMutability": "nonpayable",
      "type": "function"
    },
    {
      "inputs": [],
      "name": "returnTrustState",
      "outputs": [
        {
          "internalType": "string",
          "name": "",
          "type": "string"
        }
      ],
      "stateMutability": "view",
      "type": "function"
    },
    {
      "inputs": [
        {
          "internalType": "bytes32",
          "name": "role",
          "type": "bytes32"
        },
        {
          "internalType": "address",
          "name": "account",
          "type": "address"
        }
      ],
      "name": "revokeRole",
      "outputs": [],
      "stateMutability": "nonpayable",
      "type": "function"
    },
    {
      "inputs": [
        {
          "internalType": "address",
          "name": "from",
          "type": "address"
        },
        {
          "internalType": "address",
          "name": "to",
          "type": "address"
        },
        {
          "internalType": "uint256[]",
          "name": "ids",
          "type": "uint256[]"
        },
        {
          "internalType": "uint256[]",
          "name": "amounts",
          "type": "uint256[]"
        },
        {
          "internalType": "bytes",
          "name": "data",
          "type": "bytes"
        }
      ],
      "name": "safeBatchTransferFrom",
      "outputs": [],
      "stateMutability": "nonpayable",
      "type": "function"
    },
    {
      "inputs": [
        {
          "internalType": "address",
          "name": "from",
          "type": "address"
        },
        {
          "internalType": "address",
          "name": "to",
          "type": "address"
        },
        {
          "internalType": "uint256",
          "name": "id",
          "type": "uint256"
        },
        {
          "internalType": "uint256",
          "name": "amount",
          "type": "uint256"
        },
        {
          "internalType": "bytes",
          "name": "data",
          "type": "bytes"
        }
      ],
      "name": "safeTransferFrom",
      "outputs": [],
      "stateMutability": "nonpayable",
      "type": "function"
    },
    {
      "inputs": [
        {
          "internalType": "address",
          "name": "operator",
          "type": "address"
        },
        {
          "internalType": "bool",
          "name": "approved",
          "type": "bool"
        }
      ],
      "name": "setApprovalForAll",
      "outputs": [],
      "stateMutability": "nonpayable",
      "type": "function"
    },
    {
      "inputs": [
        {
          "internalType": "address[]",
          "name": "_beneficiaries",
          "type": "address[]"
        },
        {
          "internalType": "uint256[]",
          "name": "shares_",
          "type": "uint256[]"
        }
      ],
      "name": "setBeneficiaries",
      "outputs": [],
      "stateMutability": "nonpayable",
      "type": "function"
    },
    {
      "inputs": [
        {
          "internalType": "uint256",
          "name": "periodInDays",
          "type": "uint256"
        }
      ],
      "name": "setCheckInPeriod",
      "outputs": [],
      "stateMutability": "nonpayable",
      "type": "function"
    },
    {
      "inputs": [
        {
          "internalType": "string",
          "name": "_distribution",
          "type": "string"
        }
      ],
      "name": "setDistribution",
      "outputs": [],
      "stateMutability": "nonpayable",
      "type": "function"
    },
    {
      "inputs": [
        {
          "internalType": "address",
          "name": "initialTrusteeAddress",
          "type": "address"
        }
      ],
      "name": "setInitialTrustee",
      "outputs": [],
      "stateMutability": "nonpayable",
      "type": "function"
    },
    {
      "inputs": [
        {
          "internalType": "uint256",
          "name": "newPeriod",
          "type": "uint256"
        }
      ],
      "name": "setSuccessorPeriod",
      "outputs": [],
      "stateMutability": "nonpayable",
      "type": "function"
    },
    {
      "inputs": [
        {
          "internalType": "string",
          "name": "newuri",
          "type": "string"
        }
      ],
      "name": "setURI",
      "outputs": [],
      "stateMutability": "nonpayable",
      "type": "function"
    },
    {
      "inputs": [],
      "name": "successorTrusteePeriod",
      "outputs": [
        {
          "internalType": "uint256",
          "name": "",
          "type": "uint256"
        }
      ],
      "stateMutability": "view",
      "type": "function"
    },
    {
      "inputs": [
        {
          "internalType": "address",
          "name": "",
          "type": "address"
        }
      ],
      "name": "successorTrusteePosition",
      "outputs": [
        {
          "internalType": "uint256",
          "name": "",
          "type": "uint256"
        }
      ],
      "stateMutability": "view",
      "type": "function"
    },
    {
      "inputs": [
        {
          "internalType": "uint256",
          "name": "",
          "type": "uint256"
        }
      ],
      "name": "successorTrustees",
      "outputs": [
        {
          "internalType": "address",
          "name": "",
          "type": "address"
        }
      ],
      "stateMutability": "view",
      "type": "function"
    },
    {
      "inputs": [
        {
          "internalType": "bytes4",
          "name": "interfaceId",
          "type": "bytes4"
        }
      ],
      "name": "supportsInterface",
      "outputs": [
        {
          "internalType": "bool",
          "name": "",
          "type": "bool"
        }
      ],
      "stateMutability": "view",
      "type": "function"
    },
    {
      "inputs": [],
      "name": "totalGenerations",
      "outputs": [
        {
          "internalType": "uint256",
          "name": "",
          "type": "uint256"
        }
      ],
      "stateMutability": "view",
      "type": "function"
    },
    {
      "inputs": [],
      "name": "totalShares",
      "outputs": [
        {
          "internalType": "uint256",
          "name": "",
          "type": "uint256"
        }
      ],
      "stateMutability": "view",
      "type": "function"
    },
    {
      "inputs": [],
      "name": "trustState",
      "outputs": [
        {
          "internalType": "enum Roles.TrustStates",
          "name": "",
          "type": "uint8"
        }
      ],
      "stateMutability": "view",
      "type": "function"
    },
    {
      "inputs": [
        {
          "internalType": "uint256",
          "name": "",
          "type": "uint256"
        }
      ],
      "name": "unassignedGrantors",
      "outputs": [
        {
          "internalType": "address",
          "name": "",
          "type": "address"
        }
      ],
      "stateMutability": "view",
      "type": "function"
    },
    {
      "inputs": [
        {
          "internalType": "address",
          "name": "deadBeneficiary",
          "type": "address"
        }
      ],
      "name": "undoBeneficiaryDeceasedPerStirpes",
      "outputs": [],
      "stateMutability": "nonpayable",
      "type": "function"
    },
    {
      "inputs": [
        {
          "internalType": "uint256",
          "name": "",
          "type": "uint256"
        }
      ],
      "name": "uri",
      "outputs": [
        {
          "internalType": "string",
          "name": "",
          "type": "string"
        }
      ],
      "stateMutability": "view",
      "type": "function"
    }
  ],
  "bytecode": "0x60806040526000600b5560016013553480156200001b57600080fd5b5060405162007e5a38038062007e5a8339810160408190526200003e9162001915565b6040805160208101909152600081526200005881620001db565b50601f620000678b8262001af6565b50426020556200009660008051602062007dda83398151915260008051602062007e3a833981519152620001ed565b620000c060008051602062007dfa83398151915260008051602062007e3a833981519152620001ed565b620000ea60008051602062007e1a83398151915260008051602062007e3a833981519152620001ed565b620000f760003362000238565b6200011260008051602062007e3a8339815191523362000238565b6200011d8762000244565b62000128866200047c565b6200013c6001600160801b0389166200052d565b6200014789620005f6565b62000153858562000706565b6200015e8362000a11565b6200016a828262000b42565b336001600160a01b038a1614620001b1576200019660008051602062007e3a8339815191528a62000ccf565b620001b160008051602062007e3a8339815191523362000cfd565b620001be60003062000ccf565b620001cb60003362000cfd565b5050505050505050505062001e5b565b6002620001e9828262001af6565b5050565b600082815260036020526040808220600101805490849055905190918391839186917fbd79b86ffe0ab8e8776151514217cd7cacd52c909f66475c3af44e129f0b00ff9190a4505050565b620001e9828262000d26565b6200025e60008051602062007e3a83398151915262000db0565b60005b81518110156200047457600082828151811062000282576200028262001bc2565b6020026020010151905060006001600160a01b0316816001600160a01b031603620003055760405162461bcd60e51b815260206004820152602860248201527f4772616e746f723a20616464726573732063616e206e6f74206265207a65726f604482015267206164647265737360c01b60648201526084015b60405180910390fd5b620003108162000dbf565b156200035f5760405162461bcd60e51b815260206004820181905260248201527f4772616e746f723a206164647265737320616c7265616479206772616e746f726044820152606401620002fc565b600b54600a8054600181019091557fc65a7bb8d6351c1cf70c95a316cc6a92839c986682d98bc35f958f4883f9d2a80180546001600160a01b0319166001600160a01b038416908117909155600090815260086020908152604080832084905580519182019052908152620003e29083908390670de0b6b3a76400009062000e29565b6001600b6000828254620003f7919062001bee565b9091555062000418905060008051602062007dda8339815191528362000ccf565b7f2d2500ad452ae259e6723284b4b4133d18c42ac9e3212498b64d2a381580b57b33604080516001600160a01b03928316815291851660208301520160405180910390a1505080806200046b9062001c04565b91505062000261565b505042600555565b6200049660008051602062007e3a83398151915262000db0565b805160208201207fee9183123b3ab5de6c1afd86d1313df9407861927e5c01c20eece8f5c5de535301620004df57600c80546000919060ff19166001835b021790555062000526565b805160208201207f66221dd9fd87d664c939a6a10ca0fe38c1b0bcdf0ff0d038b1aa0a73be2cf031016200052157600c80546001919060ff19168280620004d4565b600080fd5b5042600555565b6200054760008051602062007e3a83398151915262000db0565b60008111620005a35760405162461bcd60e51b815260206004820152602160248201527f4e657720706572696f64206d75737420626520616e20696e7465676572203e206044820152600360fc1b6064820152608401620002fc565b620005b2816201518062001c36565b60065560408051338152602081018390527f09a388ec24176e675d9fd765f5fb4bd0cf32d2df3f7adab3b2d449ab1cea6f6491015b60405180910390a15042600555565b6000620006038162000db0565b6001600160a01b0382166200065b5760405162461bcd60e51b815260206004820152601f60248201527f616464726573732063616e206e6f74206265207a65726f2061646472657373006044820152606401620002fc565b600d80546001810182556000919091527fd7b6990105719101dabeb77144f2a3385c8033acd3af97e9423a695e81ad1eb50180546001600160a01b0319166001600160a01b038416179055620006c160008051602062007e3a8339815191528362000ccf565b604080513381526001600160a01b03841660208201527f9f2f3bb1e001850c78e18c2e52a4bcd24afad4f0f0f8be8ec9ac72b54611898f910160405180910390a15050565b6200072060008051602062007e3a83398151915262000db0565b8051825114620007885760405162461bcd60e51b815260206004820152602c60248201527f416464726573736573202620706f736974696f6e73206d75737420686176652060448201526b0cae2eac2d840d8cadccee8d60a31b6064820152608401620002fc565b60005b825181101562000a08576000838281518110620007ac57620007ac62001bc2565b602002602001015190506000838381518110620007cd57620007cd62001bc2565b6020026020010151905060006001600160a01b0316826001600160a01b0316036200084c5760405162461bcd60e51b815260206004820152602860248201527f547275737465653a20616464726573732063616e206e6f74206265207a65726f604482015267206164647265737360c01b6064820152608401620002fc565b6200086760008051602062007dfa8339815191528362000f47565b15620008c95760405162461bcd60e51b815260206004820152602a60248201527f547275737465653a206164647265737320616c726561647920737563636573736044820152696f72207472757374656560b01b6064820152608401620002fc565b60008111620009325760405162461bcd60e51b815260206004820152602e60248201527f737563636573736f725f706f736974696f6e2063616e6e6f742062652074686560448201526d2064656661756c742076616c756560901b6064820152608401620002fc565b600e8054600181019091557fbb7b4a454dc3493923482f07822329ed19e8244eff582cc204f8554c3620c3fd0180546001600160a01b0319166001600160a01b0384169081179091556000908152600f60205260409020819055620009a760008051602062007dfa8339815191528362000d26565b604080513381526001600160a01b03841660208201529081018290527f553b1aba577dfe3493f342cadf16e40dccca372fb9074ed8fccc50a986afce339060600160405180910390a150508080620009ff9062001c04565b9150506200078b565b50504260055550565b62000a2b60008051602062007e3a83398151915262000db0565b600181101562000a935760405162461bcd60e51b815260206004820152602c60248201527f4e657720706572696f64206d75737420626520616e20696e746567657220677260448201526b06561746572207468616e20360a41b6064820152608401620002fc565b600881111562000af95760405162461bcd60e51b815260206004820152602a60248201527f4e657720706572696f64206d75737420626520616e20696e7465676572206c6560448201526939b9903a3430b710199b60b11b6064820152608401620002fc565b62000b088162093a8062001c36565b60105560408051338152602081018390527f7aa80ded7d22f7b07cf91a1da00c3f4fc2b545c354fcd5d82367cb820823ca239101620005e7565b600162000b4f8162000f74565b60008051602062007e3a83398151915262000b6a8162000db0565b600084511162000be35760405162461bcd60e51b815260206004820152603660248201527f42656e65666963696172793a204174206c6561737420312062656e656669636960448201527f617279206d757374206265207370656369666965642e000000000000000000006064820152608401620002fc565b825184511462000c5c5760405162461bcd60e51b815260206004820152603d60248201527f42656e65666963696172793a2062656e6566696369617269657320616e64207360448201527f6861726573206d757374206861766520657175616c206c656e6774682e0000006064820152608401620002fc565b60005b845181101562000cc85762000cb385828151811062000c825762000c8262001bc2565b602002602001015185838151811062000c9f5762000c9f62001bc2565b60200260200101516200100260201b60201c565b8062000cbf8162001c04565b91505062000c5f565b5050505050565b60008281526003602052604090206001015462000cec8162000db0565b62000cf8838362000d26565b505050565b60008281526003602052604090206001015462000d1a8162000db0565b62000cf8838362001209565b62000d32828262000f47565b620001e95760008281526003602090815260408083206001600160a01b03851684529091529020805460ff1916600117905562000d6c3390565b6001600160a01b0316816001600160a01b0316837f2f8788117e7eff1d82e926ec794901d17c78024a50270940304540a733656f0d60405160405180910390a45050565b62000dbc813362001273565b50565b6000805b600a5481101562000e2357600a818154811062000de45762000de462001bc2565b6000918252602090912001546001600160a01b039081169084160362000e0e576001915062000e23565b8062000e1a8162001c04565b91505062000dc3565b50919050565b6001600160a01b03841662000e8b5760405162461bcd60e51b815260206004820152602160248201527f455243313135353a206d696e7420746f20746865207a65726f206164647265736044820152607360f81b6064820152608401620002fc565b33600062000e9985620012f6565b9050600062000ea885620012f6565b90506000868152602081815260408083206001600160a01b038b1684529091528120805487929062000edc90849062001bee565b909155505060408051878152602081018790526001600160a01b03808a1692600092918716917fc3d58168c5ae7397731d063d5bbf3d657854427343f4c083240f7aacaa2d0f62910160405180910390a462000f3e836000898989896200134c565b50505050505050565b60008281526003602090815260408083206001600160a01b038516845290915290205460ff165b92915050565b80600381111562000f895762000f8962001c20565b60045460ff16600381111562000fa35762000fa362001c20565b1462000dbc5760405162461bcd60e51b815260206004820152602760248201527f5472757374206973206e6f7420696e20746865206578706563746564205472756044820152667374537461746560c81b6064820152608401620002fc565b6001600160a01b0382166200106b5760405162461bcd60e51b815260206004820152602860248201527f42656e65666963696172793a206163636f756e7420697320746865207a65726f604482015267206164647265737360c01b6064820152608401620002fc565b60008111620010d05760405162461bcd60e51b815260206004820152602a60248201527f42656e65666963696172793a20736861726573206d75737420626520677265616044820152690746572207468616e20360b41b6064820152608401620002fc565b6001600160a01b038216600090815260156020526040812080549083905590819003620011c157601e80546001810182556000919091527f50bb669a95c7b50b7e8a6f09454034b2b14cf2b85c730dca9a539ca82cb6e3500180546001600160a01b0319166001600160a01b0385161790556200115d60008051602062007e1a8339815191528462000ccf565b816012546200116d919062001bee565b6012557f5d081d791b64899adab031015397ef8d7600501212ef97573b9e50f8c9bb6d9b335b604080516001600160a01b0392831681529186166020830152810184905260600160405180910390a1505050565b8181601254620011d2919062001c50565b620011de919062001bee565b6012557facf64e5be9328b7587ff971ea582634b50053eb55d1c727ba52c15c57ad435913362001193565b62001215828262000f47565b15620001e95760008281526003602090815260408083206001600160a01b0385168085529252808320805460ff1916905551339285917ff6391f5c32d9c69d2a47ea670b442974b53935d1edc7fd64eb21e047a839171b9190a45050565b6200127f828262000f47565b620001e957620012a5816001600160a01b031660146200151860201b620037041760201c565b620012bb8360206200370462001518821b17811c565b604051602001620012ce92919062001c66565b60408051601f198184030181529082905262461bcd60e51b8252620002fc9160040162001d0d565b6040805160018082528183019092526060916000919060208083019080368337019050509050828160008151811062001333576200133362001bc2565b602090810291909101015292915050565b505050505050565b6200136b846001600160a01b0316620016d860201b620038a61760201c565b15620013445760405163f23a6e6160e01b81526001600160a01b0385169063f23a6e6190620013a7908990899088908890889060040162001d22565b6020604051808303816000875af1925050508015620013e5575060408051601f3d908101601f19168201909252620013e29181019062001d69565b60015b620014a557620013f462001d95565b806308c379a0036200143457506200140b62001db2565b8062001418575062001436565b8060405162461bcd60e51b8152600401620002fc919062001d0d565b505b60405162461bcd60e51b815260206004820152603460248201527f455243313135353a207472616e7366657220746f206e6f6e204552433131353560448201527f526563656976657220696d706c656d656e7465720000000000000000000000006064820152608401620002fc565b6001600160e01b0319811663f23a6e6160e01b1462000f3e5760405162461bcd60e51b815260206004820152602860248201527f455243313135353a204552433131353552656365697665722072656a656374656044820152676420746f6b656e7360c01b6064820152608401620002fc565b606060006200152983600262001c36565b6200153690600262001bee565b6001600160401b03811115620015505762001550620016e7565b6040519080825280601f01601f1916602001820160405280156200157b576020820181803683370190505b509050600360fc1b8160008151811062001599576200159962001bc2565b60200101906001600160f81b031916908160001a905350600f60fb1b81600181518110620015cb57620015cb62001bc2565b60200101906001600160f81b031916908160001a9053506000620015f184600262001c36565b620015fe90600162001bee565b90505b600181111562001680576f181899199a1a9b1b9c1cb0b131b232b360811b85600f166010811062001636576200163662001bc2565b1a60f81b8282815181106200164f576200164f62001bc2565b60200101906001600160f81b031916908160001a90535060049490941c93620016788162001e41565b905062001601565b508315620016d15760405162461bcd60e51b815260206004820181905260248201527f537472696e67733a20686578206c656e67746820696e73756666696369656e746044820152606401620002fc565b9392505050565b6001600160a01b03163b151590565b634e487b7160e01b600052604160045260246000fd5b601f8201601f191681016001600160401b0381118282101715620017255762001725620016e7565b6040525050565b60005b83811015620017495781810151838201526020016200172f565b50506000910152565b600082601f8301126200176457600080fd5b81516001600160401b03811115620017805762001780620016e7565b60405162001799601f8301601f191660200182620016fd565b818152846020838601011115620017af57600080fd5b620017c28260208301602087016200172c565b949350505050565b80516001600160a01b0381168114620017e257600080fd5b919050565b80516001600160801b0381168114620017e257600080fd5b60006001600160401b038211156200181b576200181b620016e7565b5060051b60200190565b600082601f8301126200183757600080fd5b815160206200184682620017ff565b604051620018558282620016fd565b83815260059390931b85018201928281019150868411156200187657600080fd5b8286015b848110156200189c576200188e81620017ca565b83529183019183016200187a565b509695505050505050565b600082601f830112620018b957600080fd5b81516020620018c882620017ff565b604051620018d78282620016fd565b83815260059390931b8501820192828101915086841115620018f857600080fd5b8286015b848110156200189c5780518352918301918301620018fc565b6000806000806000806000806000806101408b8d0312156200193657600080fd5b8a516001600160401b03808211156200194e57600080fd5b6200195c8e838f0162001752565b9b506200196c60208e01620017ca565b9a506200197c60408e01620017e7565b995060608d01519150808211156200199357600080fd5b620019a18e838f0162001825565b985060808d0151915080821115620019b857600080fd5b620019c68e838f0162001752565b975060a08d0151915080821115620019dd57600080fd5b620019eb8e838f0162001825565b965060c08d015191508082111562001a0257600080fd5b62001a108e838f01620018a7565b955060e08d015194506101008d015191508082111562001a2f57600080fd5b62001a3d8e838f0162001825565b93506101208d015191508082111562001a5557600080fd5b5062001a648d828e01620018a7565b9150509295989b9194979a5092959850565b600181811c9082168062001a8b57607f821691505b60208210810362000e2357634e487b7160e01b600052602260045260246000fd5b601f82111562000cf857600081815260208120601f850160051c8101602086101562001ad55750805b601f850160051c820191505b81811015620013445782815560010162001ae1565b81516001600160401b0381111562001b125762001b12620016e7565b62001b2a8162001b23845462001a76565b8462001aac565b602080601f83116001811462001b62576000841562001b495750858301515b600019600386901b1c1916600185901b17855562001344565b600085815260208120601f198616915b8281101562001b935788860151825594840194600190910190840162001b72565b508582101562001bb25787850151600019600388901b60f8161c191681555b5050505050600190811b01905550565b634e487b7160e01b600052603260045260246000fd5b634e487b7160e01b600052601160045260246000fd5b8082018082111562000f6e5762000f6e62001bd8565b60006001820162001c195762001c1962001bd8565b5060010190565b634e487b7160e01b600052602160045260246000fd5b808202811582820484141762000f6e5762000f6e62001bd8565b8181038181111562000f6e5762000f6e62001bd8565b7f416363657373436f6e74726f6c3a206163636f756e742000000000000000000081526000835162001ca08160178501602088016200172c565b7001034b99036b4b9b9b4b733903937b6329607d1b601791840191820152835162001cd38160288401602088016200172c565b01602801949350505050565b6000815180845262001cf98160208601602086016200172c565b601f01601f19169290920160200192915050565b602081526000620016d1602083018462001cdf565b6001600160a01b03868116825285166020820152604081018490526060810183905260a06080820181905260009062001d5e9083018462001cdf565b979650505050505050565b60006020828403121562001d7c57600080fd5b81516001600160e01b031981168114620016d157600080fd5b600060033d111562001daf5760046000803e5060005160e01c5b90565b600060443d101562001dc15790565b6040516003193d81016004833e81513d6001600160401b03808311602484018310171562001df157505050505090565b828501915081518181111562001e0a5750505050505090565b843d870101602082850101111562001e255750505050505090565b62001e3660208286010187620016fd565b509095945050505050565b60008162001e535762001e5362001bd8565b506000190190565b615f6f8062001e6b6000396000f3fe608060405234801561001057600080fd5b506004361061050e5760003560e01c80636a35bf18116102a4578063ac4a286611610172578063e15fb83f116100d9578063f23a6e6111610092578063f23a6e6114610c16578063f242432a14610c35578063f8be342e14610c48578063f94ff84c14610c50578063fac82a4c14610c58578063ffa1ad7414610c7b57600080fd5b8063e15fb83f14610b70578063e23a845a14610b85578063e3d08e1814610b8d578063e985e9c514610ba0578063efb3e81714610bdc578063efeb5e5814610c0357600080fd5b8063c9129e891161012b578063c9129e8914610b05578063ced3a40314610b0d578063d09dae6414610b22578063d547741f14610b35578063dad72af914610b48578063dbe6e98714610b5057600080fd5b8063ac4a286614610a61578063adfd473d14610a76578063af136dea14610a7e578063b079572114610a91578063bc197c8114610aa4578063c722002514610adc57600080fd5b806384da242d11610216578063a1b5203a116101cf578063a1b5203a14610a04578063a217fddf14610a17578063a22cb46514610a1f578063a3d591f414610a32578063a42a43de14610a45578063a571409914610a5857600080fd5b806384da242d146109945780639126a790146109ae578063913b722c146109c157806391d14854146109d65780639630c750146109e9578063a10f80ec146109f157600080fd5b80637046bdd5116102685780637046bdd51461090757806374a0c2351461093e5780637a6ae541146109515780637a88100614610959578063835a02bf1461096c578063844aba121461098157600080fd5b80636a35bf18146108cd5780636c6a88cf146108e75780636ed89c90146109075780636f3c19b8146109165780637043057b1461092957600080fd5b80632fd199e6116103e15780634e1273f4116103535780635e26184a1161030c5780635e26184a146108865780635f63672e1461088e578063609d356d146108a157806362c1f194146108a957806364412658146108bc57806367f0cc75146108c457600080fd5b80634e1273f4146108005780634e71d92d146108205780634fcf9b701461082857806350894f251461084b57806353f9091014610853578063564a41bc1461086657600080fd5b806336568abe116103a557806336568abe146107a357806338b2037b146107b65780633a98ef39146107c95780633d8f89a7146107d2578063442e7fb4146107e55780634a590b34146107f857600080fd5b80632fd199e6146107035780633059bb741461070c578063332ffd7d1461074d578063345f39b11461076057806334ddedba1461078057600080fd5b806317314d99116104855780632b8891b41161043e5780632b8891b4146106965780632cac761c1461069f5780632eb2c2d6146106a75780632edc194c146106ba5780632f2d87d2146106dd5780632f2ff15d146106f057600080fd5b806317314d99146106195780632093d0ed1461062c5780632160027a14610635578063248a9ca31461064857806329f3e8a61461066b5780632a23d8381461067357600080fd5b806309494bce116104d757806309494bce146105995780630de86e25146105ac5780630e89341c146105d55780630fb91e2a146105e8578063101b97ec146105f0578063106b686d146105f957600080fd5b8062fdd58e1461051357806301ffc9a71461053957806302fe53051461055c578063065dc4c11461057157806306fdde0314610584575b600080fd5b6105266105213660046151b9565b610ca3565b6040519081526020015b60405180910390f35b61054c6105473660046151f9565b610d3c565b6040519015158152602001610530565b61056f61056a3660046152b5565b610d47565b005b61056f61057f366004615406565b610d5f565b61058c610eca565b60405161053091906154b9565b61056f6105a73660046154cc565b610f58565b6105266105ba3660046154cc565b6001600160a01b031660009081526008602052604090205490565b61058c6105e33660046154e7565b611062565b61056f6110f6565b61052660055481565b6105266106073660046154cc565b60196020526000908152604090205481565b61054c6106273660046154cc565b6114ed565b61052660105481565b61054c6106433660046154cc565b61154e565b6105266106563660046154e7565b60009081526003602052604090206001015490565b61056f6115a9565b61054c6106813660046154cc565b60096020526000908152604090205460ff1681565b61052660075481565b61056f6115ca565b61056f6106b5366004615520565b6115fe565b61054c6106c83660046154cc565b601d6020526000908152604090205460ff1681565b61056f6106eb3660046155c9565b611643565b61056f6106fe3660046155fd565b611860565b61052660135481565b61073561071a3660046154cc565b6014602052600090815260409020546001600160a01b031681565b6040516001600160a01b039091168152602001610530565b601154610735906001600160a01b031681565b61052661076e3660046154cc565b60086020526000908152604090205481565b61054c61078e3660046154cc565b601a6020526000908152604090205460ff1681565b61056f6107b13660046155fd565b61188a565b6107356107c43660046154e7565b611904565b61052660125481565b61056f6107e03660046152b5565b61192e565b6107356107f33660046151b9565b6119d3565b61056f611a0b565b61081361080e366004615406565b611a2a565b6040516105309190615664565b61056f611b53565b61054c6108363660046154cc565b601c6020526000908152604090205460ff1681565b61058c611dfb565b61056f6108613660046154cc565b611f0f565b6105266108743660046154cc565b60166020526000908152604090205481565b601e54610526565b61073561089c3660046154e7565b611f2f565b61056f611f3f565b61056f6108b7366004615677565b6120bc565b600a54610526565b61052660205481565b6004546108da9060ff1681565b60405161053091906156fe565b6105266108f53660046154cc565b600f6020526000908152604090205481565b610526670de0b6b3a764000081565b61056f610924366004615406565b6124fe565b610526600080516020615f1a83398151915281565b61073561094c3660046154e7565b612799565b61056f6127a9565b61054c6109673660046154cc565b6127df565b610526600080516020615efa83398151915281565b61056f61098f3660046154cc565b61283a565b600c546109a19060ff1681565b6040516105309190615718565b61056f6109bc3660046154cc565b61285a565b6109c961287a565b604051610530919061572c565b61054c6109e43660046155fd565b6128dc565b61056f612907565b6107356109ff366004615779565b61291f565b61056f610a123660046154cc565b61293b565b610526600081565b61056f610a2d36600461579b565b612d1d565b610735610a403660046154e7565b612d28565b61056f610a533660046154e7565b612d38565b61052660065481565b610526600080516020615eba83398151915281565b61056f612e6a565b61056f610a8c3660046154e7565b612f37565b610526610a9f3660046155c9565b612fee565b610ac3610ab2366004615520565b63bc197c8160e01b95945050505050565b6040516001600160e01b03199091168152602001610530565b610526610aea3660046154cc565b6001600160a01b031660009081526015602052604090205490565b61056f613085565b610526600080516020615eda83398151915281565b61056f610b303660046154cc565b6131cb565b61056f610b433660046155fd565b6133e2565b610526613407565b610526610b5e3660046154cc565b60156020526000908152604090205481565b610526600080516020615e9a83398151915281565b61052661341e565b61056f610b9b3660046157d7565b613430565b61054c610bae36600461581a565b6001600160a01b03918216600090815260016020908152604080832093909416825291909152205460ff1690565b6105267f33001cdbe252ec76011c106c3e92eaf64f6c8db70d7ac6e05cc77144062ac79b81565b610735610c113660046154e7565b613625565b610ac3610c24366004615844565b63f23a6e6160e01b95945050505050565b61056f610c43366004615844565b613635565b6108da600081565b600e54610526565b61054c610c663660046154cc565b601b6020526000908152604090205460ff1681565b61058c604051806040016040528060098152602001680323032322e31302e360bc1b81525081565b60006001600160a01b038316610d135760405162461bcd60e51b815260206004820152602a60248201527f455243313135353a2061646472657373207a65726f206973206e6f742061207660448201526930b634b21037bbb732b960b11b60648201526084015b60405180910390fd5b506000818152602081815260408083206001600160a01b03861684529091529020545b92915050565b6000610d36826138b5565b6000610d52816138da565b610d5b826138e4565b5050565b6001610d6a816138f0565b600080516020615efa833981519152610d82816138da565b6000845111610df25760405162461bcd60e51b815260206004820152603660248201527f42656e65666963696172793a204174206c6561737420312062656e656669636960448201527530b93c9036bab9ba1031329039b832b1b4b334b2b21760511b6064820152608401610d0a565b8251845114610e695760405162461bcd60e51b815260206004820152603d60248201527f42656e65666963696172793a2062656e6566696369617269657320616e64207360448201527f6861726573206d757374206861766520657175616c206c656e6774682e0000006064820152608401610d0a565b60005b8451811015610ec357610eb1858281518110610e8a57610e8a6158a8565b6020026020010151858381518110610ea457610ea46158a8565b6020026020010151613936565b80610ebb816158d4565b915050610e6c565b5050505050565b601f8054610ed7906158ed565b80601f0160208091040260200160405190810160405280929190818152602001828054610f03906158ed565b8015610f505780601f10610f2557610100808354040283529160200191610f50565b820191906000526020600020905b815481529060010190602001808311610f3357829003601f168201915b505050505081565b6000610f63816138da565b6001600160a01b038216610fb95760405162461bcd60e51b815260206004820152601f60248201527f616464726573732063616e206e6f74206265207a65726f2061646472657373006044820152606401610d0a565b600d80546001810182556000919091527fd7b6990105719101dabeb77144f2a3385c8033acd3af97e9423a695e81ad1eb50180546001600160a01b0319166001600160a01b03841617905561101c600080516020615efa83398151915283611860565b604080513381526001600160a01b03841660208201527f9f2f3bb1e001850c78e18c2e52a4bcd24afad4f0f0f8be8ec9ac72b54611898f91015b60405180910390a15050565b606060028054611071906158ed565b80601f016020809104026020016040519081016040528092919081815260200182805461109d906158ed565b80156110ea5780601f106110bf576101008083540402835291602001916110ea565b820191906000526020600020905b8154815290600101906020018083116110cd57829003601f168201915b50505050509050919050565b60015b601354611107906001615921565b8110156114ea5760008181526018602090815260408083208054825181850281018501909352808352919290919083018282801561116e57602002820191906000526020600020905b81546001600160a01b03168152600190910190602001808311611150575b50505050509050600061118082612fee565b90506000816001600160401b0381111561119c5761119c615216565b6040519080825280602002602001820160405280156111c5578160200160208202803683370190505b50905060005b828110156112835760008482815181106111e7576111e76158a8565b6020908102919091018101516001600160a01b0381166000908152601b90925260409091205490915060ff16158061123757506001600160a01b0381166000908152601c602052604090205460ff165b15611270578083878151811061124f5761124f6158a8565b60200260200101906001600160a01b031690816001600160a01b0316815250505b508061127b816158d4565b9150506111cb565b5060005b83518110156114d35760008482815181106112a4576112a46158a8565b6020908102919091018101516001600160a01b0381166000908152601b90925260409091205490915060ff16156114c0576001600160a01b038116600090815260156020908152604080832054601c9092529091205460ff1615611411576001600160a01b03821660009081526017602090815260408083208054825181850281018501909352808352919290919083018282801561136c57602002820191906000526020600020905b81546001600160a01b0316815260019091019060200180831161134e575b505083516001600160a01b038816600090815260156020526040812081905594955093925050505b82518110156114095760008382815181106113b1576113b16158a8565b6020026020010151905082856113c79190615934565b6001600160a01b038216600090815260156020526040812080549091906113ef908490615921565b909155508291506114019050816158d4565b915050611394565b5050506114be565b8351600081900361144257604080518082019091526009815268155c88119d58dad95960ba1b6020909101526114bc565b60005b85518110156114ba576000868281518110611462576114626158a8565b6020026020010151905082846114789190615934565b6001600160a01b038216600090815260156020526040812080549091906114a0908490615921565b909155508291506114b29050816158d4565b915050611445565b505b505b505b50806114cb816158d4565b915050611287565b5050505080806114e2906158d4565b9150506110f9565b50565b6000805b600a5481101561154857600a818154811061150e5761150e6158a8565b6000918252602090912001546001600160a01b03908116908416036115365760019150611548565b80611540816158d4565b9150506114f1565b50919050565b6000805b601e5481101561154857601e818154811061156f5761156f6158a8565b6000918252602090912001546001600160a01b03908116908416036115975760019150611548565b806115a1816158d4565b915050611552565b600080516020615e9a8339815191526115c1816138da565b6114ea33613b1e565b600080516020615f1a8339815191526115e2816138da565b60026115ed816138f0565b50506004805460ff19166003179055565b6001600160a01b03851633148061161a575061161a8533610bae565b6116365760405162461bcd60e51b8152600401610d0a90615956565b610ec38585858585613d4e565b61165a600080516020615efa8339815191526138da565b60005b815181101561185857600082828151811061167a5761167a6158a8565b6020026020010151905060006001600160a01b0316816001600160a01b0316036116f75760405162461bcd60e51b815260206004820152602860248201527f4772616e746f723a20616464726573732063616e206e6f74206265207a65726f604482015267206164647265737360c01b6064820152608401610d0a565b611700816114ed565b1561174d5760405162461bcd60e51b815260206004820181905260248201527f4772616e746f723a206164647265737320616c7265616479206772616e746f726044820152606401610d0a565b600b54600a8054600181019091557fc65a7bb8d6351c1cf70c95a316cc6a92839c986682d98bc35f958f4883f9d2a80180546001600160a01b0319166001600160a01b0384169081179091556000908152600860209081526040808320849055805191820190529081526117ce9083908390670de0b6b3a764000090613f23565b6001600b60008282546117e19190615921565b909155506117ff9050600080516020615e9a83398151915283611860565b7f2d2500ad452ae259e6723284b4b4133d18c42ac9e3212498b64d2a381580b57b33604080516001600160a01b03928316815291851660208301520160405180910390a150508080611850906158d4565b91505061165d565b505042600555565b60008281526003602052604090206001015461187b816138da565b6118858383614037565b505050565b6001600160a01b03811633146118fa5760405162461bcd60e51b815260206004820152602f60248201527f416363657373436f6e74726f6c3a2063616e206f6e6c792072656e6f756e636560448201526e103937b632b9903337b91039b2b63360891b6064820152608401610d0a565b610d5b82826140bd565b600d818154811061191457600080fd5b6000918252602090912001546001600160a01b0316905081565b611945600080516020615efa8339815191526138da565b805160208201207fee9183123b3ab5de6c1afd86d1313df9407861927e5c01c20eece8f5c5de53530161198c57600c80546000919060ff19166001835b02179055506119cc565b805160208201207f66221dd9fd87d664c939a6a10ca0fe38c1b0bcdf0ff0d038b1aa0a73be2cf0310161050e57600c80546001919060ff19168280611982565b5042600555565b601760205281600052604060002081815481106119ef57600080fd5b6000918252602090912001546001600160a01b03169150829050565b600080516020615f1a833981519152611a23816138da565b5042600755565b60608151835114611a8f5760405162461bcd60e51b815260206004820152602960248201527f455243313135353a206163636f756e747320616e6420696473206c656e677468604482015268040dad2e6dac2e8c6d60bb1b6064820152608401610d0a565b600083516001600160401b03811115611aaa57611aaa615216565b604051908082528060200260200182016040528015611ad3578160200160208202803683370190505b50905060005b8451811015611b4b57611b1e858281518110611af757611af76158a8565b6020026020010151858381518110611b1157611b116158a8565b6020026020010151610ca3565b828281518110611b3057611b306158a8565b6020908102919091010152611b44816158d4565b9050611ad9565b509392505050565b600080516020615eda833981519152611b6b816138da565b6003611b76816138f0565b33600090815260156020526040902054611bd25760405162461bcd60e51b815260206004820152601e60248201527f53696d706c65543a206163636f756e7420686173206e6f2073686172657300006044820152606401610d0a565b336000908152601d602052604090205460ff1615611c425760405162461bcd60e51b815260206004820152602760248201527f53696d706c65543a2042656e656669636172792068617320616c72656164792060448201526618db185a5b595960ca1b6064820152608401610d0a565b600a546000816001600160401b03811115611c5f57611c5f615216565b604051908082528060200260200182016040528015611c88578160200160208202803683370190505b5090506000826001600160401b03811115611ca557611ca5615216565b604051908082528060200260200182016040528015611cce578160200160208202803683370190505b50336000908152601560205260408120549192505b84811015611dbc576000600a8281548110611d0057611d006158a8565b60009182526020808320909101546001600160a01b0316808352600990915260409091205490915060ff1615611da9576001600160a01b03811660009081526008602052604090205485518190879085908110611d5f57611d5f6158a8565b6020908102919091010152601254611d7f85670de0b6b3a76400006159a5565b611d899190615934565b858481518110611d9b57611d9b6158a8565b602002602001018181525050505b5080611db4816158d4565b915050611ce3565b50336000818152601d60209081526040808320805460ff1916600117905580519182019052908152611df391309186908690613d4e565b505050505050565b60045460609060ff166000816003811115611e1857611e186156e8565b03611e41575050604080518082019091526008815267496e61637469766560c01b602082015290565b6001816003811115611e5557611e556156e8565b03611e7c57505060408051808201909152600681526541637469766560d01b602082015290565b6002816003811115611e9057611e906156e8565b03611eba575050604080518082019091526009815268457865637574696e6760b81b602082015290565b6003816003811115611ece57611ece6156e8565b03611ef7575050604080518082019091526008815267115e1958dd5d195960c21b602082015290565b505060408051602081019091526000815290565b5090565b611f26600080516020615efa8339815191526138da565b6119cc81614124565b600e818154811061191457600080fd5b600080516020615e9a833981519152611f57816138da565b3360008181526008602052604081205491611f73905b83610ca3565b11611fb95760405162461bcd60e51b81526020600482015260166024820152754772616e746f723a20686173206e6f20746f6b656e7360501b6044820152606401610d0a565b670de0b6b3a7640000611fcb33611f6d565b146120245760405162461bcd60e51b8152602060048201526024808201527f4772616e746f723a20646f6573206e6f74206861766520656e6f75676820746f6044820152636b656e7360e01b6064820152608401610d0a565b612048333083670de0b6b3a764000060405180602001604052806000815250613635565b336000908152600960205260408120805460ff1916600117905560045460ff166003811115612079576120796156e8565b0361208c576004805460ff191660011790555b6040513381527ff7efa194e78c695700a8a53fe398b5cceba12ee3304aee9a7d0c9ec53f2748a990602001611056565b600080516020615eba8339815191526120d4816138da565b600160045460ff1660038111156120ed576120ed6156e8565b1461210a5760405162461bcd60e51b8152600401610d0a906159bc565b6121148383614348565b61216c5760405162461bcd60e51b815260206004820152602360248201527f5369676e6174757265436865636b65723a20496e76616c6964205369676e617460448201526275726560e81b6064820152608401610d0a565b336000908152600f6020526040902054806121995760405162461bcd60e51b8152600401610d0a90615a03565b60105442906121a9600184615a51565b6121b391906159a5565b6121bb61341e565b6121c59190615921565b106122385760405162461bcd60e51b815260206004820152603f60248201527f54686973205375636365736f722054727573746565206973206e6f742061766160448201527f696c626c6520746f20616374206f6e2074686973207472757374207965742e006064820152608401610d0a565b612250600080516020615f1a83398151915233614037565b601180546001600160a01b0319163317905561227b600080516020615eba83398151915260006143d0565b612294600080516020615eda83398151915260006143d0565b60005b600d548110156122f2576122e0600080516020615efa833981519152600d83815481106122c6576122c66158a8565b6000918252602090912001546001600160a01b03166140bd565b806122ea816158d4565b915050612297565b5060005b600a548110156123c3576000600a8281548110612315576123156158a8565b6000918252602090912001546001600160a01b03169050612344600080516020615e9a833981519152826140bd565b6001600160a01b03811660009081526009602052604090205460ff166123b057602180546001810182556000919091527f3a6357012c1a3ae0a17d304c9920310382d968ebcc4b1771f41c6b304205b5700180546001600160a01b0319166001600160a01b0383161790555b50806123bb816158d4565b9150506122f6565b506123ea600080516020615e9a833981519152600080516020615f1a8339815191526143d0565b60005b60215481101561243f5760006021828154811061240c5761240c6158a8565b6000918252602090912001546001600160a01b0316905061242c81613b1e565b5080612437816158d4565b9150506123ed565b50612459600080516020615e9a83398151915260006143d0565b6004805460ff191660021790554260075560016000526018602052601e80546124a3917ff3794665d3af9b6fb6f858b70185898134f96768ef31c325d52e04f0ac195a4d91615122565b5060005b601e54811015610ec3576000601e82815481106124c6576124c66158a8565b60009182526020808320909101546001600160a01b0316825260199052604090206001905550806124f6816158d4565b9150506124a7565b612515600080516020615efa8339815191526138da565b805182511461257b5760405162461bcd60e51b815260206004820152602c60248201527f416464726573736573202620706f736974696f6e73206d75737420686176652060448201526b0cae2eac2d840d8cadccee8d60a31b6064820152608401610d0a565b60005b825181101561279057600083828151811061259b5761259b6158a8565b6020026020010151905060008383815181106125b9576125b96158a8565b6020026020010151905060006001600160a01b0316826001600160a01b0316036126365760405162461bcd60e51b815260206004820152602860248201527f547275737465653a20616464726573732063616e206e6f74206265207a65726f604482015267206164647265737360c01b6064820152608401610d0a565b61264e600080516020615eba833981519152836128dc565b156126ae5760405162461bcd60e51b815260206004820152602a60248201527f547275737465653a206164647265737320616c726561647920737563636573736044820152696f72207472757374656560b01b6064820152608401610d0a565b600081116126ce5760405162461bcd60e51b8152600401610d0a90615a03565b600e8054600181019091557fbb7b4a454dc3493923482f07822329ed19e8244eff582cc204f8554c3620c3fd0180546001600160a01b0319166001600160a01b0384169081179091556000908152600f60205260409020819055612740600080516020615eba83398151915283614037565b7f553b1aba577dfe3493f342cadf16e40dccca372fb9074ed8fccc50a986afce3333838360405161277393929190615a64565b60405180910390a150508080612788906158d4565b91505061257e565b50504260055550565b6021818154811061191457600080fd5b6127c0600080516020615f1a8339815191526138da565b60026127cb816138f0565b506004805460ff1916600317905542600755565b6000805b600e5481101561154857600e8181548110612800576128006158a8565b6000918252602090912001546001600160a01b03908116908416036128285760019150611548565b80612832816158d4565b9150506127e3565b612851600080516020615efa8339815191526138da565b6119cc81613b1e565b612871600080516020615efa8339815191526138da565b6119cc8161441b565b6060601e8054806020026020016040519081016040528092919081815260200182805480156128d257602002820191906000526020600020905b81546001600160a01b031681526001909101906020018083116128b4575b5050505050905090565b60009182526003602090815260408084206001600160a01b0393909316845291905290205460ff1690565b600080516020615efa8339815191526119cc816138da565b601860205281600052604060002081815481106119ef57600080fd5b612952600080516020615f1a8339815191526138da565b6001600160a01b0381166000908152601b602052604090205460ff166129d25760405162461bcd60e51b815260206004820152602f60248201527f42656e6566696369617279206e6f74207370656369666965642061732064656160448201526e32171021b0b73737ba103ab732379760891b6064820152608401610d0a565b6001600160a01b0381166000908152601b60209081526040808320805460ff19169055601c90915290205460ff1615612cf8576001600160a01b03811660009081526019602052604081205490612a2a826001615921565b905060005b6001600160a01b038416600090815260176020526040902054811015612cbd576001600160a01b0384166000908152601760205260408120805483908110612a7957612a796158a8565b60009182526020808320909101546001600160a01b0316808352601b90915260409091205490915060ff1615612b3d5760405162461bcd60e51b815260206004820152605960248201527f412064657363656e64616e7420686173206265656e206d61726b65642064656360448201527f65617365642e204d75737420756e646f20326e642067656e2064657363656e6460648201527f616e6473206265666f72652070726576696f75732067656e2e00000000000000608482015260a401610d0a565b6001600160a01b038116600090815260146020908152604080832080546001600160a01b0319169055601990915281208190555b600084815260186020526040902054811015612ca8576000848152601860205260409020805482908110612ba757612ba76158a8565b6000918252602090912001546001600160a01b0390811690831603612c965760008481526018602052604090208054612be290600190615a51565b81548110612bf257612bf26158a8565b60009182526020808320909101548683526018909152604090912080546001600160a01b039092169183908110612c2b57612c2b6158a8565b600091825260208083209190910180546001600160a01b0319166001600160a01b039490941693909317909255858152601890915260409020805480612c7357612c73615a88565b600082815260209020810160001990810180546001600160a01b03191690550190555b80612ca0816158d4565b915050612b71565b50508080612cb5906158d4565b915050612a2f565b506001600160a01b0383166000908152601c60209081526040808320805460ff1916905560179091528120612cf19161516e565b5050611a23565b6001600160a01b03166000908152601c60205260409020805460ff1916905542600755565b610d5b338383614625565b600a818154811061191457600080fd5b612d4f600080516020615efa8339815191526138da565b6001811015612db55760405162461bcd60e51b815260206004820152602c60248201527f4e657720706572696f64206d75737420626520616e20696e746567657220677260448201526b06561746572207468616e20360a41b6064820152608401610d0a565b6008811115612e195760405162461bcd60e51b815260206004820152602a60248201527f4e657720706572696f64206d75737420626520616e20696e7465676572206c6560448201526939b9903a3430b710199b60b11b6064820152608401610d0a565b612e268162093a806159a5565b60105560408051338152602081018390527f7aa80ded7d22f7b07cf91a1da00c3f4fc2b545c354fcd5d82367cb820823ca2391015b60405180910390a15042600555565b600080516020615eba833981519152612e82816138da565b612e8a613407565b4211612ef25760405162461bcd60e51b815260206004820152603160248201527f416374697665207472757374656520686173206e6f74206265656e20696e61636044820152703a34bb32903637b7339032b737bab3b41760791b6064820152608401610d0a565b601154612f1790600080516020615f1a833981519152906001600160a01b03166140bd565b50601180546001600160a01b03191690556004805460ff19166001179055565b612f4e600080516020615efa8339815191526138da565b60008111612fa85760405162461bcd60e51b815260206004820152602160248201527f4e657720706572696f64206d75737420626520616e20696e7465676572203e206044820152600360fc1b6064820152608401610d0a565b612fb581620151806159a5565b60065560408051338152602081018390527f09a388ec24176e675d9fd765f5fb4bd0cf32d2df3f7adab3b2d449ab1cea6f649101612e5b565b6000805b825181101561154857600083828151811061300f5761300f6158a8565b6020908102919091018101516001600160a01b0381166000908152601b90925260409091205490915060ff16158061305f57506001600160a01b0381166000908152601c602052604090205460ff165b156130725761306f600184615921565b92505b508061307d816158d4565b915050612ff2565b6013545b6001811115613191576000818152601860209081526040808320805482518185028101850190935280835291929091908301828280156130f257602002820191906000526020600020905b81546001600160a01b031681526001909101906020018083116130d4575b5050505050905060005b8151811015613166576000828281518110613119576131196158a8565b6020908102919091018101516001600160a01b0381166000908152601b90925260409091205490915060ff1615613153576131538161293b565b508061315e816158d4565b9150506130fc565b50600082815260186020526040812061317e9161516e565b508061318981615a9e565b915050613089565b5060016000526018602052601e80546114ea917ff3794665d3af9b6fb6f858b70185898134f96768ef31c325d52e04f0ac195a4d91615122565b6131e2600080516020615f1a8339815191526138da565b600080600c5460ff1660018111156131fc576131fc6156e8565b146132575760405162461bcd60e51b815260206004820152602560248201527f4e6f742074686520657870656374656420646973747269627574696f6e206d656044820152643a3437b21760d91b6064820152608401610d0a565b6132608261154e565b6132c05760405162461bcd60e51b815260206004820152602b60248201527f5061737365642061646472657373206973206e6f7420612063757272656e742060448201526a62656e656669636961727960a81b6064820152608401610d0a565b601e546000906132d290600190615a51565b905080601260008282546132e691906159a5565b90915550506001600160a01b03831660009081526015602052604090205461330d84614705565b60005b601e5481101561339c576000601e828154811061332f5761332f6158a8565b60009182526020808320909101546001600160a01b031680835260159091526040909120549091508361336282876159a5565b61336c9190615921565b6001600160a01b039092166000908152601560205260409020919091555080613394816158d4565b915050613310565b507f585ddad6e2cee175fbbb80e3454dfe95aad2f41e3f57f218a46d111f9f6d7a4a3385836040516133d093929190615a64565b60405180910390a15050426007555050565b6000828152600360205260409020600101546133fd816138da565b61188583836140bd565b60006010546007546134199190615921565b905090565b60006006546005546134199190615921565b613447600080516020615f1a8339815191526138da565b6134508261154e565b6134b85760405162461bcd60e51b815260206004820152603360248201527f506173736564206465616442656e6566696369617279206973206e6f7420612060448201527263757272656e742062656e656669636961727960681b6064820152608401610d0a565b6001600160a01b0382166000908152601b60205260409020805460ff191660011790558051156135fc576001600160a01b0382166000908152601c60209081526040808320805460ff1916600190811790915560199092528220549190613520908390615921565b90506013548111156135325760138190555b60005b83518110156135f4576000848281518110613552576135526158a8565b6020908102919091018101516001600160a01b039081166000818152601984526040808220889055878252601885528082208054600181810183559184528684200180546001600160a01b03199081168617909155948c168084526017875282842080549283018155845286842090910180548616851790559282526014909452929092208054909116909117905550806135ec816158d4565b915050613535565b50505061361d565b6001600160a01b0382166000908152601c60205260409020805460ff191690555b505042600755565b601e818154811061191457600080fd5b6001600160a01b03841630146136a05760405162461bcd60e51b815260206004820152602a60248201527f455243313135353a204f6e6c792073656e6420746f6b656e7320746f2054727560448201526939ba1037b910213ab93760b11b6064820152608401610d0a565b670de0b6b3a764000082146136f75760405162461bcd60e51b815260206004820152601d60248201527f455243313135353a204d7573742073656e6420616c6c20746f6b656e730000006044820152606401610d0a565b610ec38585858585614725565b606060006137138360026159a5565b61371e906002615921565b6001600160401b0381111561373557613735615216565b6040519080825280601f01601f19166020018201604052801561375f576020820181803683370190505b509050600360fc1b8160008151811061377a5761377a6158a8565b60200101906001600160f81b031916908160001a905350600f60fb1b816001815181106137a9576137a96158a8565b60200101906001600160f81b031916908160001a90535060006137cd8460026159a5565b6137d8906001615921565b90505b6001811115613850576f181899199a1a9b1b9c1cb0b131b232b360811b85600f166010811061380c5761380c6158a8565b1a60f81b828281518110613822576138226158a8565b60200101906001600160f81b031916908160001a90535060049490941c9361384981615a9e565b90506137db565b50831561389f5760405162461bcd60e51b815260206004820181905260248201527f537472696e67733a20686578206c656e67746820696e73756666696369656e746044820152606401610d0a565b9392505050565b6001600160a01b03163b151590565b60006001600160e01b03198216637965db0b60e01b1480610d365750610d368261476a565b6114ea81336147aa565b6002610d5b8282615afb565b806003811115613902576139026156e8565b60045460ff166003811115613919576139196156e8565b146114ea5760405162461bcd60e51b8152600401610d0a906159bc565b6001600160a01b03821661399d5760405162461bcd60e51b815260206004820152602860248201527f42656e65666963696172793a206163636f756e7420697320746865207a65726f604482015267206164647265737360c01b6064820152608401610d0a565b60008111613a005760405162461bcd60e51b815260206004820152602a60248201527f42656e65666963696172793a20736861726573206d75737420626520677265616044820152690746572207468616e20360b41b6064820152608401610d0a565b6001600160a01b038216600090815260156020526040812080549083905590819003613adb57601e80546001810182556000919091527f50bb669a95c7b50b7e8a6f09454034b2b14cf2b85c730dca9a539ca82cb6e3500180546001600160a01b0319166001600160a01b038516179055613a89600080516020615eda83398151915284611860565b81601254613a979190615921565b6012557f5d081d791b64899adab031015397ef8d7600501212ef97573b9e50f8c9bb6d9b335b8484604051613ace93929190615a64565b60405180910390a1505050565b8181601254613aea9190615a51565b613af49190615921565b6012557facf64e5be9328b7587ff971ea582634b50053eb55d1c727ba52c15c57ad4359133613abd565b60005b600a54811015610d5b57600a8181548110613b3e57613b3e6158a8565b6000918252602090912001546001600160a01b0390811690831603613d3c57600a8054613b6d90600190615a51565b81548110613b7d57613b7d6158a8565b600091825260209091200154600a80546001600160a01b039092169183908110613ba957613ba96158a8565b9060005260206000200160006101000a8154816001600160a01b0302191690836001600160a01b03160217905550600a805480613be857613be8615a88565b600082815260209020810160001990810180546001600160a01b03191690550190556001600160a01b0382163303613c3757613c32600080516020615e9a8339815191528361188a565b613c4f565b613c4f600080516020615e9a833981519152836133e2565b6001600160a01b03821660009081526009602052604090205460ff1615613ca2576001600160a01b038216600090815260086020526040902054613c9d903090670de0b6b3a764000061480e565b613ccf565b6001600160a01b038216600090815260086020526040902054613ccf908390670de0b6b3a764000061480e565b6001600160a01b0382166000908152600960205260409020805460ff19169055613cf761498a565b7f701072609ecdc9f1dec8d59310d034f818b105c61460db326e9df9014eb3b8f933604080516001600160a01b03928316815291851660208301520160405180910390a15b80613d46816158d4565b915050613b21565b8151835114613db05760405162461bcd60e51b815260206004820152602860248201527f455243313135353a2069647320616e6420616d6f756e7473206c656e677468206044820152670dad2e6dac2e8c6d60c31b6064820152608401610d0a565b6001600160a01b038416613dd65760405162461bcd60e51b8152600401610d0a90615bba565b3360005b8451811015613ebd576000858281518110613df757613df76158a8565b602002602001015190506000858381518110613e1557613e156158a8565b602090810291909101810151600084815280835260408082206001600160a01b038e168352909352919091205490915081811015613e655760405162461bcd60e51b8152600401610d0a90615bff565b6000838152602081815260408083206001600160a01b038e8116855292528083208585039055908b16825281208054849290613ea2908490615921565b9250508190555050505080613eb6906158d4565b9050613dda565b50846001600160a01b0316866001600160a01b0316826001600160a01b03167f4a39dc06d4c0dbc64b70af90fd698a233a518aa5d07e595d983b8c0526c8f7fb8787604051613f0d929190615c49565b60405180910390a4611df3818787878787614a0b565b6001600160a01b038416613f835760405162461bcd60e51b815260206004820152602160248201527f455243313135353a206d696e7420746f20746865207a65726f206164647265736044820152607360f81b6064820152608401610d0a565b336000613f8f85614b66565b90506000613f9c85614b66565b90506000868152602081815260408083206001600160a01b038b16845290915281208054879290613fce908490615921565b909155505060408051878152602081018790526001600160a01b03808a1692600092918716917fc3d58168c5ae7397731d063d5bbf3d657854427343f4c083240f7aacaa2d0f62910160405180910390a461402e83600089898989614bb1565b50505050505050565b61404182826128dc565b610d5b5760008281526003602090815260408083206001600160a01b03851684529091529020805460ff191660011790556140793390565b6001600160a01b0316816001600160a01b0316837f2f8788117e7eff1d82e926ec794901d17c78024a50270940304540a733656f0d60405160405180910390a45050565b6140c782826128dc565b15610d5b5760008281526003602090815260408083206001600160a01b0385168085529252808320805460ff1916905551339285917ff6391f5c32d9c69d2a47ea670b442974b53935d1edc7fd64eb21e047a839171b9190a45050565b600e546001106141b15760405162461bcd60e51b815260206004820152604c60248201527f43616e6e6f742072656d6f7665206c61737420737563636573736f722074727560448201527f737465652e20506c6561736520616464207265706c6163656d656e742062656660648201526b37b932903932b6b7bb30b61760a11b608482015260a401610d0a565b60005b600e54811015610d5b57600e81815481106141d1576141d16158a8565b6000918252602090912001546001600160a01b039081169083160361433657600e805461420090600190615a51565b81548110614210576142106158a8565b600091825260209091200154600e80546001600160a01b03909216918390811061423c5761423c6158a8565b9060005260206000200160006101000a8154816001600160a01b0302191690836001600160a01b03160217905550600e80548061427b5761427b615a88565b600082815260209020810160001990810180546001600160a01b03191690550190556001600160a01b03821633036142ca576142c5600080516020615eba8339815191528361188a565b6142e2565b6142e2600080516020615eba833981519152836133e2565b7fb87d1961ed92f66b3cf3367438d85283cc16315f68fa2b9cdc6165810fae6ee9336001600160a01b0384166000908152600f60205260409081902054905161432d92918691615a64565b60405180910390a15b80614340816158d4565b9150506141b4565b6000336001600160a01b03166143bf84848080601f0160208091040260200160405190810160405280939291908181526020018383808284376000920191909152506143b992507f33001cdbe252ec76011c106c3e92eaf64f6c8db70d7ac6e05cc77144062ac79b9150614c6c9050565b90614cbf565b6001600160a01b0316149392505050565b600082815260036020526040808220600101805490849055905190918391839186917fbd79b86ffe0ab8e8776151514217cd7cacd52c909f66475c3af44e129f0b00ff9190a4505050565b601e546001106144a25760405162461bcd60e51b815260206004820152604660248201527f43616e6e6f742072656d6f7665206c6173742062656e65666963696172792e2060448201527f506c6561736520616464207265706c6163656d656e74206265666f726520726560648201526536b7bb30b61760d11b608482015260a401610d0a565b6001600160a01b038116600090815260156020526040812054905b601e5481101561188557601e81815481106144da576144da6158a8565b6000918252602090912001546001600160a01b039081169084160361461357601e805461450990600190615a51565b81548110614519576145196158a8565b600091825260209091200154601e80546001600160a01b039092169183908110614545576145456158a8565b9060005260206000200160006101000a8154816001600160a01b0302191690836001600160a01b03160217905550601e80548061458457614584615a88565b60008281526020808220830160001990810180546001600160a01b03191690559092019092556001600160a01b03851682526015905260408120556145d7600080516020615eda833981519152846140bd565b7fb6281c27ad30f6a2189f2af4ceb425a8b3fda231587fd39fcbe4634e7669ac2b33848460405161460a93929190615a64565b60405180910390a15b8061461d816158d4565b9150506144bd565b816001600160a01b0316836001600160a01b0316036146985760405162461bcd60e51b815260206004820152602960248201527f455243313135353a2073657474696e6720617070726f76616c20737461747573604482015268103337b91039b2b63360b91b6064820152608401610d0a565b6001600160a01b03838116600081815260016020908152604080832094871680845294825291829020805460ff191686151590811790915591519182527f17307eab39ab6107e8899845ad3d59bd9653f200f220920489ca2b5937696c31910160405180910390a3505050565b61471c600080516020615f1a8339815191526138da565b611a238161441b565b6001600160a01b03851633148061474157506147418533610bae565b61475d5760405162461bcd60e51b8152600401610d0a90615956565b610ec38585858585614cdb565b60006001600160e01b03198216636cdb3d1360e11b148061479b57506001600160e01b031982166303a24d0760e21b145b80610d365750610d3682614e05565b6147b482826128dc565b610d5b576147cc816001600160a01b03166014613704565b6147d7836020613704565b6040516020016147e8929190615c77565b60408051601f198184030181529082905262461bcd60e51b8252610d0a916004016154b9565b6001600160a01b0383166148705760405162461bcd60e51b815260206004820152602360248201527f455243313135353a206275726e2066726f6d20746865207a65726f206164647260448201526265737360e81b6064820152608401610d0a565b33600061487c84614b66565b9050600061488984614b66565b60408051602080820183526000918290528882528181528282206001600160a01b038b16835290522054909150848110156149125760405162461bcd60e51b8152602060048201526024808201527f455243313135353a206275726e20616d6f756e7420657863656564732062616c604482015263616e636560e01b6064820152608401610d0a565b6000868152602081815260408083206001600160a01b038b81168086529184528285208a8703905582518b81529384018a90529092908816917fc3d58168c5ae7397731d063d5bbf3d657854427343f4c083240f7aacaa2d0f62910160405180910390a460408051602081019091526000905261402e565b6004805460ff1916905560005b600a548110156114ea5760096000600a83815481106149b8576149b86158a8565b60009182526020808320909101546001600160a01b0316835282019290925260400190205460ff1615156001036149f957506004805460ff19166001179055565b80614a03816158d4565b915050614997565b6001600160a01b0384163b15611df35760405163bc197c8160e01b81526001600160a01b0385169063bc197c8190614a4f9089908990889088908890600401615cec565b6020604051808303816000875af1925050508015614a8a575060408051601f3d908101601f19168201909252614a8791810190615d4a565b60015b614b3657614a96615d67565b806308c379a003614acf5750614aaa615d83565b80614ab55750614ad1565b8060405162461bcd60e51b8152600401610d0a91906154b9565b505b60405162461bcd60e51b815260206004820152603460248201527f455243313135353a207472616e7366657220746f206e6f6e20455243313135356044820152732932b1b2b4bb32b91034b6b83632b6b2b73a32b960611b6064820152608401610d0a565b6001600160e01b0319811663bc197c8160e01b1461402e5760405162461bcd60e51b8152600401610d0a90615e0c565b60408051600180825281830190925260609160009190602080830190803683370190505090508281600081518110614ba057614ba06158a8565b602090810291909101015292915050565b6001600160a01b0384163b15611df35760405163f23a6e6160e01b81526001600160a01b0385169063f23a6e6190614bf59089908990889088908890600401615e54565b6020604051808303816000875af1925050508015614c30575060408051601f3d908101601f19168201909252614c2d91810190615d4a565b60015b614c3c57614a96615d67565b6001600160e01b0319811663f23a6e6160e01b1461402e5760405162461bcd60e51b8152600401610d0a90615e0c565b6040517f19457468657265756d205369676e6564204d6573736167653a0a3332000000006020820152603c8101829052600090605c01604051602081830303815290604052805190602001209050919050565b6000806000614cce8585614e3a565b91509150611b4b81614e7f565b6001600160a01b038416614d015760405162461bcd60e51b8152600401610d0a90615bba565b336000614d0d85614b66565b90506000614d1a85614b66565b90506000868152602081815260408083206001600160a01b038c16845290915290205485811015614d5d5760405162461bcd60e51b8152600401610d0a90615bff565b6000878152602081815260408083206001600160a01b038d8116855292528083208985039055908a16825281208054889290614d9a908490615921565b909155505060408051888152602081018890526001600160a01b03808b16928c821692918816917fc3d58168c5ae7397731d063d5bbf3d657854427343f4c083240f7aacaa2d0f62910160405180910390a4614dfa848a8a8a8a8a614bb1565b505050505050505050565b60006001600160e01b03198216630271189760e51b1480610d3657506301ffc9a760e01b6001600160e01b0319831614610d36565b6000808251604103614e705760208301516040840151606085015160001a614e6487828585615035565b94509450505050614e78565b506000905060025b9250929050565b6000816004811115614e9357614e936156e8565b03614e9b5750565b6001816004811115614eaf57614eaf6156e8565b03614efc5760405162461bcd60e51b815260206004820152601860248201527f45434453413a20696e76616c6964207369676e617475726500000000000000006044820152606401610d0a565b6002816004811115614f1057614f106156e8565b03614f5d5760405162461bcd60e51b815260206004820152601f60248201527f45434453413a20696e76616c6964207369676e6174757265206c656e677468006044820152606401610d0a565b6003816004811115614f7157614f716156e8565b03614fc95760405162461bcd60e51b815260206004820152602260248201527f45434453413a20696e76616c6964207369676e6174757265202773272076616c604482015261756560f01b6064820152608401610d0a565b6004816004811115614fdd57614fdd6156e8565b036114ea5760405162461bcd60e51b815260206004820152602260248201527f45434453413a20696e76616c6964207369676e6174757265202776272076616c604482015261756560f01b6064820152608401610d0a565b6000807f7fffffffffffffffffffffffffffffff5d576e7357a4501ddfe92f46681b20a083111561506c5750600090506003615119565b8460ff16601b1415801561508457508460ff16601c14155b156150955750600090506004615119565b6040805160008082526020820180845289905260ff881692820192909252606081018690526080810185905260019060a0016020604051602081039080840390855afa1580156150e9573d6000803e3d6000fd5b5050604051601f1901519150506001600160a01b03811661511257600060019250925050615119565b9150600090505b94509492505050565b8280548282559060005260206000209081019282156151625760005260206000209182015b82811115615162578254825591600101919060010190615147565b50611f0b929150615188565b50805460008255906000526020600020908101906114ea91905b5b80821115611f0b5760008155600101615189565b80356001600160a01b03811681146151b457600080fd5b919050565b600080604083850312156151cc57600080fd5b6151d58361519d565b946020939093013593505050565b6001600160e01b0319811681146114ea57600080fd5b60006020828403121561520b57600080fd5b813561389f816151e3565b634e487b7160e01b600052604160045260246000fd5b601f8201601f191681016001600160401b038111828210171561525157615251615216565b6040525050565b60006001600160401b0383111561527157615271615216565b604051615288601f8501601f19166020018261522c565b80915083815284848401111561529d57600080fd5b83836020830137600060208583010152509392505050565b6000602082840312156152c757600080fd5b81356001600160401b038111156152dd57600080fd5b8201601f810184136152ee57600080fd5b6152fd84823560208401615258565b949350505050565b60006001600160401b0382111561531e5761531e615216565b5060051b60200190565b600082601f83011261533957600080fd5b8135602061534682615305565b604051615353828261522c565b83815260059390931b850182019282810191508684111561537357600080fd5b8286015b84811015615395576153888161519d565b8352918301918301615377565b509695505050505050565b600082601f8301126153b157600080fd5b813560206153be82615305565b6040516153cb828261522c565b83815260059390931b85018201928281019150868411156153eb57600080fd5b8286015b8481101561539557803583529183019183016153ef565b6000806040838503121561541957600080fd5b82356001600160401b038082111561543057600080fd5b61543c86838701615328565b9350602085013591508082111561545257600080fd5b5061545f858286016153a0565b9150509250929050565b60005b8381101561548457818101518382015260200161546c565b50506000910152565b600081518084526154a5816020860160208601615469565b601f01601f19169290920160200192915050565b60208152600061389f602083018461548d565b6000602082840312156154de57600080fd5b61389f8261519d565b6000602082840312156154f957600080fd5b5035919050565b600082601f83011261551157600080fd5b61389f83833560208501615258565b600080600080600060a0868803121561553857600080fd5b6155418661519d565b945061554f6020870161519d565b935060408601356001600160401b038082111561556b57600080fd5b61557789838a016153a0565b9450606088013591508082111561558d57600080fd5b61559989838a016153a0565b935060808801359150808211156155af57600080fd5b506155bc88828901615500565b9150509295509295909350565b6000602082840312156155db57600080fd5b81356001600160401b038111156155f157600080fd5b6152fd84828501615328565b6000806040838503121561561057600080fd5b823591506156206020840161519d565b90509250929050565b600081518084526020808501945080840160005b838110156156595781518752958201959082019060010161563d565b509495945050505050565b60208152600061389f6020830184615629565b6000806020838503121561568a57600080fd5b82356001600160401b03808211156156a157600080fd5b818501915085601f8301126156b557600080fd5b8135818111156156c457600080fd5b8660208285010111156156d657600080fd5b60209290920196919550909350505050565b634e487b7160e01b600052602160045260246000fd5b6020810160048310615712576157126156e8565b91905290565b6020810160028310615712576157126156e8565b6020808252825182820181905260009190848201906040850190845b8181101561576d5783516001600160a01b031683529284019291840191600101615748565b50909695505050505050565b6000806040838503121561578c57600080fd5b50508035926020909101359150565b600080604083850312156157ae57600080fd5b6157b78361519d565b9150602083013580151581146157cc57600080fd5b809150509250929050565b600080604083850312156157ea57600080fd5b6157f38361519d565b915060208301356001600160401b0381111561580e57600080fd5b61545f85828601615328565b6000806040838503121561582d57600080fd5b6158368361519d565b91506156206020840161519d565b600080600080600060a0868803121561585c57600080fd5b6158658661519d565b94506158736020870161519d565b9350604086013592506060860135915060808601356001600160401b0381111561589c57600080fd5b6155bc88828901615500565b634e487b7160e01b600052603260045260246000fd5b634e487b7160e01b600052601160045260246000fd5b6000600182016158e6576158e66158be565b5060010190565b600181811c9082168061590157607f821691505b60208210810361154857634e487b7160e01b600052602260045260246000fd5b80820180821115610d3657610d366158be565b60008261595157634e487b7160e01b600052601260045260246000fd5b500490565b6020808252602f908201527f455243313135353a2063616c6c6572206973206e6f7420746f6b656e206f776e60408201526e195c881b9bdc88185c1c1c9bdd9959608a1b606082015260800190565b8082028115828204841417610d3657610d366158be565b60208082526027908201527f5472757374206973206e6f7420696e20746865206578706563746564205472756040820152667374537461746560c81b606082015260800190565b6020808252602e908201527f737563636573736f725f706f736974696f6e2063616e6e6f742062652074686560408201526d2064656661756c742076616c756560901b606082015260800190565b81810381811115610d3657610d366158be565b6001600160a01b039384168152919092166020820152604081019190915260600190565b634e487b7160e01b600052603160045260246000fd5b600081615aad57615aad6158be565b506000190190565b601f82111561188557600081815260208120601f850160051c81016020861015615adc5750805b601f850160051c820191505b81811015611df357828155600101615ae8565b81516001600160401b03811115615b1457615b14615216565b615b2881615b2284546158ed565b84615ab5565b602080601f831160018114615b5d5760008415615b455750858301515b600019600386901b1c1916600185901b178555611df3565b600085815260208120601f198616915b82811015615b8c57888601518255948401946001909101908401615b6d565b5085821015615baa5787850151600019600388901b60f8161c191681555b5050505050600190811b01905550565b60208082526025908201527f455243313135353a207472616e7366657220746f20746865207a65726f206164604082015264647265737360d81b606082015260800190565b6020808252602a908201527f455243313135353a20696e73756666696369656e742062616c616e636520666f60408201526939103a3930b739b332b960b11b606082015260800190565b604081526000615c5c6040830185615629565b8281036020840152615c6e8185615629565b95945050505050565b7f416363657373436f6e74726f6c3a206163636f756e7420000000000000000000815260008351615caf816017850160208801615469565b7001034b99036b4b9b9b4b733903937b6329607d1b6017918401918201528351615ce0816028840160208801615469565b01602801949350505050565b6001600160a01b0386811682528516602082015260a060408201819052600090615d1890830186615629565b8281036060840152615d2a8186615629565b90508281036080840152615d3e818561548d565b98975050505050505050565b600060208284031215615d5c57600080fd5b815161389f816151e3565b600060033d1115615d805760046000803e5060005160e01c5b90565b600060443d1015615d915790565b6040516003193d81016004833e81513d6001600160401b038160248401118184111715615dc057505050505090565b8285019150815181811115615dd85750505050505090565b843d8701016020828501011115615df25750505050505090565b615e016020828601018761522c565b509095945050505050565b60208082526028908201527f455243313135353a204552433131353552656365697665722072656a656374656040820152676420746f6b656e7360c01b606082015260800190565b6001600160a01b03868116825285166020820152604081018490526060810183905260a060808201819052600090615e8e9083018461548d565b97965050505050505056fed10feaa7fea55567e367a112bc53907318a50949442dfc0570945570c5af57cff7155988d98fbd671d755d54d33dd2cbf3395493f927ad2494ca6aaeb3c08281c8a41221bcd7fcf2c225f5a9265e1d4d39949d89197159d59e5f4b87b62c419ec9f8fbeef45513c3dbb0ea7f6fd9e5c2854dede44cb2b85e62b9cf86683e5abda261046272499972674e5aa48fcc6c22a3ac2b96189c6127f17b9d103f15d101a264697066735822122030aaccf0a7620c77b3317427daf2db5b665cb7205e55e57c5bf3703ba663284f64736f6c63430008110033d10feaa7fea55567e367a112bc53907318a50949442dfc0570945570c5af57cff7155988d98fbd671d755d54d33dd2cbf3395493f927ad2494ca6aaeb3c08281c8a41221bcd7fcf2c225f5a9265e1d4d39949d89197159d59e5f4b87b62c419ec9f8fbeef45513c3dbb0ea7f6fd9e5c2854dede44cb2b85e62b9cf86683e5abd",
  "linkReferences": {},
  "deployedLinkReferences": {}
}