{
  "_format": "hh-sol-artifact-1",
  "contractName": "SimpleT",
  "sourceName": "contracts/SimpleT.sol",
  "abi": [
    {
      "inputs": [
        {
          "internalType": "string",
          "name": "_name",
          "type": "string"
        },
        {
          "internalType": "address",
          "name": "_grantor",
          "type": "address"
        },
        {
          "internalType": "address",
          "name": "_initial_trustee",
          "type": "address"
        },
        {
          "internalType": "address[]",
          "name": "_beneficiaries",
          "type": "address[]"
        },
        {
          "internalType": "uint256[]",
          "name": "_percentages",
          "type": "uint256[]"
        }
      ],
      "stateMutability": "nonpayable",
      "type": "constructor"
    },
    {
      "anonymous": false,
      "inputs": [
        {
          "indexed": false,
          "internalType": "address",
          "name": "owner",
          "type": "address"
        },
        {
          "indexed": false,
          "internalType": "address",
          "name": "grantorAddress",
          "type": "address"
        }
      ],
      "name": "AddedGrantor",
      "type": "event"
    },
    {
      "anonymous": false,
      "inputs": [
        {
          "indexed": false,
          "internalType": "address",
          "name": "owner",
          "type": "address"
        },
        {
          "indexed": false,
          "internalType": "address",
          "name": "trusteeAddress",
          "type": "address"
        }
      ],
      "name": "AddedTrustee",
      "type": "event"
    },
    {
      "anonymous": false,
      "inputs": [
        {
          "indexed": true,
          "internalType": "address",
          "name": "account",
          "type": "address"
        },
        {
          "indexed": true,
          "internalType": "address",
          "name": "operator",
          "type": "address"
        },
        {
          "indexed": false,
          "internalType": "bool",
          "name": "approved",
          "type": "bool"
        }
      ],
      "name": "ApprovalForAll",
      "type": "event"
    },
    {
      "anonymous": false,
      "inputs": [
        {
          "indexed": false,
          "internalType": "address",
          "name": "from",
          "type": "address"
        },
        {
          "indexed": false,
          "internalType": "uint256",
          "name": "amount",
          "type": "uint256"
        }
      ],
      "name": "AssetsReceived",
      "type": "event"
    },
    {
      "anonymous": false,
      "inputs": [
        {
          "indexed": false,
          "internalType": "address",
          "name": "to",
          "type": "address"
        },
        {
          "indexed": false,
          "internalType": "uint256",
          "name": "amount",
          "type": "uint256"
        }
      ],
      "name": "AssetsReleased",
      "type": "event"
    },
    {
      "anonymous": false,
      "inputs": [
        {
          "indexed": false,
          "internalType": "address",
          "name": "account",
          "type": "address"
        },
        {
          "indexed": false,
          "internalType": "uint256",
          "name": "shares",
          "type": "uint256"
        }
      ],
      "name": "BeneficiaryAdded",
      "type": "event"
    },
    {
      "anonymous": false,
      "inputs": [
        {
          "indexed": false,
          "internalType": "address",
          "name": "owner",
          "type": "address"
        },
        {
          "indexed": false,
          "internalType": "uint256",
          "name": "newStart",
          "type": "uint256"
        },
        {
          "indexed": false,
          "internalType": "uint256",
          "name": "newEnd",
          "type": "uint256"
        }
      ],
      "name": "CkeckIn",
      "type": "event"
    },
    {
      "anonymous": false,
      "inputs": [
        {
          "indexed": false,
          "internalType": "address",
          "name": "owner",
          "type": "address"
        },
        {
          "indexed": false,
          "internalType": "uint256",
          "name": "newPeriod",
          "type": "uint256"
        }
      ],
      "name": "PeriodSet",
      "type": "event"
    },
    {
      "anonymous": false,
      "inputs": [
        {
          "indexed": false,
          "internalType": "address",
          "name": "owner",
          "type": "address"
        },
        {
          "indexed": false,
          "internalType": "address",
          "name": "grantorAddress",
          "type": "address"
        }
      ],
      "name": "RemovedGrantor",
      "type": "event"
    },
    {
      "anonymous": false,
      "inputs": [
        {
          "indexed": false,
          "internalType": "address",
          "name": "owner",
          "type": "address"
        },
        {
          "indexed": false,
          "internalType": "address",
          "name": "trusteeAddress",
          "type": "address"
        }
      ],
      "name": "RemovedTrustee",
      "type": "event"
    },
    {
      "anonymous": false,
      "inputs": [
        {
          "indexed": false,
          "internalType": "address",
          "name": "owner",
          "type": "address"
        }
      ],
      "name": "ResetGrantor",
      "type": "event"
    },
    {
      "anonymous": false,
      "inputs": [
        {
          "indexed": false,
          "internalType": "address",
          "name": "owner",
          "type": "address"
        }
      ],
      "name": "ResetTrustees",
      "type": "event"
    },
    {
      "anonymous": false,
      "inputs": [
        {
          "indexed": true,
          "internalType": "bytes32",
          "name": "role",
          "type": "bytes32"
        },
        {
          "indexed": true,
          "internalType": "bytes32",
          "name": "previousAdminRole",
          "type": "bytes32"
        },
        {
          "indexed": true,
          "internalType": "bytes32",
          "name": "newAdminRole",
          "type": "bytes32"
        }
      ],
      "name": "RoleAdminChanged",
      "type": "event"
    },
    {
      "anonymous": false,
      "inputs": [
        {
          "indexed": true,
          "internalType": "bytes32",
          "name": "role",
          "type": "bytes32"
        },
        {
          "indexed": true,
          "internalType": "address",
          "name": "account",
          "type": "address"
        },
        {
          "indexed": true,
          "internalType": "address",
          "name": "sender",
          "type": "address"
        }
      ],
      "name": "RoleGranted",
      "type": "event"
    },
    {
      "anonymous": false,
      "inputs": [
        {
          "indexed": true,
          "internalType": "bytes32",
          "name": "role",
          "type": "bytes32"
        },
        {
          "indexed": true,
          "internalType": "address",
          "name": "account",
          "type": "address"
        },
        {
          "indexed": true,
          "internalType": "address",
          "name": "sender",
          "type": "address"
        }
      ],
      "name": "RoleRevoked",
      "type": "event"
    },
    {
      "anonymous": false,
      "inputs": [
        {
          "indexed": true,
          "internalType": "address",
          "name": "operator",
          "type": "address"
        },
        {
          "indexed": true,
          "internalType": "address",
          "name": "from",
          "type": "address"
        },
        {
          "indexed": true,
          "internalType": "address",
          "name": "to",
          "type": "address"
        },
        {
          "indexed": false,
          "internalType": "uint256[]",
          "name": "ids",
          "type": "uint256[]"
        },
        {
          "indexed": false,
          "internalType": "uint256[]",
          "name": "values",
          "type": "uint256[]"
        }
      ],
      "name": "TransferBatch",
      "type": "event"
    },
    {
      "anonymous": false,
      "inputs": [
        {
          "indexed": true,
          "internalType": "address",
          "name": "operator",
          "type": "address"
        },
        {
          "indexed": true,
          "internalType": "address",
          "name": "from",
          "type": "address"
        },
        {
          "indexed": true,
          "internalType": "address",
          "name": "to",
          "type": "address"
        },
        {
          "indexed": false,
          "internalType": "uint256",
          "name": "id",
          "type": "uint256"
        },
        {
          "indexed": false,
          "internalType": "uint256",
          "name": "value",
          "type": "uint256"
        }
      ],
      "name": "TransferSingle",
      "type": "event"
    },
    {
      "anonymous": false,
      "inputs": [
        {
          "indexed": false,
          "internalType": "string",
          "name": "value",
          "type": "string"
        },
        {
          "indexed": true,
          "internalType": "uint256",
          "name": "id",
          "type": "uint256"
        }
      ],
      "name": "URI",
      "type": "event"
    },
    {
      "inputs": [],
      "name": "BENEFICIARY_ROLE",
      "outputs": [
        {
          "internalType": "bytes32",
          "name": "",
          "type": "bytes32"
        }
      ],
      "stateMutability": "view",
      "type": "function"
    },
    {
      "inputs": [],
      "name": "DEFAULT_ADMIN_ROLE",
      "outputs": [
        {
          "internalType": "bytes32",
          "name": "",
          "type": "bytes32"
        }
      ],
      "stateMutability": "view",
      "type": "function"
    },
    {
      "inputs": [],
      "name": "GRANTOR_ADMIN_ROLE",
      "outputs": [
        {
          "internalType": "bytes32",
          "name": "",
          "type": "bytes32"
        }
      ],
      "stateMutability": "view",
      "type": "function"
    },
    {
      "inputs": [],
      "name": "GRANTOR_ROLE",
      "outputs": [
        {
          "internalType": "bytes32",
          "name": "",
          "type": "bytes32"
        }
      ],
      "stateMutability": "view",
      "type": "function"
    },
    {
      "inputs": [],
      "name": "TRUSTEE_ROLE",
      "outputs": [
        {
          "internalType": "bytes32",
          "name": "",
          "type": "bytes32"
        }
      ],
      "stateMutability": "view",
      "type": "function"
    },
    {
      "inputs": [
        {
          "internalType": "address",
          "name": "",
          "type": "address"
        }
      ],
      "name": "_shares",
      "outputs": [
        {
          "internalType": "uint256",
          "name": "",
          "type": "uint256"
        }
      ],
      "stateMutability": "view",
      "type": "function"
    },
    {
      "inputs": [
        {
          "internalType": "address",
          "name": "",
          "type": "address"
        }
      ],
      "name": "_token_ids",
      "outputs": [
        {
          "internalType": "uint256",
          "name": "",
          "type": "uint256"
        }
      ],
      "stateMutability": "view",
      "type": "function"
    },
    {
      "inputs": [
        {
          "internalType": "address",
          "name": "_grantorAddress",
          "type": "address"
        }
      ],
      "name": "addGrantor",
      "outputs": [],
      "stateMutability": "nonpayable",
      "type": "function"
    },
    {
      "inputs": [
        {
          "internalType": "address",
          "name": "trusteeAddress",
          "type": "address"
        }
      ],
      "name": "addTrustee",
      "outputs": [],
      "stateMutability": "nonpayable",
      "type": "function"
    },
    {
      "inputs": [],
      "name": "assetsReleased",
      "outputs": [
        {
          "internalType": "bool",
          "name": "",
          "type": "bool"
        }
      ],
      "stateMutability": "view",
      "type": "function"
    },
    {
      "inputs": [],
      "name": "assignAssetsToTrust",
      "outputs": [],
      "stateMutability": "nonpayable",
      "type": "function"
    },
    {
      "inputs": [
        {
          "internalType": "address",
          "name": "account",
          "type": "address"
        },
        {
          "internalType": "uint256",
          "name": "id",
          "type": "uint256"
        }
      ],
      "name": "balanceOf",
      "outputs": [
        {
          "internalType": "uint256",
          "name": "",
          "type": "uint256"
        }
      ],
      "stateMutability": "view",
      "type": "function"
    },
    {
      "inputs": [
        {
          "internalType": "address[]",
          "name": "accounts",
          "type": "address[]"
        },
        {
          "internalType": "uint256[]",
          "name": "ids",
          "type": "uint256[]"
        }
      ],
      "name": "balanceOfBatch",
      "outputs": [
        {
          "internalType": "uint256[]",
          "name": "",
          "type": "uint256[]"
        }
      ],
      "stateMutability": "view",
      "type": "function"
    },
    {
      "inputs": [
        {
          "internalType": "uint256",
          "name": "",
          "type": "uint256"
        }
      ],
      "name": "beneficiaries",
      "outputs": [
        {
          "internalType": "address",
          "name": "",
          "type": "address"
        }
      ],
      "stateMutability": "view",
      "type": "function"
    },
    {
      "inputs": [],
      "name": "checkInPeriodEnd",
      "outputs": [
        {
          "internalType": "uint256",
          "name": "",
          "type": "uint256"
        }
      ],
      "stateMutability": "view",
      "type": "function"
    },
    {
      "inputs": [],
      "name": "checkInPeriodStart",
      "outputs": [
        {
          "internalType": "uint256",
          "name": "",
          "type": "uint256"
        }
      ],
      "stateMutability": "view",
      "type": "function"
    },
    {
      "inputs": [],
      "name": "claim",
      "outputs": [],
      "stateMutability": "nonpayable",
      "type": "function"
    },
    {
      "inputs": [
        {
          "internalType": "address",
          "name": "_addr",
          "type": "address"
        }
      ],
      "name": "getAddressShares",
      "outputs": [
        {
          "internalType": "uint256",
          "name": "",
          "type": "uint256"
        }
      ],
      "stateMutability": "view",
      "type": "function"
    },
    {
      "inputs": [],
      "name": "getBeneficiaries",
      "outputs": [
        {
          "internalType": "address[]",
          "name": "",
          "type": "address[]"
        }
      ],
      "stateMutability": "view",
      "type": "function"
    },
    {
      "inputs": [],
      "name": "getGrantors",
      "outputs": [
        {
          "internalType": "address[]",
          "name": "",
          "type": "address[]"
        }
      ],
      "stateMutability": "view",
      "type": "function"
    },
    {
      "inputs": [
        {
          "internalType": "uint256",
          "name": "idx",
          "type": "uint256"
        }
      ],
      "name": "getGrantorsAt",
      "outputs": [
        {
          "internalType": "address",
          "name": "",
          "type": "address"
        }
      ],
      "stateMutability": "view",
      "type": "function"
    },
    {
      "inputs": [],
      "name": "getGrantorsLength",
      "outputs": [
        {
          "internalType": "uint256",
          "name": "",
          "type": "uint256"
        }
      ],
      "stateMutability": "view",
      "type": "function"
    },
    {
      "inputs": [
        {
          "internalType": "address",
          "name": "_grantor",
          "type": "address"
        }
      ],
      "name": "getGrantorsTokenID",
      "outputs": [
        {
          "internalType": "uint256",
          "name": "",
          "type": "uint256"
        }
      ],
      "stateMutability": "view",
      "type": "function"
    },
    {
      "inputs": [
        {
          "internalType": "bytes32",
          "name": "role",
          "type": "bytes32"
        }
      ],
      "name": "getRoleAdmin",
      "outputs": [
        {
          "internalType": "bytes32",
          "name": "",
          "type": "bytes32"
        }
      ],
      "stateMutability": "view",
      "type": "function"
    },
    {
      "inputs": [],
      "name": "getShares",
      "outputs": [
        {
          "internalType": "uint256",
          "name": "",
          "type": "uint256"
        }
      ],
      "stateMutability": "view",
      "type": "function"
    },
    {
      "inputs": [],
      "name": "getTrustAddress",
      "outputs": [
        {
          "internalType": "address",
          "name": "",
          "type": "address"
        }
      ],
      "stateMutability": "view",
      "type": "function"
    },
    {
      "inputs": [],
      "name": "getTrustee",
      "outputs": [
        {
          "internalType": "address[]",
          "name": "",
          "type": "address[]"
        }
      ],
      "stateMutability": "view",
      "type": "function"
    },
    {
      "inputs": [
        {
          "internalType": "bytes32",
          "name": "role",
          "type": "bytes32"
        },
        {
          "internalType": "address",
          "name": "account",
          "type": "address"
        }
      ],
      "name": "grantRole",
      "outputs": [],
      "stateMutability": "nonpayable",
      "type": "function"
    },
    {
      "inputs": [
        {
          "internalType": "uint256",
          "name": "",
          "type": "uint256"
        }
      ],
      "name": "grantors",
      "outputs": [
        {
          "internalType": "address",
          "name": "",
          "type": "address"
        }
      ],
      "stateMutability": "view",
      "type": "function"
    },
    {
      "inputs": [
        {
          "internalType": "bytes32",
          "name": "role",
          "type": "bytes32"
        },
        {
          "internalType": "address",
          "name": "account",
          "type": "address"
        }
      ],
      "name": "hasRole",
      "outputs": [
        {
          "internalType": "bool",
          "name": "",
          "type": "bool"
        }
      ],
      "stateMutability": "view",
      "type": "function"
    },
    {
      "inputs": [],
      "name": "initializedTrust",
      "outputs": [
        {
          "internalType": "uint256",
          "name": "",
          "type": "uint256"
        }
      ],
      "stateMutability": "view",
      "type": "function"
    },
    {
      "inputs": [
        {
          "internalType": "address",
          "name": "account",
          "type": "address"
        },
        {
          "internalType": "address",
          "name": "operator",
          "type": "address"
        }
      ],
      "name": "isApprovedForAll",
      "outputs": [
        {
          "internalType": "bool",
          "name": "",
          "type": "bool"
        }
      ],
      "stateMutability": "view",
      "type": "function"
    },
    {
      "inputs": [],
      "name": "name",
      "outputs": [
        {
          "internalType": "string",
          "name": "",
          "type": "string"
        }
      ],
      "stateMutability": "view",
      "type": "function"
    },
    {
      "inputs": [
        {
          "internalType": "address",
          "name": "",
          "type": "address"
        },
        {
          "internalType": "address",
          "name": "",
          "type": "address"
        },
        {
          "internalType": "uint256[]",
          "name": "",
          "type": "uint256[]"
        },
        {
          "internalType": "uint256[]",
          "name": "",
          "type": "uint256[]"
        },
        {
          "internalType": "bytes",
          "name": "",
          "type": "bytes"
        }
      ],
      "name": "onERC1155BatchReceived",
      "outputs": [
        {
          "internalType": "bytes4",
          "name": "",
          "type": "bytes4"
        }
      ],
      "stateMutability": "nonpayable",
      "type": "function"
    },
    {
      "inputs": [
        {
          "internalType": "address",
          "name": "",
          "type": "address"
        },
        {
          "internalType": "address",
          "name": "",
          "type": "address"
        },
        {
          "internalType": "uint256",
          "name": "",
          "type": "uint256"
        },
        {
          "internalType": "uint256",
          "name": "",
          "type": "uint256"
        },
        {
          "internalType": "bytes",
          "name": "",
          "type": "bytes"
        }
      ],
      "name": "onERC1155Received",
      "outputs": [
        {
          "internalType": "bytes4",
          "name": "",
          "type": "bytes4"
        }
      ],
      "stateMutability": "nonpayable",
      "type": "function"
    },
    {
      "inputs": [],
      "name": "periods",
      "outputs": [
        {
          "internalType": "uint128",
          "name": "",
          "type": "uint128"
        }
      ],
      "stateMutability": "view",
      "type": "function"
    },
    {
      "inputs": [],
      "name": "releaseAssets",
      "outputs": [],
      "stateMutability": "nonpayable",
      "type": "function"
    },
    {
      "inputs": [
        {
          "internalType": "address",
          "name": "trusteeAddress",
          "type": "address"
        }
      ],
      "name": "removeTrustee",
      "outputs": [],
      "stateMutability": "nonpayable",
      "type": "function"
    },
    {
      "inputs": [
        {
          "internalType": "bytes32",
          "name": "role",
          "type": "bytes32"
        },
        {
          "internalType": "address",
          "name": "account",
          "type": "address"
        }
      ],
      "name": "renounceRole",
      "outputs": [],
      "stateMutability": "nonpayable",
      "type": "function"
    },
    {
      "inputs": [],
      "name": "resetTrustees",
      "outputs": [],
      "stateMutability": "nonpayable",
      "type": "function"
    },
    {
      "inputs": [
        {
          "internalType": "bytes32",
          "name": "role",
          "type": "bytes32"
        },
        {
          "internalType": "address",
          "name": "account",
          "type": "address"
        }
      ],
      "name": "revokeRole",
      "outputs": [],
      "stateMutability": "nonpayable",
      "type": "function"
    },
    {
      "inputs": [
        {
          "internalType": "address",
          "name": "from",
          "type": "address"
        },
        {
          "internalType": "address",
          "name": "to",
          "type": "address"
        },
        {
          "internalType": "uint256[]",
          "name": "ids",
          "type": "uint256[]"
        },
        {
          "internalType": "uint256[]",
          "name": "amounts",
          "type": "uint256[]"
        },
        {
          "internalType": "bytes",
          "name": "data",
          "type": "bytes"
        }
      ],
      "name": "safeBatchTransferFrom",
      "outputs": [],
      "stateMutability": "nonpayable",
      "type": "function"
    },
    {
      "inputs": [
        {
          "internalType": "address",
          "name": "from",
          "type": "address"
        },
        {
          "internalType": "address",
          "name": "to",
          "type": "address"
        },
        {
          "internalType": "uint256",
          "name": "id",
          "type": "uint256"
        },
        {
          "internalType": "uint256",
          "name": "amount",
          "type": "uint256"
        },
        {
          "internalType": "bytes",
          "name": "data",
          "type": "bytes"
        }
      ],
      "name": "safeTransferFrom",
      "outputs": [],
      "stateMutability": "nonpayable",
      "type": "function"
    },
    {
      "inputs": [],
      "name": "secondsIn30Days",
      "outputs": [
        {
          "internalType": "uint256",
          "name": "",
          "type": "uint256"
        }
      ],
      "stateMutability": "view",
      "type": "function"
    },
    {
      "inputs": [
        {
          "internalType": "address",
          "name": "operator",
          "type": "address"
        },
        {
          "internalType": "bool",
          "name": "approved",
          "type": "bool"
        }
      ],
      "name": "setApprovalForAll",
      "outputs": [],
      "stateMutability": "nonpayable",
      "type": "function"
    },
    {
      "inputs": [
        {
          "internalType": "address[]",
          "name": "_beneficiaries",
          "type": "address[]"
        },
        {
          "internalType": "uint256[]",
          "name": "shares_",
          "type": "uint256[]"
        }
      ],
      "name": "setBeneficiaries",
      "outputs": [],
      "stateMutability": "nonpayable",
      "type": "function"
    },
    {
      "inputs": [
        {
          "internalType": "uint128",
          "name": "newPeriod",
          "type": "uint128"
        }
      ],
      "name": "setPeriods",
      "outputs": [],
      "stateMutability": "nonpayable",
      "type": "function"
    },
    {
      "inputs": [
        {
          "internalType": "string",
          "name": "newuri",
          "type": "string"
        }
      ],
      "name": "setURI",
      "outputs": [],
      "stateMutability": "nonpayable",
      "type": "function"
    },
    {
      "inputs": [
        {
          "internalType": "bytes4",
          "name": "interfaceId",
          "type": "bytes4"
        }
      ],
      "name": "supportsInterface",
      "outputs": [
        {
          "internalType": "bool",
          "name": "",
          "type": "bool"
        }
      ],
      "stateMutability": "view",
      "type": "function"
    },
    {
      "inputs": [],
      "name": "tokensPerGrantor",
      "outputs": [
        {
          "internalType": "uint256",
          "name": "",
          "type": "uint256"
        }
      ],
      "stateMutability": "view",
      "type": "function"
    },
    {
      "inputs": [],
      "name": "trustEnd",
      "outputs": [
        {
          "internalType": "uint256",
          "name": "",
          "type": "uint256"
        }
      ],
      "stateMutability": "view",
      "type": "function"
    },
    {
      "inputs": [
        {
          "internalType": "uint256",
          "name": "",
          "type": "uint256"
        }
      ],
      "name": "trustees",
      "outputs": [
        {
          "internalType": "address",
          "name": "",
          "type": "address"
        }
      ],
      "stateMutability": "view",
      "type": "function"
    },
    {
      "inputs": [
        {
          "internalType": "uint256",
          "name": "",
          "type": "uint256"
        }
      ],
      "name": "uri",
      "outputs": [
        {
          "internalType": "string",
          "name": "",
          "type": "string"
        }
      ],
      "stateMutability": "view",
      "type": "function"
    },
    {
      "inputs": [],
      "name": "version",
      "outputs": [
        {
          "internalType": "string",
          "name": "",
          "type": "string"
        }
      ],
      "stateMutability": "view",
      "type": "function"
    },
    {
      "stateMutability": "payable",
      "type": "receive"
    }
  ],
  "bytecode": "0x60806040523480156200001157600080fd5b5060405162004baa38038062004baa833981016040819052620000349162001363565b6040805160208101909152600081526200004e8162000271565b5084516200006490600c906020880190620010f3565b5042600e819055600f55601180546001600160801b031916600c908117909155620000949062278d009062001490565b600f54620000a39190620014b2565b6010819055601255600d805460ff19169055620000d160008051602062004b4a83398151915260006200028a565b620000fb60008051602062004b2a83398151915260008051602062004b4a8339815191526200028a565b6200012560008051602062004b8a83398151915260008051602062004b4a8339815191526200028a565b6200014f60008051602062004b6a83398151915260008051602062004b4a8339815191526200028a565b6200015c600033620002d5565b6200017760008051602062004b4a83398151915233620002d5565b6200019260008051602062004b2a83398151915233620002d5565b620001ad60008051602062004b8a83398151915284620002d5565b620001b884620002e1565b620001c3836200047e565b620001cf82826200057f565b336001600160a01b038516146200026657620001ed60008562000718565b6200020860008051602062004b4a8339815191528562000718565b6200022360008051602062004b2a8339815191528562000718565b6200023e60008051602062004b2a8339815191523362000747565b6200025960008051602062004b4a8339815191523362000747565b6200026660003362000747565b505050505062001730565b805162000286906002906020840190620010f3565b5050565b600082815260036020526040808220600101805490849055905190918391839186917fbd79b86ffe0ab8e8776151514217cd7cacd52c909f66475c3af44e129f0b00ff9190a4505050565b62000286828262000771565b60008051602062004b4a833981519152620002fd813362000815565b6001600160a01b0382166200036a5760405162461bcd60e51b815260206004820152602860248201527f4772616e746f723a20616464726573732063616e206e6f74206265207a65726f604482015267206164647265737360c01b60648201526084015b60405180910390fd5b600062000383600b620008b260201b62001c4d1760201c565b600a8054600181019091557fc65a7bb8d6351c1cf70c95a316cc6a92839c986682d98bc35f958f4883f9d2a80180546001600160a01b0319166001600160a01b038616908117909155600090815260096020908152604080832084905580519182019052908152909150620004069084908390670de0b6b3a764000090620008b6565b6200041d600b620009d260201b62001c511760201c565b6200043860008051602062004b2a8339815191528462000718565b604080513381526001600160a01b03851660208201527f2d2500ad452ae259e6723284b4b4133d18c42ac9e3212498b64d2a381580b57b910160405180910390a1505050565b60008051602062004b2a8339815191526200049a813362000815565b6001600160a01b038216620004f25760405162461bcd60e51b815260206004820152601f60248201527f616464726573732063616e206e6f74206265207a65726f206164647265737300604482015260640162000361565b600880546001810182556000919091527ff3f7a9fe364faab93b216da50a3214154f22a0a2b415b23a84c8169e8b636ee30180546001600160a01b0319166001600160a01b0384169081179091556040805133815260208101929092527fbfce6ff8f0e004332f4116919776a585b1929096992c3e01f778bf64b9a72c8d91015b60405180910390a15050565b60008051602062004b4a8339815191526200059b813362000815565b6000835111620006145760405162461bcd60e51b815260206004820152603660248201527f42656e65666963696172793a204174206c6561737420312062656e656669636960448201527f617279206d757374206265207370656369666965642e00000000000000000000606482015260840162000361565b81518351146200069c5760405162461bcd60e51b815260206004820152604660248201527f42656e65666963696172793a204d75737420737065636966792074686520736160448201527f6d65206e756d626572206f662062656e6566696369617269657320616e6420736064820152653430b932b99760d11b608482015260a40162000361565b620006a6620009db565b60005b83518110156200071257620006fd848281518110620006cc57620006cc620014cd565b6020026020010151848381518110620006e957620006e9620014cd565b602002602001015162000a7760201b60201c565b806200070981620014e3565b915050620006a9565b50505050565b60008281526003602052604090206001015462000736813362000815565b62000742838362000771565b505050565b60008281526003602052604090206001015462000765813362000815565b62000742838362000c7e565b60008281526003602090815260408083206001600160a01b038516845290915290205460ff16620002865760008281526003602090815260408083206001600160a01b03851684529091529020805460ff19166001179055620007d13390565b6001600160a01b0316816001600160a01b0316837f2f8788117e7eff1d82e926ec794901d17c78024a50270940304540a733656f0d60405160405180910390a45050565b60008281526003602090815260408083206001600160a01b038516845290915290205460ff16620002865762000861816001600160a01b0316601462000d0260201b62001c5a1760201c565b6200087783602062001c5a62000d02821b17811c565b6040516020016200088a929190620014ff565b60408051601f198184030181529082905262461bcd60e51b82526200036191600401620015a6565b5490565b6001600160a01b038416620009185760405162461bcd60e51b815260206004820152602160248201527f455243313135353a206d696e7420746f20746865207a65726f206164647265736044820152607360f81b606482015260840162000361565b336200093e816000876200092c8862000ec2565b620009378862000ec2565b5050505050565b6000848152602081815260408083206001600160a01b03891684529091528120805485929062000970908490620014b2565b909155505060408051858152602081018590526001600160a01b0380881692600092918516917fc3d58168c5ae7397731d063d5bbf3d657854427343f4c083240f7aacaa2d0f62910160405180910390a4620009378160008787878762000f18565b80546001019055565b6000805b60075481101562000a60576007818154811062000a005762000a00620014cd565b6000918252602090912001546001600160a01b0316915062000a3260008051602062004b6a8339815191528362000747565b6001600160a01b0382166000908152600560205260408120558062000a5781620014e3565b915050620009df565b5062000a6f6007600062001182565b506000600455565b6001600160a01b03821662000ae05760405162461bcd60e51b815260206004820152602860248201527f42656e65666963696172793a206163636f756e7420697320746865207a65726f604482015267206164647265737360c01b606482015260840162000361565b6000811162000b325760405162461bcd60e51b815260206004820152601960248201527f42656e65666963696172793a2073686172657320617265203000000000000000604482015260640162000361565b6001600160a01b0382166000908152600560205260409020541562000baa5760405162461bcd60e51b815260206004820152602760248201527f42656e65666963696172793a206163636f756e7420616c7265616479206861736044820152662073686172657360c81b606482015260840162000361565b600780546001810182556000919091527fa66cc928b5edb82af9bd49922954155ab7b0942694bea4ce44661d9a8736c6880180546001600160a01b0319166001600160a01b03841617905562000c1060008051602062004b6a8339815191528362000718565b6001600160a01b038216600090815260056020526040902081905560045462000c3b908290620014b2565b600455604080516001600160a01b0384168152602081018390527fe6b83177f11971ba30369bb38b914ffba97d5969a3c857b286fa8fdbb150b3ba910162000573565b60008281526003602090815260408083206001600160a01b038516845290915290205460ff1615620002865760008281526003602090815260408083206001600160a01b0385168085529252808320805460ff1916905551339285917ff6391f5c32d9c69d2a47ea670b442974b53935d1edc7fd64eb21e047a839171b9190a45050565b6060600062000d1383600262001490565b62000d20906002620014b2565b6001600160401b0381111562000d3a5762000d3a620011bc565b6040519080825280601f01601f19166020018201604052801562000d65576020820181803683370190505b509050600360fc1b8160008151811062000d835762000d83620014cd565b60200101906001600160f81b031916908160001a905350600f60fb1b8160018151811062000db55762000db5620014cd565b60200101906001600160f81b031916908160001a905350600062000ddb84600262001490565b62000de8906001620014b2565b90505b600181111562000e6a576f181899199a1a9b1b9c1cb0b131b232b360811b85600f166010811062000e205762000e20620014cd565b1a60f81b82828151811062000e395762000e39620014cd565b60200101906001600160f81b031916908160001a90535060049490941c9362000e6281620015bb565b905062000deb565b50831562000ebb5760405162461bcd60e51b815260206004820181905260248201527f537472696e67733a20686578206c656e67746820696e73756666696369656e74604482015260640162000361565b9392505050565b6040805160018082528183019092526060916000919060208083019080368337019050509050828160008151811062000eff5762000eff620014cd565b602090810291909101015292915050565b505050505050565b62000f37846001600160a01b0316620010ed60201b62001dfd1760201c565b1562000f105760405163f23a6e6160e01b81526001600160a01b0385169063f23a6e619062000f739089908990889088908890600401620015d5565b6020604051808303816000875af192505050801562000fb1575060408051601f3d908101601f1916820190925262000fae918101906200161c565b60015b620010715762000fc062001648565b806308c379a00362001000575062000fd762001665565b8062000fe4575062001002565b8060405162461bcd60e51b8152600401620003619190620015a6565b505b60405162461bcd60e51b815260206004820152603460248201527f455243313135353a207472616e7366657220746f206e6f6e204552433131353560448201527f526563656976657220696d706c656d656e746572000000000000000000000000606482015260840162000361565b6001600160e01b0319811663f23a6e6160e01b14620010e45760405162461bcd60e51b815260206004820152602860248201527f455243313135353a204552433131353552656365697665722072656a656374656044820152676420746f6b656e7360c01b606482015260840162000361565b50505050505050565b3b151590565b8280546200110190620016f4565b90600052602060002090601f01602090048101928262001125576000855562001170565b82601f106200114057805160ff191683800117855562001170565b8280016001018555821562001170579182015b828111156200117057825182559160200191906001019062001153565b506200117e929150620011a5565b5090565b5080546000825590600052602060002090810190620011a29190620011a5565b50565b5b808211156200117e5760008155600101620011a6565b634e487b7160e01b600052604160045260246000fd5b601f8201601f191681016001600160401b0381118282101715620011fa57620011fa620011bc565b6040525050565b60005b838110156200121e57818101518382015260200162001204565b83811115620007125750506000910152565b80516001600160a01b03811681146200124857600080fd5b919050565b60006001600160401b03821115620012695762001269620011bc565b5060051b60200190565b600082601f8301126200128557600080fd5b8151602062001294826200124d565b604051620012a38282620011d2565b83815260059390931b8501820192828101915086841115620012c457600080fd5b8286015b84811015620012ea57620012dc8162001230565b8352918301918301620012c8565b509695505050505050565b600082601f8301126200130757600080fd5b8151602062001316826200124d565b604051620013258282620011d2565b83815260059390931b85018201928281019150868411156200134657600080fd5b8286015b84811015620012ea57805183529183019183016200134a565b600080600080600060a086880312156200137c57600080fd5b85516001600160401b03808211156200139457600080fd5b818801915088601f830112620013a957600080fd5b815181811115620013be57620013be620011bc565b604051620013d7601f8301601f191660200182620011d2565b8181528a6020838601011115620013ed57600080fd5b6200140082602083016020870162001201565b97506200141290506020890162001230565b9550620014226040890162001230565b945060608801519150808211156200143957600080fd5b6200144789838a0162001273565b935060808801519150808211156200145e57600080fd5b506200146d88828901620012f5565b9150509295509295909350565b634e487b7160e01b600052601160045260246000fd5b6000816000190483118215151615620014ad57620014ad6200147a565b500290565b60008219821115620014c857620014c86200147a565b500190565b634e487b7160e01b600052603260045260246000fd5b600060018201620014f857620014f86200147a565b5060010190565b7f416363657373436f6e74726f6c3a206163636f756e74200000000000000000008152600083516200153981601785016020880162001201565b7001034b99036b4b9b9b4b733903937b6329607d1b60179184019182015283516200156c81602884016020880162001201565b01602801949350505050565b600081518084526200159281602086016020860162001201565b601f01601f19169290920160200192915050565b60208152600062000ebb602083018462001578565b600081620015cd57620015cd6200147a565b506000190190565b6001600160a01b03868116825285166020820152604081018490526060810183905260a060808201819052600090620016119083018462001578565b979650505050505050565b6000602082840312156200162f57600080fd5b81516001600160e01b03198116811462000ebb57600080fd5b600060033d1115620016625760046000803e5060005160e01c5b90565b600060443d1015620016745790565b6040516003193d81016004833e81513d6001600160401b038083116024840183101715620016a457505050505090565b8285019150815181811115620016bd5750505050505090565b843d8701016020828501011115620016d85750505050505090565b620016e960208286010187620011d2565b509095945050505050565b600181811c908216806200170957607f821691505b6020821081036200172a57634e487b7160e01b600052602260045260246000fd5b50919050565b6133ea80620017406000396000f3fe6080604052600436106103385760003560e01c806372777649116101ab578063b34c8caf116100f7578063dc78ac1c11610095578063efeb5e581161006f578063efeb5e5814610a31578063f0f06c8b14610a51578063f23a6e6114610a6d578063f242432a14610a9957600080fd5b8063dc78ac1c146109a6578063e15fb83f146109c6578063e985e9c5146109e857600080fd5b8063c7220025116100d1578063c72200251461090c578063ced3a40314610942578063d547741f14610964578063d73fe0aa1461098457600080fd5b8063b34c8caf14610880578063bc197c81146108ad578063c03cdde2146108f257600080fd5b806391d1485411610164578063a22cb4651161013e578063a22cb465146107d4578063a3d591f4146107f4578063a4caeb4214610814578063a59222b31461084c57600080fd5b806391d14854146107895780639ccfff43146107a9578063a217fddf146107bf57600080fd5b806372777649146106e95780637c7207671461071d57806385a01f4114610732578063869bf82b146107495780638b85ef3c1461075e578063913b722c1461077457600080fd5b80632eb2c2d61161028557806354fd4d501161022357806364412658116101fd578063644126581461068b57806367f0cc75146106a05780636f969453146106b6578063717d63a4146106c957600080fd5b806354fd4d5014610623578063609d356d146106545780636216b6e31461066957600080fd5b8063393152c01161025f578063393152c01461058957806341f0f79e146105c15780634e1273f4146105e15780634e71d92d1461060e57600080fd5b80632eb2c2d6146105295780632f2ff15d1461054957806336568abe1461056957600080fd5b80630de86e25116102f25780631734d955116102cc5780631734d955146104a1578063248a9ca3146104b75780632876c012146104e75780632cac761c1461051457600080fd5b80630de86e251461042b5780630e89341c1461046157806313f0da841461048157600080fd5b8062fdd58e1461034457806301ffc9a71461037757806302fe5305146103a757806303120506146103c9578063065dc4c1146103e957806306fdde031461040957600080fd5b3661033f57005b600080fd5b34801561035057600080fd5b5061036461035f3660046129c7565b610ab9565b6040519081526020015b60405180910390f35b34801561038357600080fd5b50610397610392366004612a07565b610b50565b604051901515815260200161036e565b3480156103b357600080fd5b506103c76103c2366004612ac5565b610b61565b005b3480156103d557600080fd5b506103c76103e4366004612b16565b610b87565b3480156103f557600080fd5b506103c7610404366004612bc6565b610d0a565b34801561041557600080fd5b5061041e610e93565b60405161036e9190612ce9565b34801561043757600080fd5b50610364610446366004612b16565b6001600160a01b031660009081526009602052604090205490565b34801561046d57600080fd5b5061041e61047c366004612cfc565b610f21565b34801561048d57600080fd5b506103c761049c366004612b16565b610fb5565b3480156104ad57600080fd5b5061036460125481565b3480156104c357600080fd5b506103646104d2366004612cfc565b60009081526003602052604090206001015490565b3480156104f357600080fd5b50610364610502366004612b16565b60096020526000908152604090205481565b34801561052057600080fd5b506103c761113f565b34801561053557600080fd5b506103c7610544366004612d35565b61117a565b34801561055557600080fd5b506103c7610564366004612ddf565b611211565b34801561057557600080fd5b506103c7610584366004612ddf565b611237565b34801561059557600080fd5b506105a96105a4366004612cfc565b6112b1565b6040516001600160a01b03909116815260200161036e565b3480156105cd57600080fd5b506103c76105dc366004612e0b565b6112e1565b3480156105ed57600080fd5b506106016105fc366004612bc6565b61143c565b60405161036e9190612e6f565b34801561061a57600080fd5b506103c7611566565b34801561062f57600080fd5b5061041e604051806040016040528060058152602001640302e312e360dc1b81525081565b34801561066057600080fd5b506103c7611792565b34801561067557600080fd5b5061067e6117e4565b60405161036e9190612e82565b34801561069757600080fd5b50600a54610364565b3480156106ac57600080fd5b50610364600e5481565b3480156106c257600080fd5b50306105a9565b3480156106d557600080fd5b506105a96106e4366004612cfc565b611846565b3480156106f557600080fd5b506103647f700b68d05515876e1b5bee45535f56f17ecf1fbb63ac93e8914591401365025d81565b34801561072957600080fd5b5061067e611870565b34801561073e57600080fd5b5061036462278d0081565b34801561075557600080fd5b506103c76118d0565b34801561076a57600080fd5b50610364600f5481565b34801561078057600080fd5b5061067e61192b565b34801561079557600080fd5b506103976107a4366004612ddf565b61198b565b3480156107b557600080fd5b5061036460105481565b3480156107cb57600080fd5b50610364600081565b3480156107e057600080fd5b506103c76107ef366004612ecf565b6119b6565b34801561080057600080fd5b506105a961080f366004612cfc565b611a8c565b34801561082057600080fd5b50601154610834906001600160801b031681565b6040516001600160801b03909116815260200161036e565b34801561085857600080fd5b506103647ff7649bbbb4e70022c2a0439fb47b745b72fdce7678b86a7a1162bc503f0093c681565b34801561088c57600080fd5b5061036461089b366004612b16565b60056020526000908152604090205481565b3480156108b957600080fd5b506108d96108c8366004612d35565b63bc197c8160e01b95945050505050565b6040516001600160e01b0319909116815260200161036e565b3480156108fe57600080fd5b50600d546103979060ff1681565b34801561091857600080fd5b50610364610927366004612b16565b6001600160a01b031660009081526005602052604090205490565b34801561094e57600080fd5b5061036460008051602061339583398151915281565b34801561097057600080fd5b506103c761097f366004612ddf565b611a9c565b34801561099057600080fd5b5033600090815260056020526040902054610364565b3480156109b257600080fd5b506103c76109c1366004612b16565b611ac2565b3480156109d257600080fd5b5061036460008051602061337583398151915281565b3480156109f457600080fd5b50610397610a03366004612f0b565b6001600160a01b03918216600090815260016020908152604080832093909416825291909152205460ff1690565b348015610a3d57600080fd5b506105a9610a4c366004612cfc565b611bb6565b348015610a5d57600080fd5b50610364670de0b6b3a764000081565b348015610a7957600080fd5b506108d9610a88366004612f35565b63f23a6e6160e01b95945050505050565b348015610aa557600080fd5b506103c7610ab4366004612f35565b611bc6565b60006001600160a01b038316610b2a5760405162461bcd60e51b815260206004820152602b60248201527f455243313135353a2062616c616e636520717565727920666f7220746865207a60448201526a65726f206164647265737360a81b60648201526084015b60405180910390fd5b506000908152602081815260408083206001600160a01b03949094168352929052205490565b6000610b5b82611e03565b92915050565b600080516020613375833981519152610b7a8133611e28565b610b8382611e8c565b5050565b600080516020613375833981519152610ba08133611e28565b60005b600854811015610d055760088181548110610bc057610bc0612f9a565b6000918252602090912001546001600160a01b0390811690841603610cf357600854600103610bf657610bf16118d0565b610cf3565b60088054610c0690600190612fc6565b81548110610c1657610c16612f9a565b600091825260209091200154600880546001600160a01b039092169183908110610c4257610c42612f9a565b9060005260206000200160006101000a8154816001600160a01b0302191690836001600160a01b031602179055506008805480610c8157610c81612fdd565b600082815260209020810160001990810180546001600160a01b03191690550190556040517f5b7d4fa1769cbfe0631cd21a5bc8a2e09645e697ef883f5d7f84ea32caadca7c90610cea90339086906001600160a01b0392831681529116602082015260400190565b60405180910390a15b80610cfd81612ff3565b915050610ba3565b505050565b7ff7649bbbb4e70022c2a0439fb47b745b72fdce7678b86a7a1162bc503f0093c6610d358133611e28565b6000835111610da55760405162461bcd60e51b815260206004820152603660248201527f42656e65666963696172793a204174206c6561737420312062656e656669636960448201527530b93c9036bab9ba1031329039b832b1b4b334b2b21760511b6064820152608401610b21565b8151835114610e2b5760405162461bcd60e51b815260206004820152604660248201527f42656e65666963696172793a204d75737420737065636966792074686520736160448201527f6d65206e756d626572206f662062656e6566696369617269657320616e6420736064820152653430b932b99760d11b608482015260a401610b21565b610e33611e9f565b60005b8351811015610e8d57610e7b848281518110610e5457610e54612f9a565b6020026020010151848381518110610e6e57610e6e612f9a565b6020026020010151611f2f565b80610e8581612ff3565b915050610e36565b50505050565b600c8054610ea09061300c565b80601f0160208091040260200160405190810160405280929190818152602001828054610ecc9061300c565b8015610f195780601f10610eee57610100808354040283529160200191610f19565b820191906000526020600020905b815481529060010190602001808311610efc57829003601f168201915b505050505081565b606060028054610f309061300c565b80601f0160208091040260200160405190810160405280929190818152602001828054610f5c9061300c565b8015610fa95780601f10610f7e57610100808354040283529160200191610fa9565b820191906000526020600020905b815481529060010190602001808311610f8c57829003601f168201915b50505050509050919050565b7ff7649bbbb4e70022c2a0439fb47b745b72fdce7678b86a7a1162bc503f0093c6610fe08133611e28565b6001600160a01b0382166110475760405162461bcd60e51b815260206004820152602860248201527f4772616e746f723a20616464726573732063616e206e6f74206265207a65726f604482015267206164647265737360c01b6064820152608401610b21565b6000611052600b5490565b600a8054600181019091557fc65a7bb8d6351c1cf70c95a316cc6a92839c986682d98bc35f958f4883f9d2a80180546001600160a01b0319166001600160a01b0386169081179091556000908152600960209081526040808320849055805191820190529081529091506110d39084908390670de0b6b3a76400009061212a565b6110e1600b80546001019055565b6110f960008051602061337583398151915284611211565b604080513381526001600160a01b03851660208201527f2d2500ad452ae259e6723284b4b4133d18c42ac9e3212498b64d2a381580b57b910160405180910390a1505050565b7f700b68d05515876e1b5bee45535f56f17ecf1fbb63ac93e8914591401365025d61116a8133611e28565b50600d805460ff19166001179055565b6001600160a01b03851633148061119657506111968533610a03565b6111fd5760405162461bcd60e51b815260206004820152603260248201527f455243313135353a207472616e736665722063616c6c6572206973206e6f74206044820152711bdddb995c881b9bdc88185c1c1c9bdd995960721b6064820152608401610b21565b61120a8585858585612234565b5050505050565b60008281526003602052604090206001015461122d8133611e28565b610d058383612411565b6001600160a01b03811633146112a75760405162461bcd60e51b815260206004820152602f60248201527f416363657373436f6e74726f6c3a2063616e206f6e6c792072656e6f756e636560448201526e103937b632b9903337b91039b2b63360891b6064820152608401610b21565b610b838282612497565b6000600a82815481106112c6576112c6612f9a565b6000918252602090912001546001600160a01b031692915050565b6000805160206133758339815191526112fa8133611e28565b6001826001600160801b031610156113695760405162461bcd60e51b815260206004820152602c60248201527f4e657720706572696f64206d75737420626520616e20696e746567657220677260448201526b06561746572207468616e20360a41b6064820152608401610b21565b600c826001600160801b031611156113d65760405162461bcd60e51b815260206004820152602a60248201527f4e657720706572696f64206d75737420626520616e20696e7465676572206c656044820152697373207468616e20313360b01b6064820152608401610b21565b601180546fffffffffffffffffffffffffffffffff19166001600160801b0384169081179091556040805133815260208101929092527f09a388ec24176e675d9fd765f5fb4bd0cf32d2df3f7adab3b2d449ab1cea6f6491015b60405180910390a15050565b606081518351146114a15760405162461bcd60e51b815260206004820152602960248201527f455243313135353a206163636f756e747320616e6420696473206c656e677468604482015268040dad2e6dac2e8c6d60bb1b6064820152608401610b21565b6000835167ffffffffffffffff8111156114bd576114bd612a24565b6040519080825280602002602001820160405280156114e6578160200160208202803683370190505b50905060005b845181101561155e5761153185828151811061150a5761150a612f9a565b602002602001015185838151811061152457611524612f9a565b6020026020010151610ab9565b82828151811061154357611543612f9a565b602090810291909101015261155781612ff3565b90506114ec565b509392505050565b60008051602061339583398151915261157f8133611e28565b600d5460ff166115e15760405162461bcd60e51b815260206004820152602760248201527f53696d706c65543a204173736574732068617665206e6f74206265656e2072656044820152663632b0b9b2b21760c91b6064820152608401610b21565b3360009081526005602052604090205461163d5760405162461bcd60e51b815260206004820152601e60248201527f53696d706c65543a206163636f756e7420686173206e6f2073686172657300006044820152606401610b21565b600a5460008167ffffffffffffffff81111561165b5761165b612a24565b604051908082528060200260200182016040528015611684578160200160208202803683370190505b50905060008267ffffffffffffffff8111156116a2576116a2612a24565b6040519080825280602002602001820160405280156116cb578160200160208202803683370190505b50905060005b83811015611775576000600a82815481106116ee576116ee612f9a565b60009182526020808320909101546001600160a01b03168083526009909152604090912054855191925090819086908590811061172d5761172d612f9a565b602002602001018181525050670de0b6b3a764000084848151811061175457611754612f9a565b6020026020010181815250505050808061176d90612ff3565b9150506116d1565b50610e8d3033848460405180602001604052806000815250612234565b6000805160206133758339815191526117ab8133611e28565b33600081815260096020526040812054916117c69083610ab9565b9050610d053330848460405180602001604052806000815250611bc6565b6060600880548060200260200160405190810160405280929190818152602001828054801561183c57602002820191906000526020600020905b81546001600160a01b0316815260019091019060200180831161181e575b5050505050905090565b6008818154811061185657600080fd5b6000918252602090912001546001600160a01b0316905081565b6060600a80548060200260200160405190810160405280929190818152602001828054801561183c576020028201919060005260206000209081546001600160a01b0316815260019091019060200180831161181e575050505050905090565b6000805160206133758339815191526118e98133611e28565b6118f5600860006128f1565b6040513381527f211d738206bd274b575601b1ef45e3ea69b59b3425b822ff3b0384ef3e9c01ef9060200160405180910390a150565b6060600780548060200260200160405190810160405280929190818152602001828054801561183c576020028201919060005260206000209081546001600160a01b0316815260019091019060200180831161181e575050505050905090565b60009182526003602090815260408084206001600160a01b0393909316845291905290205460ff1690565b6001600160a01b0382163303611a205760405162461bcd60e51b815260206004820152602960248201527f455243313135353a2073657474696e6720617070726f76616c20737461747573604482015268103337b91039b2b63360b91b6064820152608401610b21565b3360008181526001602090815260408083206001600160a01b03871680855290835292819020805460ff191686151590811790915590519081529192917f17307eab39ab6107e8899845ad3d59bd9653f200f220920489ca2b5937696c31910160405180910390a35050565b600a818154811061185657600080fd5b600082815260036020526040902060010154611ab88133611e28565b610d058383612497565b600080516020613375833981519152611adb8133611e28565b6001600160a01b038216611b315760405162461bcd60e51b815260206004820152601f60248201527f616464726573732063616e206e6f74206265207a65726f2061646472657373006044820152606401610b21565b600880546001810182556000919091527ff3f7a9fe364faab93b216da50a3214154f22a0a2b415b23a84c8169e8b636ee30180546001600160a01b0319166001600160a01b0384169081179091556040805133815260208101929092527fbfce6ff8f0e004332f4116919776a585b1929096992c3e01f778bf64b9a72c8d9101611430565b6007818154811061185657600080fd5b6001600160a01b038516331480611be25750611be28533610a03565b611c405760405162461bcd60e51b815260206004820152602960248201527f455243313135353a2063616c6c6572206973206e6f74206f776e6572206e6f7260448201526808185c1c1c9bdd995960ba1b6064820152608401610b21565b61120a85858585856124fe565b5490565b80546001019055565b60606000611c69836002613046565b611c74906002613065565b67ffffffffffffffff811115611c8c57611c8c612a24565b6040519080825280601f01601f191660200182016040528015611cb6576020820181803683370190505b509050600360fc1b81600081518110611cd157611cd1612f9a565b60200101906001600160f81b031916908160001a905350600f60fb1b81600181518110611d0057611d00612f9a565b60200101906001600160f81b031916908160001a9053506000611d24846002613046565b611d2f906001613065565b90505b6001811115611da7576f181899199a1a9b1b9c1cb0b131b232b360811b85600f1660108110611d6357611d63612f9a565b1a60f81b828281518110611d7957611d79612f9a565b60200101906001600160f81b031916908160001a90535060049490941c93611da08161307d565b9050611d32565b508315611df65760405162461bcd60e51b815260206004820181905260248201527f537472696e67733a20686578206c656e67746820696e73756666696369656e746044820152606401610b21565b9392505050565b3b151590565b60006001600160e01b03198216637965db0b60e01b1480610b5b5750610b5b8261261b565b611e32828261198b565b610b8357611e4a816001600160a01b03166014611c5a565b611e55836020611c5a565b604051602001611e66929190613094565b60408051601f198184030181529082905262461bcd60e51b8252610b2191600401612ce9565b8051610b83906002906020840190612912565b6000805b600754811015611f1a5760078181548110611ec057611ec0612f9a565b6000918252602090912001546001600160a01b03169150611eef60008051602061339583398151915283611a9c565b6001600160a01b03821660009081526005602052604081205580611f1281612ff3565b915050611ea3565b50611f27600760006128f1565b506000600455565b6001600160a01b038216611f965760405162461bcd60e51b815260206004820152602860248201527f42656e65666963696172793a206163636f756e7420697320746865207a65726f604482015267206164647265737360c01b6064820152608401610b21565b60008111611fe65760405162461bcd60e51b815260206004820152601960248201527f42656e65666963696172793a20736861726573206172652030000000000000006044820152606401610b21565b6001600160a01b0382166000908152600560205260409020541561205c5760405162461bcd60e51b815260206004820152602760248201527f42656e65666963696172793a206163636f756e7420616c7265616479206861736044820152662073686172657360c81b6064820152608401610b21565b600780546001810182556000919091527fa66cc928b5edb82af9bd49922954155ab7b0942694bea4ce44661d9a8736c6880180546001600160a01b0319166001600160a01b0384161790556120bf60008051602061339583398151915283611211565b6001600160a01b03821660009081526005602052604090208190556004546120e8908290613065565b600455604080516001600160a01b0384168152602081018390527fe6b83177f11971ba30369bb38b914ffba97d5969a3c857b286fa8fdbb150b3ba9101611430565b6001600160a01b03841661218a5760405162461bcd60e51b815260206004820152602160248201527f455243313135353a206d696e7420746f20746865207a65726f206164647265736044820152607360f81b6064820152608401610b21565b336121a48160008761219b8861265b565b61120a8861265b565b6000848152602081815260408083206001600160a01b0389168452909152812080548592906121d4908490613065565b909155505060408051858152602081018590526001600160a01b0380881692600092918516917fc3d58168c5ae7397731d063d5bbf3d657854427343f4c083240f7aacaa2d0f62910160405180910390a461120a816000878787876126a6565b81518351146122965760405162461bcd60e51b815260206004820152602860248201527f455243313135353a2069647320616e6420616d6f756e7473206c656e677468206044820152670dad2e6dac2e8c6d60c31b6064820152608401610b21565b6001600160a01b0384166122bc5760405162461bcd60e51b8152600401610b2190613109565b3360005b84518110156123a35760008582815181106122dd576122dd612f9a565b6020026020010151905060008583815181106122fb576122fb612f9a565b602090810291909101810151600084815280835260408082206001600160a01b038e16835290935291909120549091508181101561234b5760405162461bcd60e51b8152600401610b219061314e565b6000838152602081815260408083206001600160a01b038e8116855292528083208585039055908b16825281208054849290612388908490613065565b925050819055505050508061239c90612ff3565b90506122c0565b50846001600160a01b0316866001600160a01b0316826001600160a01b03167f4a39dc06d4c0dbc64b70af90fd698a233a518aa5d07e595d983b8c0526c8f7fb87876040516123f3929190613198565b60405180910390a4612409818787878787612801565b505050505050565b61241b828261198b565b610b835760008281526003602090815260408083206001600160a01b03851684529091529020805460ff191660011790556124533390565b6001600160a01b0316816001600160a01b0316837f2f8788117e7eff1d82e926ec794901d17c78024a50270940304540a733656f0d60405160405180910390a45050565b6124a1828261198b565b15610b835760008281526003602090815260408083206001600160a01b0385168085529252808320805460ff1916905551339285917ff6391f5c32d9c69d2a47ea670b442974b53935d1edc7fd64eb21e047a839171b9190a45050565b6001600160a01b0384166125245760405162461bcd60e51b8152600401610b2190613109565b3361253481878761219b8861265b565b6000848152602081815260408083206001600160a01b038a168452909152902054838110156125755760405162461bcd60e51b8152600401610b219061314e565b6000858152602081815260408083206001600160a01b038b81168552925280832087850390559088168252812080548692906125b2908490613065565b909155505060408051868152602081018690526001600160a01b03808916928a821692918616917fc3d58168c5ae7397731d063d5bbf3d657854427343f4c083240f7aacaa2d0f62910160405180910390a46126128288888888886126a6565b50505050505050565b60006001600160e01b03198216636cdb3d1360e11b148061264c57506001600160e01b031982166303a24d0760e21b145b80610b5b5750610b5b826128bc565b6040805160018082528183019092526060916000919060208083019080368337019050509050828160008151811061269557612695612f9a565b602090810291909101015292915050565b6001600160a01b0384163b156124095760405163f23a6e6160e01b81526001600160a01b0385169063f23a6e61906126ea90899089908890889088906004016131c6565b6020604051808303816000875af1925050508015612725575060408051601f3d908101601f191682019092526127229181019061320b565b60015b6127d157612731613228565b806308c379a00361276a5750612745613244565b80612750575061276c565b8060405162461bcd60e51b8152600401610b219190612ce9565b505b60405162461bcd60e51b815260206004820152603460248201527f455243313135353a207472616e7366657220746f206e6f6e20455243313135356044820152732932b1b2b4bb32b91034b6b83632b6b2b73a32b960611b6064820152608401610b21565b6001600160e01b0319811663f23a6e6160e01b146126125760405162461bcd60e51b8152600401610b21906132ce565b6001600160a01b0384163b156124095760405163bc197c8160e01b81526001600160a01b0385169063bc197c81906128459089908990889088908890600401613316565b6020604051808303816000875af1925050508015612880575060408051601f3d908101601f1916820190925261287d9181019061320b565b60015b61288c57612731613228565b6001600160e01b0319811663bc197c8160e01b146126125760405162461bcd60e51b8152600401610b21906132ce565b60006001600160e01b03198216630271189760e51b1480610b5b57506301ffc9a760e01b6001600160e01b0319831614610b5b565b508054600082559060005260206000209081019061290f9190612996565b50565b82805461291e9061300c565b90600052602060002090601f0160209004810192826129405760008555612986565b82601f1061295957805160ff1916838001178555612986565b82800160010185558215612986579182015b8281111561298657825182559160200191906001019061296b565b50612992929150612996565b5090565b5b808211156129925760008155600101612997565b80356001600160a01b03811681146129c257600080fd5b919050565b600080604083850312156129da57600080fd5b6129e3836129ab565b946020939093013593505050565b6001600160e01b03198116811461290f57600080fd5b600060208284031215612a1957600080fd5b8135611df6816129f1565b634e487b7160e01b600052604160045260246000fd5b601f8201601f1916810167ffffffffffffffff81118282101715612a6057612a60612a24565b6040525050565b600067ffffffffffffffff831115612a8157612a81612a24565b604051612a98601f8501601f191660200182612a3a565b809150838152848484011115612aad57600080fd5b83836020830137600060208583010152509392505050565b600060208284031215612ad757600080fd5b813567ffffffffffffffff811115612aee57600080fd5b8201601f81018413612aff57600080fd5b612b0e84823560208401612a67565b949350505050565b600060208284031215612b2857600080fd5b611df6826129ab565b600067ffffffffffffffff821115612b4b57612b4b612a24565b5060051b60200190565b600082601f830112612b6657600080fd5b81356020612b7382612b31565b604051612b808282612a3a565b83815260059390931b8501820192828101915086841115612ba057600080fd5b8286015b84811015612bbb5780358352918301918301612ba4565b509695505050505050565b60008060408385031215612bd957600080fd5b823567ffffffffffffffff80821115612bf157600080fd5b818501915085601f830112612c0557600080fd5b81356020612c1282612b31565b604051612c1f8282612a3a565b83815260059390931b8501820192828101915089841115612c3f57600080fd5b948201945b83861015612c6457612c55866129ab565b82529482019490820190612c44565b96505086013592505080821115612c7a57600080fd5b50612c8785828601612b55565b9150509250929050565b60005b83811015612cac578181015183820152602001612c94565b83811115610e8d5750506000910152565b60008151808452612cd5816020860160208601612c91565b601f01601f19169290920160200192915050565b602081526000611df66020830184612cbd565b600060208284031215612d0e57600080fd5b5035919050565b600082601f830112612d2657600080fd5b611df683833560208501612a67565b600080600080600060a08688031215612d4d57600080fd5b612d56866129ab565b9450612d64602087016129ab565b9350604086013567ffffffffffffffff80821115612d8157600080fd5b612d8d89838a01612b55565b94506060880135915080821115612da357600080fd5b612daf89838a01612b55565b93506080880135915080821115612dc557600080fd5b50612dd288828901612d15565b9150509295509295909350565b60008060408385031215612df257600080fd5b82359150612e02602084016129ab565b90509250929050565b600060208284031215612e1d57600080fd5b81356001600160801b0381168114611df657600080fd5b600081518084526020808501945080840160005b83811015612e6457815187529582019590820190600101612e48565b509495945050505050565b602081526000611df66020830184612e34565b6020808252825182820181905260009190848201906040850190845b81811015612ec35783516001600160a01b031683529284019291840191600101612e9e565b50909695505050505050565b60008060408385031215612ee257600080fd5b612eeb836129ab565b915060208301358015158114612f0057600080fd5b809150509250929050565b60008060408385031215612f1e57600080fd5b612f27836129ab565b9150612e02602084016129ab565b600080600080600060a08688031215612f4d57600080fd5b612f56866129ab565b9450612f64602087016129ab565b93506040860135925060608601359150608086013567ffffffffffffffff811115612f8e57600080fd5b612dd288828901612d15565b634e487b7160e01b600052603260045260246000fd5b634e487b7160e01b600052601160045260246000fd5b600082821015612fd857612fd8612fb0565b500390565b634e487b7160e01b600052603160045260246000fd5b60006001820161300557613005612fb0565b5060010190565b600181811c9082168061302057607f821691505b60208210810361304057634e487b7160e01b600052602260045260246000fd5b50919050565b600081600019048311821515161561306057613060612fb0565b500290565b6000821982111561307857613078612fb0565b500190565b60008161308c5761308c612fb0565b506000190190565b7f416363657373436f6e74726f6c3a206163636f756e74200000000000000000008152600083516130cc816017850160208801612c91565b7001034b99036b4b9b9b4b733903937b6329607d1b60179184019182015283516130fd816028840160208801612c91565b01602801949350505050565b60208082526025908201527f455243313135353a207472616e7366657220746f20746865207a65726f206164604082015264647265737360d81b606082015260800190565b6020808252602a908201527f455243313135353a20696e73756666696369656e742062616c616e636520666f60408201526939103a3930b739b332b960b11b606082015260800190565b6040815260006131ab6040830185612e34565b82810360208401526131bd8185612e34565b95945050505050565b6001600160a01b03868116825285166020820152604081018490526060810183905260a06080820181905260009061320090830184612cbd565b979650505050505050565b60006020828403121561321d57600080fd5b8151611df6816129f1565b600060033d11156132415760046000803e5060005160e01c5b90565b600060443d10156132525790565b6040516003193d81016004833e81513d67ffffffffffffffff816024840111818411171561328257505050505090565b828501915081518181111561329a5750505050505090565b843d87010160208285010111156132b45750505050505090565b6132c360208286010187612a3a565b509095945050505050565b60208082526028908201527f455243313135353a204552433131353552656365697665722072656a656374656040820152676420746f6b656e7360c01b606082015260800190565b6001600160a01b0386811682528516602082015260a06040820181905260009061334290830186612e34565b82810360608401526133548186612e34565b905082810360808401526133688185612cbd565b9897505050505050505056fed10feaa7fea55567e367a112bc53907318a50949442dfc0570945570c5af57cfc8a41221bcd7fcf2c225f5a9265e1d4d39949d89197159d59e5f4b87b62c419ea2646970667358221220f3621f6c977d62f1ee435e67d411a456913db32e15b30e869ebc9a4f1e769a3d64736f6c634300080e0033d10feaa7fea55567e367a112bc53907318a50949442dfc0570945570c5af57cff7649bbbb4e70022c2a0439fb47b745b72fdce7678b86a7a1162bc503f0093c6c8a41221bcd7fcf2c225f5a9265e1d4d39949d89197159d59e5f4b87b62c419e700b68d05515876e1b5bee45535f56f17ecf1fbb63ac93e8914591401365025d",
  "linkReferences": {},
  "deployedLinkReferences": {}
}