{
  "_format": "hh-sol-artifact-1",
  "contractName": "SimpleT",
  "sourceName": "contracts/SimpleT.sol",
  "abi": [
    {
      "inputs": [
        {
          "internalType": "string",
          "name": "_name",
          "type": "string"
        },
        {
          "internalType": "address",
          "name": "_grantor",
          "type": "address"
        },
        {
          "internalType": "address",
          "name": "_initialTrustee",
          "type": "address"
        },
        {
          "internalType": "address[]",
          "name": "_beneficiaries",
          "type": "address[]"
        },
        {
          "internalType": "uint256[]",
          "name": "_percentages",
          "type": "uint256[]"
        }
      ],
      "stateMutability": "nonpayable",
      "type": "constructor"
    },
    {
      "anonymous": false,
      "inputs": [
        {
          "indexed": false,
          "internalType": "address",
          "name": "owner",
          "type": "address"
        },
        {
          "indexed": false,
          "internalType": "address",
          "name": "grantorAddress",
          "type": "address"
        }
      ],
      "name": "AddedGrantor",
      "type": "event"
    },
    {
      "anonymous": false,
      "inputs": [
        {
          "indexed": false,
          "internalType": "address",
          "name": "owner",
          "type": "address"
        },
        {
          "indexed": false,
          "internalType": "address",
          "name": "trusteeAddress",
          "type": "address"
        }
      ],
      "name": "AddedTrustee",
      "type": "event"
    },
    {
      "anonymous": false,
      "inputs": [
        {
          "indexed": true,
          "internalType": "address",
          "name": "account",
          "type": "address"
        },
        {
          "indexed": true,
          "internalType": "address",
          "name": "operator",
          "type": "address"
        },
        {
          "indexed": false,
          "internalType": "bool",
          "name": "approved",
          "type": "bool"
        }
      ],
      "name": "ApprovalForAll",
      "type": "event"
    },
    {
      "anonymous": false,
      "inputs": [
        {
          "indexed": false,
          "internalType": "address",
          "name": "from",
          "type": "address"
        },
        {
          "indexed": false,
          "internalType": "uint256",
          "name": "amount",
          "type": "uint256"
        }
      ],
      "name": "AssetsReceived",
      "type": "event"
    },
    {
      "anonymous": false,
      "inputs": [
        {
          "indexed": false,
          "internalType": "address",
          "name": "to",
          "type": "address"
        },
        {
          "indexed": false,
          "internalType": "uint256",
          "name": "amount",
          "type": "uint256"
        }
      ],
      "name": "AssetsReleased",
      "type": "event"
    },
    {
      "anonymous": false,
      "inputs": [
        {
          "indexed": false,
          "internalType": "address",
          "name": "account",
          "type": "address"
        },
        {
          "indexed": false,
          "internalType": "uint256",
          "name": "shares",
          "type": "uint256"
        }
      ],
      "name": "BeneficiaryAdded",
      "type": "event"
    },
    {
      "anonymous": false,
      "inputs": [
        {
          "indexed": false,
          "internalType": "address",
          "name": "owner",
          "type": "address"
        },
        {
          "indexed": false,
          "internalType": "uint256",
          "name": "newStart",
          "type": "uint256"
        },
        {
          "indexed": false,
          "internalType": "uint256",
          "name": "newEnd",
          "type": "uint256"
        }
      ],
      "name": "CkeckIn",
      "type": "event"
    },
    {
      "anonymous": false,
      "inputs": [
        {
          "indexed": false,
          "internalType": "address",
          "name": "owner",
          "type": "address"
        },
        {
          "indexed": false,
          "internalType": "uint256",
          "name": "newPeriod",
          "type": "uint256"
        }
      ],
      "name": "PeriodSet",
      "type": "event"
    },
    {
      "anonymous": false,
      "inputs": [
        {
          "indexed": false,
          "internalType": "address",
          "name": "owner",
          "type": "address"
        },
        {
          "indexed": false,
          "internalType": "address",
          "name": "grantorAddress",
          "type": "address"
        }
      ],
      "name": "RemovedGrantor",
      "type": "event"
    },
    {
      "anonymous": false,
      "inputs": [
        {
          "indexed": false,
          "internalType": "address",
          "name": "owner",
          "type": "address"
        },
        {
          "indexed": false,
          "internalType": "address",
          "name": "trusteeAddress",
          "type": "address"
        }
      ],
      "name": "RemovedTrustee",
      "type": "event"
    },
    {
      "anonymous": false,
      "inputs": [
        {
          "indexed": false,
          "internalType": "address",
          "name": "owner",
          "type": "address"
        }
      ],
      "name": "ResetGrantor",
      "type": "event"
    },
    {
      "anonymous": false,
      "inputs": [
        {
          "indexed": false,
          "internalType": "address",
          "name": "owner",
          "type": "address"
        }
      ],
      "name": "ResetTrustees",
      "type": "event"
    },
    {
      "anonymous": false,
      "inputs": [
        {
          "indexed": true,
          "internalType": "bytes32",
          "name": "role",
          "type": "bytes32"
        },
        {
          "indexed": true,
          "internalType": "bytes32",
          "name": "previousAdminRole",
          "type": "bytes32"
        },
        {
          "indexed": true,
          "internalType": "bytes32",
          "name": "newAdminRole",
          "type": "bytes32"
        }
      ],
      "name": "RoleAdminChanged",
      "type": "event"
    },
    {
      "anonymous": false,
      "inputs": [
        {
          "indexed": true,
          "internalType": "bytes32",
          "name": "role",
          "type": "bytes32"
        },
        {
          "indexed": true,
          "internalType": "address",
          "name": "account",
          "type": "address"
        },
        {
          "indexed": true,
          "internalType": "address",
          "name": "sender",
          "type": "address"
        }
      ],
      "name": "RoleGranted",
      "type": "event"
    },
    {
      "anonymous": false,
      "inputs": [
        {
          "indexed": true,
          "internalType": "bytes32",
          "name": "role",
          "type": "bytes32"
        },
        {
          "indexed": true,
          "internalType": "address",
          "name": "account",
          "type": "address"
        },
        {
          "indexed": true,
          "internalType": "address",
          "name": "sender",
          "type": "address"
        }
      ],
      "name": "RoleRevoked",
      "type": "event"
    },
    {
      "anonymous": false,
      "inputs": [
        {
          "indexed": true,
          "internalType": "address",
          "name": "operator",
          "type": "address"
        },
        {
          "indexed": true,
          "internalType": "address",
          "name": "from",
          "type": "address"
        },
        {
          "indexed": true,
          "internalType": "address",
          "name": "to",
          "type": "address"
        },
        {
          "indexed": false,
          "internalType": "uint256[]",
          "name": "ids",
          "type": "uint256[]"
        },
        {
          "indexed": false,
          "internalType": "uint256[]",
          "name": "values",
          "type": "uint256[]"
        }
      ],
      "name": "TransferBatch",
      "type": "event"
    },
    {
      "anonymous": false,
      "inputs": [
        {
          "indexed": true,
          "internalType": "address",
          "name": "operator",
          "type": "address"
        },
        {
          "indexed": true,
          "internalType": "address",
          "name": "from",
          "type": "address"
        },
        {
          "indexed": true,
          "internalType": "address",
          "name": "to",
          "type": "address"
        },
        {
          "indexed": false,
          "internalType": "uint256",
          "name": "id",
          "type": "uint256"
        },
        {
          "indexed": false,
          "internalType": "uint256",
          "name": "value",
          "type": "uint256"
        }
      ],
      "name": "TransferSingle",
      "type": "event"
    },
    {
      "anonymous": false,
      "inputs": [
        {
          "indexed": false,
          "internalType": "string",
          "name": "value",
          "type": "string"
        },
        {
          "indexed": true,
          "internalType": "uint256",
          "name": "id",
          "type": "uint256"
        }
      ],
      "name": "URI",
      "type": "event"
    },
    {
      "inputs": [],
      "name": "BENEFICIARY_ROLE",
      "outputs": [
        {
          "internalType": "bytes32",
          "name": "",
          "type": "bytes32"
        }
      ],
      "stateMutability": "view",
      "type": "function"
    },
    {
      "inputs": [],
      "name": "DEFAULT_ADMIN_ROLE",
      "outputs": [
        {
          "internalType": "bytes32",
          "name": "",
          "type": "bytes32"
        }
      ],
      "stateMutability": "view",
      "type": "function"
    },
    {
      "inputs": [],
      "name": "GRANTOR_ADMIN_ROLE",
      "outputs": [
        {
          "internalType": "bytes32",
          "name": "",
          "type": "bytes32"
        }
      ],
      "stateMutability": "view",
      "type": "function"
    },
    {
      "inputs": [],
      "name": "GRANTOR_ROLE",
      "outputs": [
        {
          "internalType": "bytes32",
          "name": "",
          "type": "bytes32"
        }
      ],
      "stateMutability": "view",
      "type": "function"
    },
    {
      "inputs": [],
      "name": "INITIAL_TRUSTEE_ROLE",
      "outputs": [
        {
          "internalType": "bytes32",
          "name": "",
          "type": "bytes32"
        }
      ],
      "stateMutability": "view",
      "type": "function"
    },
    {
      "inputs": [],
      "name": "SECONDS_IN_30_DAYS",
      "outputs": [
        {
          "internalType": "uint256",
          "name": "",
          "type": "uint256"
        }
      ],
      "stateMutability": "view",
      "type": "function"
    },
    {
      "inputs": [],
      "name": "SUCCESSOR_TRUSTEE_ROLE",
      "outputs": [
        {
          "internalType": "bytes32",
          "name": "",
          "type": "bytes32"
        }
      ],
      "stateMutability": "view",
      "type": "function"
    },
    {
      "inputs": [],
      "name": "TOKENS_PER_GRANTOR",
      "outputs": [
        {
          "internalType": "uint256",
          "name": "",
          "type": "uint256"
        }
      ],
      "stateMutability": "view",
      "type": "function"
    },
    {
      "inputs": [],
      "name": "TRUSTEE_ROLE",
      "outputs": [
        {
          "internalType": "bytes32",
          "name": "",
          "type": "bytes32"
        }
      ],
      "stateMutability": "view",
      "type": "function"
    },
    {
      "inputs": [],
      "name": "VERSION",
      "outputs": [
        {
          "internalType": "string",
          "name": "",
          "type": "string"
        }
      ],
      "stateMutability": "view",
      "type": "function"
    },
    {
      "inputs": [
        {
          "internalType": "address",
          "name": "",
          "type": "address"
        }
      ],
      "name": "_shares",
      "outputs": [
        {
          "internalType": "uint256",
          "name": "",
          "type": "uint256"
        }
      ],
      "stateMutability": "view",
      "type": "function"
    },
    {
      "inputs": [
        {
          "internalType": "address",
          "name": "",
          "type": "address"
        }
      ],
      "name": "_tokenIds",
      "outputs": [
        {
          "internalType": "uint256",
          "name": "",
          "type": "uint256"
        }
      ],
      "stateMutability": "view",
      "type": "function"
    },
    {
      "inputs": [
        {
          "internalType": "address",
          "name": "_grantorAddress",
          "type": "address"
        }
      ],
      "name": "addGrantor",
      "outputs": [],
      "stateMutability": "nonpayable",
      "type": "function"
    },
    {
      "inputs": [
        {
          "internalType": "address",
          "name": "trusteeAddress",
          "type": "address"
        }
      ],
      "name": "addTrustee",
      "outputs": [],
      "stateMutability": "nonpayable",
      "type": "function"
    },
    {
      "inputs": [],
      "name": "assetsReleased",
      "outputs": [
        {
          "internalType": "bool",
          "name": "",
          "type": "bool"
        }
      ],
      "stateMutability": "view",
      "type": "function"
    },
    {
      "inputs": [],
      "name": "assignAssetsToTrust",
      "outputs": [],
      "stateMutability": "nonpayable",
      "type": "function"
    },
    {
      "inputs": [
        {
          "internalType": "address",
          "name": "account",
          "type": "address"
        },
        {
          "internalType": "uint256",
          "name": "id",
          "type": "uint256"
        }
      ],
      "name": "balanceOf",
      "outputs": [
        {
          "internalType": "uint256",
          "name": "",
          "type": "uint256"
        }
      ],
      "stateMutability": "view",
      "type": "function"
    },
    {
      "inputs": [
        {
          "internalType": "address[]",
          "name": "accounts",
          "type": "address[]"
        },
        {
          "internalType": "uint256[]",
          "name": "ids",
          "type": "uint256[]"
        }
      ],
      "name": "balanceOfBatch",
      "outputs": [
        {
          "internalType": "uint256[]",
          "name": "",
          "type": "uint256[]"
        }
      ],
      "stateMutability": "view",
      "type": "function"
    },
    {
      "inputs": [
        {
          "internalType": "uint256",
          "name": "",
          "type": "uint256"
        }
      ],
      "name": "beneficiaries",
      "outputs": [
        {
          "internalType": "address",
          "name": "",
          "type": "address"
        }
      ],
      "stateMutability": "view",
      "type": "function"
    },
    {
      "inputs": [],
      "name": "checkInPeriodEnd",
      "outputs": [
        {
          "internalType": "uint256",
          "name": "",
          "type": "uint256"
        }
      ],
      "stateMutability": "view",
      "type": "function"
    },
    {
      "inputs": [],
      "name": "checkInPeriodStart",
      "outputs": [
        {
          "internalType": "uint256",
          "name": "",
          "type": "uint256"
        }
      ],
      "stateMutability": "view",
      "type": "function"
    },
    {
      "inputs": [],
      "name": "claim",
      "outputs": [],
      "stateMutability": "nonpayable",
      "type": "function"
    },
    {
      "inputs": [
        {
          "internalType": "address",
          "name": "_addr",
          "type": "address"
        }
      ],
      "name": "getAddressShares",
      "outputs": [
        {
          "internalType": "uint256",
          "name": "",
          "type": "uint256"
        }
      ],
      "stateMutability": "view",
      "type": "function"
    },
    {
      "inputs": [],
      "name": "getBeneficiaries",
      "outputs": [
        {
          "internalType": "address[]",
          "name": "",
          "type": "address[]"
        }
      ],
      "stateMutability": "view",
      "type": "function"
    },
    {
      "inputs": [],
      "name": "getGrantors",
      "outputs": [
        {
          "internalType": "address[]",
          "name": "",
          "type": "address[]"
        }
      ],
      "stateMutability": "view",
      "type": "function"
    },
    {
      "inputs": [
        {
          "internalType": "uint256",
          "name": "idx",
          "type": "uint256"
        }
      ],
      "name": "getGrantorsAt",
      "outputs": [
        {
          "internalType": "address",
          "name": "",
          "type": "address"
        }
      ],
      "stateMutability": "view",
      "type": "function"
    },
    {
      "inputs": [],
      "name": "getGrantorsLength",
      "outputs": [
        {
          "internalType": "uint256",
          "name": "",
          "type": "uint256"
        }
      ],
      "stateMutability": "view",
      "type": "function"
    },
    {
      "inputs": [
        {
          "internalType": "address",
          "name": "_grantor",
          "type": "address"
        }
      ],
      "name": "getGrantorsTokenID",
      "outputs": [
        {
          "internalType": "uint256",
          "name": "",
          "type": "uint256"
        }
      ],
      "stateMutability": "view",
      "type": "function"
    },
    {
      "inputs": [
        {
          "internalType": "bytes32",
          "name": "role",
          "type": "bytes32"
        }
      ],
      "name": "getRoleAdmin",
      "outputs": [
        {
          "internalType": "bytes32",
          "name": "",
          "type": "bytes32"
        }
      ],
      "stateMutability": "view",
      "type": "function"
    },
    {
      "inputs": [],
      "name": "getShares",
      "outputs": [
        {
          "internalType": "uint256",
          "name": "",
          "type": "uint256"
        }
      ],
      "stateMutability": "view",
      "type": "function"
    },
    {
      "inputs": [],
      "name": "getTrustAddress",
      "outputs": [
        {
          "internalType": "address",
          "name": "",
          "type": "address"
        }
      ],
      "stateMutability": "view",
      "type": "function"
    },
    {
      "inputs": [],
      "name": "getTrustee",
      "outputs": [
        {
          "internalType": "address[]",
          "name": "",
          "type": "address[]"
        }
      ],
      "stateMutability": "view",
      "type": "function"
    },
    {
      "inputs": [
        {
          "internalType": "bytes32",
          "name": "role",
          "type": "bytes32"
        },
        {
          "internalType": "address",
          "name": "account",
          "type": "address"
        }
      ],
      "name": "grantRole",
      "outputs": [],
      "stateMutability": "nonpayable",
      "type": "function"
    },
    {
      "inputs": [
        {
          "internalType": "uint256",
          "name": "",
          "type": "uint256"
        }
      ],
      "name": "grantors",
      "outputs": [
        {
          "internalType": "address",
          "name": "",
          "type": "address"
        }
      ],
      "stateMutability": "view",
      "type": "function"
    },
    {
      "inputs": [
        {
          "internalType": "bytes32",
          "name": "role",
          "type": "bytes32"
        },
        {
          "internalType": "address",
          "name": "account",
          "type": "address"
        }
      ],
      "name": "hasRole",
      "outputs": [
        {
          "internalType": "bool",
          "name": "",
          "type": "bool"
        }
      ],
      "stateMutability": "view",
      "type": "function"
    },
    {
      "inputs": [],
      "name": "initializedTrust",
      "outputs": [
        {
          "internalType": "uint256",
          "name": "",
          "type": "uint256"
        }
      ],
      "stateMutability": "view",
      "type": "function"
    },
    {
      "inputs": [
        {
          "internalType": "address",
          "name": "account",
          "type": "address"
        },
        {
          "internalType": "address",
          "name": "operator",
          "type": "address"
        }
      ],
      "name": "isApprovedForAll",
      "outputs": [
        {
          "internalType": "bool",
          "name": "",
          "type": "bool"
        }
      ],
      "stateMutability": "view",
      "type": "function"
    },
    {
      "inputs": [],
      "name": "name",
      "outputs": [
        {
          "internalType": "string",
          "name": "",
          "type": "string"
        }
      ],
      "stateMutability": "view",
      "type": "function"
    },
    {
      "inputs": [
        {
          "internalType": "address",
          "name": "",
          "type": "address"
        },
        {
          "internalType": "address",
          "name": "",
          "type": "address"
        },
        {
          "internalType": "uint256[]",
          "name": "",
          "type": "uint256[]"
        },
        {
          "internalType": "uint256[]",
          "name": "",
          "type": "uint256[]"
        },
        {
          "internalType": "bytes",
          "name": "",
          "type": "bytes"
        }
      ],
      "name": "onERC1155BatchReceived",
      "outputs": [
        {
          "internalType": "bytes4",
          "name": "",
          "type": "bytes4"
        }
      ],
      "stateMutability": "nonpayable",
      "type": "function"
    },
    {
      "inputs": [
        {
          "internalType": "address",
          "name": "",
          "type": "address"
        },
        {
          "internalType": "address",
          "name": "",
          "type": "address"
        },
        {
          "internalType": "uint256",
          "name": "",
          "type": "uint256"
        },
        {
          "internalType": "uint256",
          "name": "",
          "type": "uint256"
        },
        {
          "internalType": "bytes",
          "name": "",
          "type": "bytes"
        }
      ],
      "name": "onERC1155Received",
      "outputs": [
        {
          "internalType": "bytes4",
          "name": "",
          "type": "bytes4"
        }
      ],
      "stateMutability": "nonpayable",
      "type": "function"
    },
    {
      "inputs": [],
      "name": "periods",
      "outputs": [
        {
          "internalType": "uint128",
          "name": "",
          "type": "uint128"
        }
      ],
      "stateMutability": "view",
      "type": "function"
    },
    {
      "inputs": [],
      "name": "releaseAssets",
      "outputs": [],
      "stateMutability": "nonpayable",
      "type": "function"
    },
    {
      "inputs": [
        {
          "internalType": "address",
          "name": "trusteeAddress",
          "type": "address"
        }
      ],
      "name": "removeTrustee",
      "outputs": [],
      "stateMutability": "nonpayable",
      "type": "function"
    },
    {
      "inputs": [
        {
          "internalType": "bytes32",
          "name": "role",
          "type": "bytes32"
        },
        {
          "internalType": "address",
          "name": "account",
          "type": "address"
        }
      ],
      "name": "renounceRole",
      "outputs": [],
      "stateMutability": "nonpayable",
      "type": "function"
    },
    {
      "inputs": [],
      "name": "resetTrustees",
      "outputs": [],
      "stateMutability": "nonpayable",
      "type": "function"
    },
    {
      "inputs": [
        {
          "internalType": "bytes32",
          "name": "role",
          "type": "bytes32"
        },
        {
          "internalType": "address",
          "name": "account",
          "type": "address"
        }
      ],
      "name": "revokeRole",
      "outputs": [],
      "stateMutability": "nonpayable",
      "type": "function"
    },
    {
      "inputs": [
        {
          "internalType": "address",
          "name": "from",
          "type": "address"
        },
        {
          "internalType": "address",
          "name": "to",
          "type": "address"
        },
        {
          "internalType": "uint256[]",
          "name": "ids",
          "type": "uint256[]"
        },
        {
          "internalType": "uint256[]",
          "name": "amounts",
          "type": "uint256[]"
        },
        {
          "internalType": "bytes",
          "name": "data",
          "type": "bytes"
        }
      ],
      "name": "safeBatchTransferFrom",
      "outputs": [],
      "stateMutability": "nonpayable",
      "type": "function"
    },
    {
      "inputs": [
        {
          "internalType": "address",
          "name": "from",
          "type": "address"
        },
        {
          "internalType": "address",
          "name": "to",
          "type": "address"
        },
        {
          "internalType": "uint256",
          "name": "id",
          "type": "uint256"
        },
        {
          "internalType": "uint256",
          "name": "amount",
          "type": "uint256"
        },
        {
          "internalType": "bytes",
          "name": "data",
          "type": "bytes"
        }
      ],
      "name": "safeTransferFrom",
      "outputs": [],
      "stateMutability": "nonpayable",
      "type": "function"
    },
    {
      "inputs": [
        {
          "internalType": "address",
          "name": "operator",
          "type": "address"
        },
        {
          "internalType": "bool",
          "name": "approved",
          "type": "bool"
        }
      ],
      "name": "setApprovalForAll",
      "outputs": [],
      "stateMutability": "nonpayable",
      "type": "function"
    },
    {
      "inputs": [
        {
          "internalType": "address[]",
          "name": "_beneficiaries",
          "type": "address[]"
        },
        {
          "internalType": "uint256[]",
          "name": "shares_",
          "type": "uint256[]"
        }
      ],
      "name": "setBeneficiaries",
      "outputs": [],
      "stateMutability": "nonpayable",
      "type": "function"
    },
    {
      "inputs": [
        {
          "internalType": "uint128",
          "name": "newPeriod",
          "type": "uint128"
        }
      ],
      "name": "setPeriods",
      "outputs": [],
      "stateMutability": "nonpayable",
      "type": "function"
    },
    {
      "inputs": [
        {
          "internalType": "string",
          "name": "newuri",
          "type": "string"
        }
      ],
      "name": "setURI",
      "outputs": [],
      "stateMutability": "nonpayable",
      "type": "function"
    },
    {
      "inputs": [
        {
          "internalType": "bytes4",
          "name": "interfaceId",
          "type": "bytes4"
        }
      ],
      "name": "supportsInterface",
      "outputs": [
        {
          "internalType": "bool",
          "name": "",
          "type": "bool"
        }
      ],
      "stateMutability": "view",
      "type": "function"
    },
    {
      "inputs": [],
      "name": "trustEnd",
      "outputs": [
        {
          "internalType": "uint256",
          "name": "",
          "type": "uint256"
        }
      ],
      "stateMutability": "view",
      "type": "function"
    },
    {
      "inputs": [
        {
          "internalType": "uint256",
          "name": "",
          "type": "uint256"
        }
      ],
      "name": "trustees",
      "outputs": [
        {
          "internalType": "address",
          "name": "",
          "type": "address"
        }
      ],
      "stateMutability": "view",
      "type": "function"
    },
    {
      "inputs": [
        {
          "internalType": "uint256",
          "name": "",
          "type": "uint256"
        }
      ],
      "name": "uri",
      "outputs": [
        {
          "internalType": "string",
          "name": "",
          "type": "string"
        }
      ],
      "stateMutability": "view",
      "type": "function"
    }
  ],
  "bytecode": "0x60806040523480156200001157600080fd5b50604051620049e2380380620049e2833981016040819052620000349162001294565b6040805160208101909152600081526200004e816200026a565b50600c6200005d868262001431565b5042600e819055600f55601180546001600160801b031916600c9081179091556200008d9062278d009062001513565b600f546200009c91906200152d565b6010819055601255600d805460ff19169055620000ca6000805160206200498283398151915260006200027c565b620000f460008051602062004962833981519152600080516020620049828339815191526200027c565b6200011e600080516020620049c2833981519152600080516020620049828339815191526200027c565b62000148600080516020620049a2833981519152600080516020620049828339815191526200027c565b62000155600033620002c7565b620001706000805160206200498283398151915233620002c7565b6200018b6000805160206200496283398151915233620002c7565b620001a6600080516020620049c283398151915284620002c7565b620001b184620002d3565b620001bc836200046f565b620001c882826200056f565b336001600160a01b038516146200025f57620001e6600085620006f8565b620002016000805160206200498283398151915285620006f8565b6200021c6000805160206200496283398151915285620006f8565b62000237600080516020620049628339815191523362000726565b62000252600080516020620049828339815191523362000726565b6200025f60003362000726565b50505050506200176a565b600262000278828262001431565b5050565b600082815260036020526040808220600101805490849055905190918391839186917fbd79b86ffe0ab8e8776151514217cd7cacd52c909f66475c3af44e129f0b00ff9190a4505050565b6200027882826200074f565b60008051602062004982833981519152620002ee81620007d9565b6001600160a01b0382166200035b5760405162461bcd60e51b815260206004820152602860248201527f4772616e746f723a20616464726573732063616e206e6f74206265207a65726f604482015267206164647265737360c01b60648201526084015b60405180910390fd5b600062000374600b620007e860201b6200189b1760201c565b600a8054600181019091557fc65a7bb8d6351c1cf70c95a316cc6a92839c986682d98bc35f958f4883f9d2a80180546001600160a01b0319166001600160a01b038616908117909155600090815260096020908152604080832084905580519182019052908152909150620003f79084908390670de0b6b3a764000090620007ec565b6200040e600b6200090a60201b6200189f1760201c565b620004296000805160206200496283398151915284620006f8565b604080513381526001600160a01b03851660208201527f2d2500ad452ae259e6723284b4b4133d18c42ac9e3212498b64d2a381580b57b910160405180910390a1505050565b600080516020620049628339815191526200048a81620007d9565b6001600160a01b038216620004e25760405162461bcd60e51b815260206004820152601f60248201527f616464726573732063616e206e6f74206265207a65726f206164647265737300604482015260640162000352565b600880546001810182556000919091527ff3f7a9fe364faab93b216da50a3214154f22a0a2b415b23a84c8169e8b636ee30180546001600160a01b0319166001600160a01b0384169081179091556040805133815260208101929092527fbfce6ff8f0e004332f4116919776a585b1929096992c3e01f778bf64b9a72c8d91015b60405180910390a15050565b600080516020620049828339815191526200058a81620007d9565b6000835111620006035760405162461bcd60e51b815260206004820152603660248201527f42656e65666963696172793a204174206c6561737420312062656e656669636960448201527f617279206d757374206265207370656369666965642e00000000000000000000606482015260840162000352565b81518351146200067c5760405162461bcd60e51b815260206004820152603d60248201527f42656e65666963696172793a2062656e6566696369617269657320616e64207360448201527f6861726573206d757368206861766520657175616c206c656e6774682e000000606482015260840162000352565b6200068662000913565b60005b8351811015620006f257620006dd848281518110620006ac57620006ac62001543565b6020026020010151848381518110620006c957620006c962001543565b6020026020010151620009af60201b60201c565b80620006e98162001559565b91505062000689565b50505050565b6000828152600360205260409020600101546200071581620007d9565b6200072183836200074f565b505050565b6000828152600360205260409020600101546200074381620007d9565b62000721838362000bb6565b6200075b828262000c20565b620002785760008281526003602090815260408083206001600160a01b03851684529091529020805460ff19166001179055620007953390565b6001600160a01b0316816001600160a01b0316837f2f8788117e7eff1d82e926ec794901d17c78024a50270940304540a733656f0d60405160405180910390a45050565b620007e5813362000c4d565b50565b5490565b6001600160a01b0384166200084e5760405162461bcd60e51b815260206004820152602160248201527f455243313135353a206d696e7420746f20746865207a65726f206164647265736044820152607360f81b606482015260840162000352565b3360006200085c8562000cd0565b905060006200086b8562000cd0565b90506000868152602081815260408083206001600160a01b038b168452909152812080548792906200089f9084906200152d565b909155505060408051878152602081018790526001600160a01b03808a1692600092918716917fc3d58168c5ae7397731d063d5bbf3d657854427343f4c083240f7aacaa2d0f62910160405180910390a4620009018360008989898962000d26565b50505050505050565b80546001019055565b6000805b60075481101562000998576007818154811062000938576200093862001543565b6000918252602090912001546001600160a01b031691506200096a600080516020620049a28339815191528362000726565b6001600160a01b038216600090815260056020526040812055806200098f8162001559565b91505062000917565b50620009a760076000620010c1565b506000600455565b6001600160a01b03821662000a185760405162461bcd60e51b815260206004820152602860248201527f42656e65666963696172793a206163636f756e7420697320746865207a65726f604482015267206164647265737360c01b606482015260840162000352565b6000811162000a6a5760405162461bcd60e51b815260206004820152601960248201527f42656e65666963696172793a2073686172657320617265203000000000000000604482015260640162000352565b6001600160a01b0382166000908152600560205260409020541562000ae25760405162461bcd60e51b815260206004820152602760248201527f42656e65666963696172793a206163636f756e7420616c7265616479206861736044820152662073686172657360c81b606482015260840162000352565b600780546001810182556000919091527fa66cc928b5edb82af9bd49922954155ab7b0942694bea4ce44661d9a8736c6880180546001600160a01b0319166001600160a01b03841617905562000b48600080516020620049a283398151915283620006f8565b6001600160a01b038216600090815260056020526040902081905560045462000b739082906200152d565b600455604080516001600160a01b0384168152602081018390527fe6b83177f11971ba30369bb38b914ffba97d5969a3c857b286fa8fdbb150b3ba910162000563565b62000bc2828262000c20565b15620002785760008281526003602090815260408083206001600160a01b0385168085529252808320805460ff1916905551339285917ff6391f5c32d9c69d2a47ea670b442974b53935d1edc7fd64eb21e047a839171b9190a45050565b60008281526003602090815260408083206001600160a01b038516845290915290205460ff165b92915050565b62000c59828262000c20565b620002785762000c7f816001600160a01b0316601462000ef260201b620018a81760201c565b62000c95836020620018a862000ef2821b17811c565b60405160200162000ca892919062001575565b60408051601f198184030181529082905262461bcd60e51b825262000352916004016200161c565b6040805160018082528183019092526060916000919060208083019080368337019050509050828160008151811062000d0d5762000d0d62001543565b602090810291909101015292915050565b505050505050565b62000d45846001600160a01b0316620010b260201b62001a4a1760201c565b1562000d1e5760405163f23a6e6160e01b81526001600160a01b0385169063f23a6e619062000d81908990899088908890889060040162001631565b6020604051808303816000875af192505050801562000dbf575060408051601f3d908101601f1916820190925262000dbc9181019062001678565b60015b62000e7f5762000dce620016a4565b806308c379a00362000e0e575062000de5620016c1565b8062000df2575062000e10565b8060405162461bcd60e51b81526004016200035291906200161c565b505b60405162461bcd60e51b815260206004820152603460248201527f455243313135353a207472616e7366657220746f206e6f6e204552433131353560448201527f526563656976657220696d706c656d656e746572000000000000000000000000606482015260840162000352565b6001600160e01b0319811663f23a6e6160e01b14620009015760405162461bcd60e51b815260206004820152602860248201527f455243313135353a204552433131353552656365697665722072656a656374656044820152676420746f6b656e7360c01b606482015260840162000352565b6060600062000f0383600262001513565b62000f109060026200152d565b6001600160401b0381111562000f2a5762000f2a620010f6565b6040519080825280601f01601f19166020018201604052801562000f55576020820181803683370190505b509050600360fc1b8160008151811062000f735762000f7362001543565b60200101906001600160f81b031916908160001a905350600f60fb1b8160018151811062000fa55762000fa562001543565b60200101906001600160f81b031916908160001a905350600062000fcb84600262001513565b62000fd89060016200152d565b90505b60018111156200105a576f181899199a1a9b1b9c1cb0b131b232b360811b85600f166010811062001010576200101062001543565b1a60f81b82828151811062001029576200102962001543565b60200101906001600160f81b031916908160001a90535060049490941c93620010528162001750565b905062000fdb565b508315620010ab5760405162461bcd60e51b815260206004820181905260248201527f537472696e67733a20686578206c656e67746820696e73756666696369656e74604482015260640162000352565b9392505050565b6001600160a01b03163b151590565b5080546000825590600052602060002090810190620007e591905b80821115620010f25760008155600101620010dc565b5090565b634e487b7160e01b600052604160045260246000fd5b601f8201601f191681016001600160401b0381118282101715620011345762001134620010f6565b6040525050565b60005b83811015620011585781810151838201526020016200113e565b50506000910152565b80516001600160a01b03811681146200117957600080fd5b919050565b60006001600160401b038211156200119a576200119a620010f6565b5060051b60200190565b600082601f830112620011b657600080fd5b81516020620011c5826200117e565b604051620011d482826200110c565b83815260059390931b8501820192828101915086841115620011f557600080fd5b8286015b848110156200121b576200120d8162001161565b8352918301918301620011f9565b509695505050505050565b600082601f8301126200123857600080fd5b8151602062001247826200117e565b6040516200125682826200110c565b83815260059390931b85018201928281019150868411156200127757600080fd5b8286015b848110156200121b57805183529183019183016200127b565b600080600080600060a08688031215620012ad57600080fd5b85516001600160401b0380821115620012c557600080fd5b818801915088601f830112620012da57600080fd5b815181811115620012ef57620012ef620010f6565b60405162001308601f8301601f1916602001826200110c565b8181528a60208386010111156200131e57600080fd5b620013318260208301602087016200113b565b97506200134390506020890162001161565b9550620013536040890162001161565b945060608801519150808211156200136a57600080fd5b6200137889838a01620011a4565b935060808801519150808211156200138f57600080fd5b506200139e8882890162001226565b9150509295509295909350565b600181811c90821680620013c057607f821691505b602082108103620013e157634e487b7160e01b600052602260045260246000fd5b50919050565b601f8211156200072157600081815260208120601f850160051c81016020861015620014105750805b601f850160051c820191505b8181101562000d1e578281556001016200141c565b81516001600160401b038111156200144d576200144d620010f6565b62001465816200145e8454620013ab565b84620013e7565b602080601f8311600181146200149d5760008415620014845750858301515b600019600386901b1c1916600185901b17855562000d1e565b600085815260208120601f198616915b82811015620014ce57888601518255948401946001909101908401620014ad565b5085821015620014ed5787850151600019600388901b60f8161c191681555b5050505050600190811b01905550565b634e487b7160e01b600052601160045260246000fd5b808202811582820484141762000c475762000c47620014fd565b8082018082111562000c475762000c47620014fd565b634e487b7160e01b600052603260045260246000fd5b6000600182016200156e576200156e620014fd565b5060010190565b7f416363657373436f6e74726f6c3a206163636f756e7420000000000000000000815260008351620015af8160178501602088016200113b565b7001034b99036b4b9b9b4b733903937b6329607d1b6017918401918201528351620015e28160288401602088016200113b565b01602801949350505050565b60008151808452620016088160208601602086016200113b565b601f01601f19169290920160200192915050565b602081526000620010ab6020830184620015ee565b6001600160a01b03868116825285166020820152604081018490526060810183905260a0608082018190526000906200166d90830184620015ee565b979650505050505050565b6000602082840312156200168b57600080fd5b81516001600160e01b031981168114620010ab57600080fd5b600060033d1115620016be5760046000803e5060005160e01c5b90565b600060443d1015620016d05790565b6040516003193d81016004833e81513d6001600160401b0380831160248401831017156200170057505050505090565b8285019150815181811115620017195750505050505090565b843d8701016020828501011115620017345750505050505090565b62001745602082860101876200110c565b509095945050505050565b600081620017625762001762620014fd565b506000190190565b6131e8806200177a6000396000f3fe608060405234801561001057600080fd5b50600436106103775760003560e01c80637c720767116101d3578063bc197c8111610104578063dc78ac1c116100a2578063efeb5e581161007c578063efeb5e5814610818578063f23a6e611461082b578063f242432a1461084a578063ffa1ad741461085d57600080fd5b8063dc78ac1c146107b4578063e15fb83f146107c7578063e985e9c5146107dc57600080fd5b8063c7220025116100de578063c72200251461074e578063ced3a40314610777578063d547741f1461078c578063d73fe0aa1461079f57600080fd5b8063bc197c81146106ff578063befcabbd14610737578063c03cdde21461074157600080fd5b8063a217fddf11610171578063a4caeb421161014b578063a4caeb4214610666578063a59222b314610691578063ac4a2866146106b8578063b34c8caf146106df57600080fd5b8063a217fddf14610638578063a22cb46514610640578063a3d591f41461065357600080fd5b80638b85ef3c116101ad5780638b85ef3c1461060b578063913b722c1461061457806391d148541461061c5780639ccfff431461062f57600080fd5b80637c720767146105d4578063835a02bf146105dc578063869bf82b1461060357600080fd5b8063345f39b1116102ad5780636216b6e31161024b5780636ed89c90116102255780636ed89c90146105855780636f96945314610594578063717d63a41461059a57806372777649146105ad57600080fd5b80636216b6e31461055f578063644126581461057457806367f0cc751461057c57600080fd5b806341f0f79e1161028757806341f0f79e1461051c5780634e1273f41461052f5780634e71d92d1461054f578063609d356d1461055757600080fd5b8063345f39b1146104be57806336568abe146104de578063393152c0146104f157600080fd5b80630e89341c1161031a578063248a9ca3116102f4578063248a9ca31461046d5780632cac761c146104905780632eb2c2d6146104985780632f2ff15d146104ab57600080fd5b80630e89341c1461043e57806313f0da84146104515780631734d9551461046457600080fd5b8063031205061161035657806303120506146103da578063065dc4c1146103ed57806306fdde03146104005780630de86e251461041557600080fd5b8062fdd58e1461037c57806301ffc9a7146103a257806302fe5305146103c5575b600080fd5b61038f61038a366004612692565b610881565b6040519081526020015b60405180910390f35b6103b56103b03660046126d2565b61091a565b6040519015158152602001610399565b6103d86103d336600461278e565b610925565b005b6103d86103e83660046127de565b61094a565b6103d86103fb36600461288d565b610acc565b610408610c45565b60405161039991906129a7565b61038f6104233660046127de565b6001600160a01b031660009081526009602052604090205490565b61040861044c3660046129ba565b610cd3565b6103d861045f3660046127de565b610d67565b61038f60125481565b61038f61047b3660046129ba565b60009081526003602052604090206001015490565b6103d8610ef0565b6103d86104a63660046129f3565b610f2a565b6103d86104b9366004612a9c565b610f76565b61038f6104cc3660046127de565b60096020526000908152604090205481565b6103d86104ec366004612a9c565b610f9b565b6105046104ff3660046129ba565b611015565b6040516001600160a01b039091168152602001610399565b6103d861052a366004612ac8565b611045565b61054261053d36600461288d565b61119f565b6040516103999190612b2c565b6103d86112c8565b6103d86114f1565b610567611542565b6040516103999190612b3f565b600a5461038f565b61038f600e5481565b61038f670de0b6b3a764000081565b30610504565b6105046105a83660046129ba565b6115a4565b61038f7f700b68d05515876e1b5bee45535f56f17ecf1fbb63ac93e8914591401365025d81565b6105676115ce565b61038f7fc9f8fbeef45513c3dbb0ea7f6fd9e5c2854dede44cb2b85e62b9cf86683e5abd81565b6103d861162e565b61038f600f5481565b610567611688565b6103b561062a366004612a9c565b6116e8565b61038f60105481565b61038f600081565b6103d861064e366004612b8c565b611713565b6105046106613660046129ba565b61171e565b601154610679906001600160801b031681565b6040516001600160801b039091168152602001610399565b61038f7ff7649bbbb4e70022c2a0439fb47b745b72fdce7678b86a7a1162bc503f0093c681565b61038f7ff7155988d98fbd671d755d54d33dd2cbf3395493f927ad2494ca6aaeb3c0828181565b61038f6106ed3660046127de565b60056020526000908152604090205481565b61071e61070d3660046129f3565b63bc197c8160e01b95945050505050565b6040516001600160e01b03199091168152602001610399565b61038f62278d0081565b600d546103b59060ff1681565b61038f61075c3660046127de565b6001600160a01b031660009081526005602052604090205490565b61038f60008051602061319383398151915281565b6103d861079a366004612a9c565b61172e565b3360009081526005602052604090205461038f565b6103d86107c23660046127de565b611753565b61038f60008051602061317383398151915281565b6103b56107ea366004612bc8565b6001600160a01b03918216600090815260016020908152604080832093909416825291909152205460ff1690565b6105046108263660046129ba565b611846565b61071e610839366004612bf2565b63f23a6e6160e01b95945050505050565b6103d8610858366004612bf2565b611856565b610408604051806040016040528060058152602001640302e312e360dc1b81525081565b60006001600160a01b0383166108f15760405162461bcd60e51b815260206004820152602a60248201527f455243313135353a2061646472657373207a65726f206973206e6f742061207660448201526930b634b21037bbb732b960b11b60648201526084015b60405180910390fd5b506000818152602081815260408083206001600160a01b03861684529091529020545b92915050565b600061091482611a59565b60008051602061317383398151915261093d81611a7e565b61094682611a8b565b5050565b60008051602061317383398151915261096281611a7e565b60005b600854811015610ac7576008818154811061098257610982612c56565b6000918252602090912001546001600160a01b0390811690841603610ab5576008546001036109b8576109b361162e565b610ab5565b600880546109c890600190612c82565b815481106109d8576109d8612c56565b600091825260209091200154600880546001600160a01b039092169183908110610a0457610a04612c56565b9060005260206000200160006101000a8154816001600160a01b0302191690836001600160a01b031602179055506008805480610a4357610a43612c95565b600082815260209020810160001990810180546001600160a01b03191690550190556040517f5b7d4fa1769cbfe0631cd21a5bc8a2e09645e697ef883f5d7f84ea32caadca7c90610aac90339086906001600160a01b0392831681529116602082015260400190565b60405180910390a15b80610abf81612cab565b915050610965565b505050565b7ff7649bbbb4e70022c2a0439fb47b745b72fdce7678b86a7a1162bc503f0093c6610af681611a7e565b6000835111610b665760405162461bcd60e51b815260206004820152603660248201527f42656e65666963696172793a204174206c6561737420312062656e656669636960448201527530b93c9036bab9ba1031329039b832b1b4b334b2b21760511b60648201526084016108e8565b8151835114610bdd5760405162461bcd60e51b815260206004820152603d60248201527f42656e65666963696172793a2062656e6566696369617269657320616e64207360448201527f6861726573206d757368206861766520657175616c206c656e6774682e00000060648201526084016108e8565b610be5611a97565b60005b8351811015610c3f57610c2d848281518110610c0657610c06612c56565b6020026020010151848381518110610c2057610c20612c56565b6020026020010151611b27565b80610c3781612cab565b915050610be8565b50505050565b600c8054610c5290612cc4565b80601f0160208091040260200160405190810160405280929190818152602001828054610c7e90612cc4565b8015610ccb5780601f10610ca057610100808354040283529160200191610ccb565b820191906000526020600020905b815481529060010190602001808311610cae57829003601f168201915b505050505081565b606060028054610ce290612cc4565b80601f0160208091040260200160405190810160405280929190818152602001828054610d0e90612cc4565b8015610d5b5780601f10610d3057610100808354040283529160200191610d5b565b820191906000526020600020905b815481529060010190602001808311610d3e57829003601f168201915b50505050509050919050565b7ff7649bbbb4e70022c2a0439fb47b745b72fdce7678b86a7a1162bc503f0093c6610d9181611a7e565b6001600160a01b038216610df85760405162461bcd60e51b815260206004820152602860248201527f4772616e746f723a20616464726573732063616e206e6f74206265207a65726f604482015267206164647265737360c01b60648201526084016108e8565b6000610e03600b5490565b600a8054600181019091557fc65a7bb8d6351c1cf70c95a316cc6a92839c986682d98bc35f958f4883f9d2a80180546001600160a01b0319166001600160a01b038616908117909155600090815260096020908152604080832084905580519182019052908152909150610e849084908390670de0b6b3a764000090611d22565b610e92600b80546001019055565b610eaa60008051602061317383398151915284610f76565b604080513381526001600160a01b03851660208201527f2d2500ad452ae259e6723284b4b4133d18c42ac9e3212498b64d2a381580b57b910160405180910390a1505050565b7f700b68d05515876e1b5bee45535f56f17ecf1fbb63ac93e8914591401365025d610f1a81611a7e565b50600d805460ff19166001179055565b6001600160a01b038516331480610f465750610f4685336107ea565b610f625760405162461bcd60e51b81526004016108e890612cfe565b610f6f8585858585611e36565b5050505050565b600082815260036020526040902060010154610f9181611a7e565b610ac78383612013565b6001600160a01b038116331461100b5760405162461bcd60e51b815260206004820152602f60248201527f416363657373436f6e74726f6c3a2063616e206f6e6c792072656e6f756e636560448201526e103937b632b9903337b91039b2b63360891b60648201526084016108e8565b6109468282612099565b6000600a828154811061102a5761102a612c56565b6000918252602090912001546001600160a01b031692915050565b60008051602061317383398151915261105d81611a7e565b6001826001600160801b031610156110cc5760405162461bcd60e51b815260206004820152602c60248201527f4e657720706572696f64206d75737420626520616e20696e746567657220677260448201526b06561746572207468616e20360a41b60648201526084016108e8565b600c826001600160801b031611156111395760405162461bcd60e51b815260206004820152602a60248201527f4e657720706572696f64206d75737420626520616e20696e7465676572206c656044820152697373207468616e20313360b01b60648201526084016108e8565b601180546fffffffffffffffffffffffffffffffff19166001600160801b0384169081179091556040805133815260208101929092527f09a388ec24176e675d9fd765f5fb4bd0cf32d2df3f7adab3b2d449ab1cea6f6491015b60405180910390a15050565b606081518351146112045760405162461bcd60e51b815260206004820152602960248201527f455243313135353a206163636f756e747320616e6420696473206c656e677468604482015268040dad2e6dac2e8c6d60bb1b60648201526084016108e8565b600083516001600160401b0381111561121f5761121f6126ef565b604051908082528060200260200182016040528015611248578160200160208202803683370190505b50905060005b84518110156112c05761129385828151811061126c5761126c612c56565b602002602001015185838151811061128657611286612c56565b6020026020010151610881565b8282815181106112a5576112a5612c56565b60209081029190910101526112b981612cab565b905061124e565b509392505050565b6000805160206131938339815191526112e081611a7e565b600d5460ff166113425760405162461bcd60e51b815260206004820152602760248201527f53696d706c65543a204173736574732068617665206e6f74206265656e2072656044820152663632b0b9b2b21760c91b60648201526084016108e8565b3360009081526005602052604090205461139e5760405162461bcd60e51b815260206004820152601e60248201527f53696d706c65543a206163636f756e7420686173206e6f20736861726573000060448201526064016108e8565b600a546000816001600160401b038111156113bb576113bb6126ef565b6040519080825280602002602001820160405280156113e4578160200160208202803683370190505b5090506000826001600160401b03811115611401576114016126ef565b60405190808252806020026020018201604052801561142a578160200160208202803683370190505b50905060005b838110156114d4576000600a828154811061144d5761144d612c56565b60009182526020808320909101546001600160a01b03168083526009909152604090912054855191925090819086908590811061148c5761148c612c56565b602002602001018181525050670de0b6b3a76400008484815181106114b3576114b3612c56565b602002602001018181525050505080806114cc90612cab565b915050611430565b50610c3f3033848460405180602001604052806000815250611e36565b60008051602061317383398151915261150981611a7e565b33600081815260096020526040812054916115249083610881565b9050610ac73330848460405180602001604052806000815250611856565b6060600880548060200260200160405190810160405280929190818152602001828054801561159a57602002820191906000526020600020905b81546001600160a01b0316815260019091019060200180831161157c575b5050505050905090565b600881815481106115b457600080fd5b6000918252602090912001546001600160a01b0316905081565b6060600a80548060200260200160405190810160405280929190818152602001828054801561159a576020028201919060005260206000209081546001600160a01b0316815260019091019060200180831161157c575050505050905090565b60008051602061317383398151915261164681611a7e565b61165260086000612644565b6040513381527f211d738206bd274b575601b1ef45e3ea69b59b3425b822ff3b0384ef3e9c01ef9060200160405180910390a150565b6060600780548060200260200160405190810160405280929190818152602001828054801561159a576020028201919060005260206000209081546001600160a01b0316815260019091019060200180831161157c575050505050905090565b60009182526003602090815260408084206001600160a01b0393909316845291905290205460ff1690565b610946338383612100565b600a81815481106115b457600080fd5b60008281526003602052604090206001015461174981611a7e565b610ac78383612099565b60008051602061317383398151915261176b81611a7e565b6001600160a01b0382166117c15760405162461bcd60e51b815260206004820152601f60248201527f616464726573732063616e206e6f74206265207a65726f20616464726573730060448201526064016108e8565b600880546001810182556000919091527ff3f7a9fe364faab93b216da50a3214154f22a0a2b415b23a84c8169e8b636ee30180546001600160a01b0319166001600160a01b0384169081179091556040805133815260208101929092527fbfce6ff8f0e004332f4116919776a585b1929096992c3e01f778bf64b9a72c8d9101611193565b600781815481106115b457600080fd5b6001600160a01b038516331480611872575061187285336107ea565b61188e5760405162461bcd60e51b81526004016108e890612cfe565b610f6f85858585856121e0565b5490565b80546001019055565b606060006118b7836002612d4d565b6118c2906002612d64565b6001600160401b038111156118d9576118d96126ef565b6040519080825280601f01601f191660200182016040528015611903576020820181803683370190505b509050600360fc1b8160008151811061191e5761191e612c56565b60200101906001600160f81b031916908160001a905350600f60fb1b8160018151811061194d5761194d612c56565b60200101906001600160f81b031916908160001a9053506000611971846002612d4d565b61197c906001612d64565b90505b60018111156119f4576f181899199a1a9b1b9c1cb0b131b232b360811b85600f16601081106119b0576119b0612c56565b1a60f81b8282815181106119c6576119c6612c56565b60200101906001600160f81b031916908160001a90535060049490941c936119ed81612d77565b905061197f565b508315611a435760405162461bcd60e51b815260206004820181905260248201527f537472696e67733a20686578206c656e67746820696e73756666696369656e7460448201526064016108e8565b9392505050565b6001600160a01b03163b151590565b60006001600160e01b03198216637965db0b60e01b148061091457506109148261230a565b611a88813361234a565b50565b60026109468282612dd4565b6000805b600754811015611b125760078181548110611ab857611ab8612c56565b6000918252602090912001546001600160a01b03169150611ae76000805160206131938339815191528361172e565b6001600160a01b03821660009081526005602052604081205580611b0a81612cab565b915050611a9b565b50611b1f60076000612644565b506000600455565b6001600160a01b038216611b8e5760405162461bcd60e51b815260206004820152602860248201527f42656e65666963696172793a206163636f756e7420697320746865207a65726f604482015267206164647265737360c01b60648201526084016108e8565b60008111611bde5760405162461bcd60e51b815260206004820152601960248201527f42656e65666963696172793a207368617265732061726520300000000000000060448201526064016108e8565b6001600160a01b03821660009081526005602052604090205415611c545760405162461bcd60e51b815260206004820152602760248201527f42656e65666963696172793a206163636f756e7420616c7265616479206861736044820152662073686172657360c81b60648201526084016108e8565b600780546001810182556000919091527fa66cc928b5edb82af9bd49922954155ab7b0942694bea4ce44661d9a8736c6880180546001600160a01b0319166001600160a01b038416179055611cb760008051602061319383398151915283610f76565b6001600160a01b0382166000908152600560205260409020819055600454611ce0908290612d64565b600455604080516001600160a01b0384168152602081018390527fe6b83177f11971ba30369bb38b914ffba97d5969a3c857b286fa8fdbb150b3ba9101611193565b6001600160a01b038416611d825760405162461bcd60e51b815260206004820152602160248201527f455243313135353a206d696e7420746f20746865207a65726f206164647265736044820152607360f81b60648201526084016108e8565b336000611d8e856123ae565b90506000611d9b856123ae565b90506000868152602081815260408083206001600160a01b038b16845290915281208054879290611dcd908490612d64565b909155505060408051878152602081018790526001600160a01b03808a1692600092918716917fc3d58168c5ae7397731d063d5bbf3d657854427343f4c083240f7aacaa2d0f62910160405180910390a4611e2d836000898989896123f9565b50505050505050565b8151835114611e985760405162461bcd60e51b815260206004820152602860248201527f455243313135353a2069647320616e6420616d6f756e7473206c656e677468206044820152670dad2e6dac2e8c6d60c31b60648201526084016108e8565b6001600160a01b038416611ebe5760405162461bcd60e51b81526004016108e890612e93565b3360005b8451811015611fa5576000858281518110611edf57611edf612c56565b602002602001015190506000858381518110611efd57611efd612c56565b602090810291909101810151600084815280835260408082206001600160a01b038e168352909352919091205490915081811015611f4d5760405162461bcd60e51b81526004016108e890612ed8565b6000838152602081815260408083206001600160a01b038e8116855292528083208585039055908b16825281208054849290611f8a908490612d64565b9250508190555050505080611f9e90612cab565b9050611ec2565b50846001600160a01b0316866001600160a01b0316826001600160a01b03167f4a39dc06d4c0dbc64b70af90fd698a233a518aa5d07e595d983b8c0526c8f7fb8787604051611ff5929190612f22565b60405180910390a461200b818787878787612554565b505050505050565b61201d82826116e8565b6109465760008281526003602090815260408083206001600160a01b03851684529091529020805460ff191660011790556120553390565b6001600160a01b0316816001600160a01b0316837f2f8788117e7eff1d82e926ec794901d17c78024a50270940304540a733656f0d60405160405180910390a45050565b6120a382826116e8565b156109465760008281526003602090815260408083206001600160a01b0385168085529252808320805460ff1916905551339285917ff6391f5c32d9c69d2a47ea670b442974b53935d1edc7fd64eb21e047a839171b9190a45050565b816001600160a01b0316836001600160a01b0316036121735760405162461bcd60e51b815260206004820152602960248201527f455243313135353a2073657474696e6720617070726f76616c20737461747573604482015268103337b91039b2b63360b91b60648201526084016108e8565b6001600160a01b03838116600081815260016020908152604080832094871680845294825291829020805460ff191686151590811790915591519182527f17307eab39ab6107e8899845ad3d59bd9653f200f220920489ca2b5937696c31910160405180910390a3505050565b6001600160a01b0384166122065760405162461bcd60e51b81526004016108e890612e93565b336000612212856123ae565b9050600061221f856123ae565b90506000868152602081815260408083206001600160a01b038c168452909152902054858110156122625760405162461bcd60e51b81526004016108e890612ed8565b6000878152602081815260408083206001600160a01b038d8116855292528083208985039055908a1682528120805488929061229f908490612d64565b909155505060408051888152602081018890526001600160a01b03808b16928c821692918816917fc3d58168c5ae7397731d063d5bbf3d657854427343f4c083240f7aacaa2d0f62910160405180910390a46122ff848a8a8a8a8a6123f9565b505050505050505050565b60006001600160e01b03198216636cdb3d1360e11b148061233b57506001600160e01b031982166303a24d0760e21b145b8061091457506109148261260f565b61235482826116e8565b6109465761236c816001600160a01b031660146118a8565b6123778360206118a8565b604051602001612388929190612f50565b60408051601f198184030181529082905262461bcd60e51b82526108e8916004016129a7565b604080516001808252818301909252606091600091906020808301908036833701905050905082816000815181106123e8576123e8612c56565b602090810291909101015292915050565b6001600160a01b0384163b1561200b5760405163f23a6e6160e01b81526001600160a01b0385169063f23a6e619061243d9089908990889088908890600401612fc5565b6020604051808303816000875af1925050508015612478575060408051601f3d908101601f191682019092526124759181019061300a565b60015b61252457612484613027565b806308c379a0036124bd5750612498613043565b806124a357506124bf565b8060405162461bcd60e51b81526004016108e891906129a7565b505b60405162461bcd60e51b815260206004820152603460248201527f455243313135353a207472616e7366657220746f206e6f6e20455243313135356044820152732932b1b2b4bb32b91034b6b83632b6b2b73a32b960611b60648201526084016108e8565b6001600160e01b0319811663f23a6e6160e01b14611e2d5760405162461bcd60e51b81526004016108e8906130cc565b6001600160a01b0384163b1561200b5760405163bc197c8160e01b81526001600160a01b0385169063bc197c81906125989089908990889088908890600401613114565b6020604051808303816000875af19250505080156125d3575060408051601f3d908101601f191682019092526125d09181019061300a565b60015b6125df57612484613027565b6001600160e01b0319811663bc197c8160e01b14611e2d5760405162461bcd60e51b81526004016108e8906130cc565b60006001600160e01b03198216630271189760e51b148061091457506301ffc9a760e01b6001600160e01b0319831614610914565b5080546000825590600052602060002090810190611a8891905b80821115612672576000815560010161265e565b5090565b80356001600160a01b038116811461268d57600080fd5b919050565b600080604083850312156126a557600080fd5b6126ae83612676565b946020939093013593505050565b6001600160e01b031981168114611a8857600080fd5b6000602082840312156126e457600080fd5b8135611a43816126bc565b634e487b7160e01b600052604160045260246000fd5b601f8201601f191681016001600160401b038111828210171561272a5761272a6126ef565b6040525050565b60006001600160401b0383111561274a5761274a6126ef565b604051612761601f8501601f191660200182612705565b80915083815284848401111561277657600080fd5b83836020830137600060208583010152509392505050565b6000602082840312156127a057600080fd5b81356001600160401b038111156127b657600080fd5b8201601f810184136127c757600080fd5b6127d684823560208401612731565b949350505050565b6000602082840312156127f057600080fd5b611a4382612676565b60006001600160401b03821115612812576128126126ef565b5060051b60200190565b600082601f83011261282d57600080fd5b8135602061283a826127f9565b6040516128478282612705565b83815260059390931b850182019282810191508684111561286757600080fd5b8286015b84811015612882578035835291830191830161286b565b509695505050505050565b600080604083850312156128a057600080fd5b82356001600160401b03808211156128b757600080fd5b818501915085601f8301126128cb57600080fd5b813560206128d8826127f9565b6040516128e58282612705565b83815260059390931b850182019282810191508984111561290557600080fd5b948201945b8386101561292a5761291b86612676565b8252948201949082019061290a565b9650508601359250508082111561294057600080fd5b5061294d8582860161281c565b9150509250929050565b60005b8381101561297257818101518382015260200161295a565b50506000910152565b60008151808452612993816020860160208601612957565b601f01601f19169290920160200192915050565b602081526000611a43602083018461297b565b6000602082840312156129cc57600080fd5b5035919050565b600082601f8301126129e457600080fd5b611a4383833560208501612731565b600080600080600060a08688031215612a0b57600080fd5b612a1486612676565b9450612a2260208701612676565b935060408601356001600160401b0380821115612a3e57600080fd5b612a4a89838a0161281c565b94506060880135915080821115612a6057600080fd5b612a6c89838a0161281c565b93506080880135915080821115612a8257600080fd5b50612a8f888289016129d3565b9150509295509295909350565b60008060408385031215612aaf57600080fd5b82359150612abf60208401612676565b90509250929050565b600060208284031215612ada57600080fd5b81356001600160801b0381168114611a4357600080fd5b600081518084526020808501945080840160005b83811015612b2157815187529582019590820190600101612b05565b509495945050505050565b602081526000611a436020830184612af1565b6020808252825182820181905260009190848201906040850190845b81811015612b805783516001600160a01b031683529284019291840191600101612b5b565b50909695505050505050565b60008060408385031215612b9f57600080fd5b612ba883612676565b915060208301358015158114612bbd57600080fd5b809150509250929050565b60008060408385031215612bdb57600080fd5b612be483612676565b9150612abf60208401612676565b600080600080600060a08688031215612c0a57600080fd5b612c1386612676565b9450612c2160208701612676565b9350604086013592506060860135915060808601356001600160401b03811115612c4a57600080fd5b612a8f888289016129d3565b634e487b7160e01b600052603260045260246000fd5b634e487b7160e01b600052601160045260246000fd5b8181038181111561091457610914612c6c565b634e487b7160e01b600052603160045260246000fd5b600060018201612cbd57612cbd612c6c565b5060010190565b600181811c90821680612cd857607f821691505b602082108103612cf857634e487b7160e01b600052602260045260246000fd5b50919050565b6020808252602f908201527f455243313135353a2063616c6c6572206973206e6f7420746f6b656e206f776e60408201526e195c881b9bdc88185c1c1c9bdd9959608a1b606082015260800190565b808202811582820484141761091457610914612c6c565b8082018082111561091457610914612c6c565b600081612d8657612d86612c6c565b506000190190565b601f821115610ac757600081815260208120601f850160051c81016020861015612db55750805b601f850160051c820191505b8181101561200b57828155600101612dc1565b81516001600160401b03811115612ded57612ded6126ef565b612e0181612dfb8454612cc4565b84612d8e565b602080601f831160018114612e365760008415612e1e5750858301515b600019600386901b1c1916600185901b17855561200b565b600085815260208120601f198616915b82811015612e6557888601518255948401946001909101908401612e46565b5085821015612e835787850151600019600388901b60f8161c191681555b5050505050600190811b01905550565b60208082526025908201527f455243313135353a207472616e7366657220746f20746865207a65726f206164604082015264647265737360d81b606082015260800190565b6020808252602a908201527f455243313135353a20696e73756666696369656e742062616c616e636520666f60408201526939103a3930b739b332b960b11b606082015260800190565b604081526000612f356040830185612af1565b8281036020840152612f478185612af1565b95945050505050565b7f416363657373436f6e74726f6c3a206163636f756e7420000000000000000000815260008351612f88816017850160208801612957565b7001034b99036b4b9b9b4b733903937b6329607d1b6017918401918201528351612fb9816028840160208801612957565b01602801949350505050565b6001600160a01b03868116825285166020820152604081018490526060810183905260a060808201819052600090612fff9083018461297b565b979650505050505050565b60006020828403121561301c57600080fd5b8151611a43816126bc565b600060033d11156130405760046000803e5060005160e01c5b90565b600060443d10156130515790565b6040516003193d81016004833e81513d6001600160401b03816024840111818411171561308057505050505090565b82850191508151818111156130985750505050505090565b843d87010160208285010111156130b25750505050505090565b6130c160208286010187612705565b509095945050505050565b60208082526028908201527f455243313135353a204552433131353552656365697665722072656a656374656040820152676420746f6b656e7360c01b606082015260800190565b6001600160a01b0386811682528516602082015260a06040820181905260009061314090830186612af1565b82810360608401526131528186612af1565b90508281036080840152613166818561297b565b9897505050505050505056fed10feaa7fea55567e367a112bc53907318a50949442dfc0570945570c5af57cfc8a41221bcd7fcf2c225f5a9265e1d4d39949d89197159d59e5f4b87b62c419ea26469706673582212201613a309c6aad46061c1176e826d6d765e3dff18c45c61506d77537f6717e1f264736f6c63430008110033d10feaa7fea55567e367a112bc53907318a50949442dfc0570945570c5af57cff7649bbbb4e70022c2a0439fb47b745b72fdce7678b86a7a1162bc503f0093c6c8a41221bcd7fcf2c225f5a9265e1d4d39949d89197159d59e5f4b87b62c419e700b68d05515876e1b5bee45535f56f17ecf1fbb63ac93e8914591401365025d",
  "linkReferences": {},
  "deployedLinkReferences": {}
}