{
  "_format": "hh-sol-artifact-1",
  "contractName": "SimpleT",
  "sourceName": "contracts/SimpleT.sol",
  "abi": [
    {
      "inputs": [
        {
          "internalType": "string",
          "name": "_name",
          "type": "string"
        },
        {
          "internalType": "address",
          "name": "_initialTrustee",
          "type": "address"
        },
        {
          "internalType": "uint128",
          "name": "_checkInPeriod",
          "type": "uint128"
        },
        {
          "internalType": "address[]",
          "name": "_grantors",
          "type": "address[]"
        },
        {
          "internalType": "address[]",
          "name": "_successorTrustees",
          "type": "address[]"
        },
        {
          "internalType": "uint256[]",
          "name": "_successorTrusteePositions",
          "type": "uint256[]"
        },
        {
          "internalType": "uint256",
          "name": "_successorTrusteePeriod",
          "type": "uint256"
        },
        {
          "internalType": "address[]",
          "name": "_beneficiaries",
          "type": "address[]"
        },
        {
          "internalType": "uint256[]",
          "name": "_beneficiaryPercentages",
          "type": "uint256[]"
        }
      ],
      "stateMutability": "nonpayable",
      "type": "constructor"
    },
    {
      "anonymous": false,
      "inputs": [
        {
          "indexed": false,
          "internalType": "address",
          "name": "owner",
          "type": "address"
        },
        {
          "indexed": false,
          "internalType": "address",
          "name": "grantorAddress",
          "type": "address"
        }
      ],
      "name": "AddedGrantor",
      "type": "event"
    },
    {
      "anonymous": false,
      "inputs": [
        {
          "indexed": false,
          "internalType": "address",
          "name": "owner",
          "type": "address"
        },
        {
          "indexed": false,
          "internalType": "address",
          "name": "trusteeAddress",
          "type": "address"
        }
      ],
      "name": "AddedSccessorTrustee",
      "type": "event"
    },
    {
      "anonymous": false,
      "inputs": [
        {
          "indexed": true,
          "internalType": "address",
          "name": "account",
          "type": "address"
        },
        {
          "indexed": true,
          "internalType": "address",
          "name": "operator",
          "type": "address"
        },
        {
          "indexed": false,
          "internalType": "bool",
          "name": "approved",
          "type": "bool"
        }
      ],
      "name": "ApprovalForAll",
      "type": "event"
    },
    {
      "anonymous": false,
      "inputs": [
        {
          "indexed": false,
          "internalType": "address",
          "name": "owner",
          "type": "address"
        }
      ],
      "name": "AssetsAssigned",
      "type": "event"
    },
    {
      "anonymous": false,
      "inputs": [
        {
          "indexed": false,
          "internalType": "address",
          "name": "from",
          "type": "address"
        },
        {
          "indexed": false,
          "internalType": "uint256",
          "name": "amount",
          "type": "uint256"
        }
      ],
      "name": "AssetsReceived",
      "type": "event"
    },
    {
      "anonymous": false,
      "inputs": [
        {
          "indexed": false,
          "internalType": "address",
          "name": "to",
          "type": "address"
        },
        {
          "indexed": false,
          "internalType": "uint256",
          "name": "amount",
          "type": "uint256"
        }
      ],
      "name": "AssetsReleased",
      "type": "event"
    },
    {
      "anonymous": false,
      "inputs": [
        {
          "indexed": false,
          "internalType": "address",
          "name": "account",
          "type": "address"
        },
        {
          "indexed": false,
          "internalType": "uint256",
          "name": "shares",
          "type": "uint256"
        }
      ],
      "name": "BeneficiaryAdded",
      "type": "event"
    },
    {
      "anonymous": false,
      "inputs": [
        {
          "indexed": false,
          "internalType": "address",
          "name": "owner",
          "type": "address"
        },
        {
          "indexed": false,
          "internalType": "uint256",
          "name": "newStart",
          "type": "uint256"
        },
        {
          "indexed": false,
          "internalType": "uint256",
          "name": "newEnd",
          "type": "uint256"
        }
      ],
      "name": "CkeckIn",
      "type": "event"
    },
    {
      "anonymous": false,
      "inputs": [
        {
          "indexed": false,
          "internalType": "address",
          "name": "owner",
          "type": "address"
        },
        {
          "indexed": false,
          "internalType": "uint128",
          "name": "newPeriod",
          "type": "uint128"
        }
      ],
      "name": "PeriodSet",
      "type": "event"
    },
    {
      "anonymous": false,
      "inputs": [
        {
          "indexed": false,
          "internalType": "address",
          "name": "owner",
          "type": "address"
        },
        {
          "indexed": false,
          "internalType": "address",
          "name": "grantorAddress",
          "type": "address"
        }
      ],
      "name": "RemovedGrantor",
      "type": "event"
    },
    {
      "anonymous": false,
      "inputs": [
        {
          "indexed": false,
          "internalType": "address",
          "name": "owner",
          "type": "address"
        },
        {
          "indexed": false,
          "internalType": "address",
          "name": "trusteeAddress",
          "type": "address"
        }
      ],
      "name": "RemovedTrustee",
      "type": "event"
    },
    {
      "anonymous": false,
      "inputs": [
        {
          "indexed": false,
          "internalType": "address",
          "name": "owner",
          "type": "address"
        }
      ],
      "name": "ResetGrantors",
      "type": "event"
    },
    {
      "anonymous": false,
      "inputs": [
        {
          "indexed": false,
          "internalType": "address",
          "name": "owner",
          "type": "address"
        }
      ],
      "name": "ResetTrustees",
      "type": "event"
    },
    {
      "anonymous": false,
      "inputs": [
        {
          "indexed": true,
          "internalType": "bytes32",
          "name": "role",
          "type": "bytes32"
        },
        {
          "indexed": true,
          "internalType": "bytes32",
          "name": "previousAdminRole",
          "type": "bytes32"
        },
        {
          "indexed": true,
          "internalType": "bytes32",
          "name": "newAdminRole",
          "type": "bytes32"
        }
      ],
      "name": "RoleAdminChanged",
      "type": "event"
    },
    {
      "anonymous": false,
      "inputs": [
        {
          "indexed": true,
          "internalType": "bytes32",
          "name": "role",
          "type": "bytes32"
        },
        {
          "indexed": true,
          "internalType": "address",
          "name": "account",
          "type": "address"
        },
        {
          "indexed": true,
          "internalType": "address",
          "name": "sender",
          "type": "address"
        }
      ],
      "name": "RoleGranted",
      "type": "event"
    },
    {
      "anonymous": false,
      "inputs": [
        {
          "indexed": true,
          "internalType": "bytes32",
          "name": "role",
          "type": "bytes32"
        },
        {
          "indexed": true,
          "internalType": "address",
          "name": "account",
          "type": "address"
        },
        {
          "indexed": true,
          "internalType": "address",
          "name": "sender",
          "type": "address"
        }
      ],
      "name": "RoleRevoked",
      "type": "event"
    },
    {
      "anonymous": false,
      "inputs": [
        {
          "indexed": false,
          "internalType": "address",
          "name": "owner",
          "type": "address"
        },
        {
          "indexed": false,
          "internalType": "address",
          "name": "trusteeAddress",
          "type": "address"
        }
      ],
      "name": "SetInitialTrustee",
      "type": "event"
    },
    {
      "anonymous": false,
      "inputs": [
        {
          "indexed": true,
          "internalType": "address",
          "name": "operator",
          "type": "address"
        },
        {
          "indexed": true,
          "internalType": "address",
          "name": "from",
          "type": "address"
        },
        {
          "indexed": true,
          "internalType": "address",
          "name": "to",
          "type": "address"
        },
        {
          "indexed": false,
          "internalType": "uint256[]",
          "name": "ids",
          "type": "uint256[]"
        },
        {
          "indexed": false,
          "internalType": "uint256[]",
          "name": "values",
          "type": "uint256[]"
        }
      ],
      "name": "TransferBatch",
      "type": "event"
    },
    {
      "anonymous": false,
      "inputs": [
        {
          "indexed": true,
          "internalType": "address",
          "name": "operator",
          "type": "address"
        },
        {
          "indexed": true,
          "internalType": "address",
          "name": "from",
          "type": "address"
        },
        {
          "indexed": true,
          "internalType": "address",
          "name": "to",
          "type": "address"
        },
        {
          "indexed": false,
          "internalType": "uint256",
          "name": "id",
          "type": "uint256"
        },
        {
          "indexed": false,
          "internalType": "uint256",
          "name": "value",
          "type": "uint256"
        }
      ],
      "name": "TransferSingle",
      "type": "event"
    },
    {
      "anonymous": false,
      "inputs": [
        {
          "indexed": false,
          "internalType": "string",
          "name": "value",
          "type": "string"
        },
        {
          "indexed": true,
          "internalType": "uint256",
          "name": "id",
          "type": "uint256"
        }
      ],
      "name": "URI",
      "type": "event"
    },
    {
      "anonymous": false,
      "inputs": [
        {
          "indexed": false,
          "internalType": "address",
          "name": "owner",
          "type": "address"
        },
        {
          "indexed": false,
          "internalType": "uint128",
          "name": "newPeriod",
          "type": "uint128"
        }
      ],
      "name": "successorTrusteePeriodSet",
      "type": "event"
    },
    {
      "inputs": [],
      "name": "BENEFICIARY_ROLE",
      "outputs": [
        {
          "internalType": "bytes32",
          "name": "",
          "type": "bytes32"
        }
      ],
      "stateMutability": "view",
      "type": "function"
    },
    {
      "inputs": [],
      "name": "DEFAULT_ADMIN_ROLE",
      "outputs": [
        {
          "internalType": "bytes32",
          "name": "",
          "type": "bytes32"
        }
      ],
      "stateMutability": "view",
      "type": "function"
    },
    {
      "inputs": [],
      "name": "GRANTOR_ROLE",
      "outputs": [
        {
          "internalType": "bytes32",
          "name": "",
          "type": "bytes32"
        }
      ],
      "stateMutability": "view",
      "type": "function"
    },
    {
      "inputs": [],
      "name": "INITIAL_TRUSTEE_ROLE",
      "outputs": [
        {
          "internalType": "bytes32",
          "name": "",
          "type": "bytes32"
        }
      ],
      "stateMutability": "view",
      "type": "function"
    },
    {
      "inputs": [],
      "name": "SECONDS_IN_30_DAYS",
      "outputs": [
        {
          "internalType": "uint256",
          "name": "",
          "type": "uint256"
        }
      ],
      "stateMutability": "view",
      "type": "function"
    },
    {
      "inputs": [],
      "name": "SUCCESSOR_TRUSTEE_ROLE",
      "outputs": [
        {
          "internalType": "bytes32",
          "name": "",
          "type": "bytes32"
        }
      ],
      "stateMutability": "view",
      "type": "function"
    },
    {
      "inputs": [],
      "name": "TOKENS_PER_GRANTOR",
      "outputs": [
        {
          "internalType": "uint256",
          "name": "",
          "type": "uint256"
        }
      ],
      "stateMutability": "view",
      "type": "function"
    },
    {
      "inputs": [],
      "name": "TRUSTEE_ROLE",
      "outputs": [
        {
          "internalType": "bytes32",
          "name": "",
          "type": "bytes32"
        }
      ],
      "stateMutability": "view",
      "type": "function"
    },
    {
      "inputs": [],
      "name": "VERSION",
      "outputs": [
        {
          "internalType": "string",
          "name": "",
          "type": "string"
        }
      ],
      "stateMutability": "view",
      "type": "function"
    },
    {
      "inputs": [
        {
          "internalType": "address",
          "name": "",
          "type": "address"
        }
      ],
      "name": "_shares",
      "outputs": [
        {
          "internalType": "uint256",
          "name": "",
          "type": "uint256"
        }
      ],
      "stateMutability": "view",
      "type": "function"
    },
    {
      "inputs": [
        {
          "internalType": "address",
          "name": "",
          "type": "address"
        }
      ],
      "name": "_tokenIds",
      "outputs": [
        {
          "internalType": "uint256",
          "name": "",
          "type": "uint256"
        }
      ],
      "stateMutability": "view",
      "type": "function"
    },
    {
      "inputs": [
        {
          "internalType": "address",
          "name": "_grantorAddress",
          "type": "address"
        }
      ],
      "name": "addGrantor",
      "outputs": [],
      "stateMutability": "nonpayable",
      "type": "function"
    },
    {
      "inputs": [
        {
          "internalType": "address[]",
          "name": "_grantorAddresses",
          "type": "address[]"
        }
      ],
      "name": "addGrantors",
      "outputs": [],
      "stateMutability": "nonpayable",
      "type": "function"
    },
    {
      "inputs": [
        {
          "internalType": "address",
          "name": "trusteeAddress",
          "type": "address"
        }
      ],
      "name": "addSuccessorTrustee",
      "outputs": [],
      "stateMutability": "nonpayable",
      "type": "function"
    },
    {
      "inputs": [
        {
          "internalType": "address[]",
          "name": "trusteeAddresses",
          "type": "address[]"
        }
      ],
      "name": "addSuccessorTrustees",
      "outputs": [],
      "stateMutability": "nonpayable",
      "type": "function"
    },
    {
      "inputs": [
        {
          "internalType": "address",
          "name": "_grantorAddress",
          "type": "address"
        }
      ],
      "name": "adminRemoveGrantor",
      "outputs": [],
      "stateMutability": "nonpayable",
      "type": "function"
    },
    {
      "inputs": [],
      "name": "assetsReleased",
      "outputs": [
        {
          "internalType": "bool",
          "name": "",
          "type": "bool"
        }
      ],
      "stateMutability": "view",
      "type": "function"
    },
    {
      "inputs": [],
      "name": "assignAssetsToTrust",
      "outputs": [],
      "stateMutability": "nonpayable",
      "type": "function"
    },
    {
      "inputs": [
        {
          "internalType": "address",
          "name": "",
          "type": "address"
        }
      ],
      "name": "assignedAssets",
      "outputs": [
        {
          "internalType": "bool",
          "name": "",
          "type": "bool"
        }
      ],
      "stateMutability": "view",
      "type": "function"
    },
    {
      "inputs": [
        {
          "internalType": "address",
          "name": "account",
          "type": "address"
        },
        {
          "internalType": "uint256",
          "name": "id",
          "type": "uint256"
        }
      ],
      "name": "balanceOf",
      "outputs": [
        {
          "internalType": "uint256",
          "name": "",
          "type": "uint256"
        }
      ],
      "stateMutability": "view",
      "type": "function"
    },
    {
      "inputs": [
        {
          "internalType": "address[]",
          "name": "accounts",
          "type": "address[]"
        },
        {
          "internalType": "uint256[]",
          "name": "ids",
          "type": "uint256[]"
        }
      ],
      "name": "balanceOfBatch",
      "outputs": [
        {
          "internalType": "uint256[]",
          "name": "",
          "type": "uint256[]"
        }
      ],
      "stateMutability": "view",
      "type": "function"
    },
    {
      "inputs": [
        {
          "internalType": "uint256",
          "name": "",
          "type": "uint256"
        }
      ],
      "name": "beneficiaries",
      "outputs": [
        {
          "internalType": "address",
          "name": "",
          "type": "address"
        }
      ],
      "stateMutability": "view",
      "type": "function"
    },
    {
      "inputs": [],
      "name": "checkInPeriodEnd",
      "outputs": [
        {
          "internalType": "uint256",
          "name": "",
          "type": "uint256"
        }
      ],
      "stateMutability": "view",
      "type": "function"
    },
    {
      "inputs": [],
      "name": "checkInPeriodStart",
      "outputs": [
        {
          "internalType": "uint256",
          "name": "",
          "type": "uint256"
        }
      ],
      "stateMutability": "view",
      "type": "function"
    },
    {
      "inputs": [],
      "name": "claim",
      "outputs": [],
      "stateMutability": "nonpayable",
      "type": "function"
    },
    {
      "inputs": [],
      "name": "defaultState",
      "outputs": [
        {
          "internalType": "enum Roles.TrustStates",
          "name": "",
          "type": "uint8"
        }
      ],
      "stateMutability": "view",
      "type": "function"
    },
    {
      "inputs": [
        {
          "internalType": "address",
          "name": "grantor",
          "type": "address"
        }
      ],
      "name": "findIsAGrantor",
      "outputs": [
        {
          "internalType": "bool",
          "name": "isAGrantor",
          "type": "bool"
        }
      ],
      "stateMutability": "view",
      "type": "function"
    },
    {
      "inputs": [
        {
          "internalType": "address",
          "name": "_addr",
          "type": "address"
        }
      ],
      "name": "getAddressShares",
      "outputs": [
        {
          "internalType": "uint256",
          "name": "",
          "type": "uint256"
        }
      ],
      "stateMutability": "view",
      "type": "function"
    },
    {
      "inputs": [],
      "name": "getBeneficiaries",
      "outputs": [
        {
          "internalType": "address[]",
          "name": "",
          "type": "address[]"
        }
      ],
      "stateMutability": "view",
      "type": "function"
    },
    {
      "inputs": [],
      "name": "getGrantors",
      "outputs": [
        {
          "internalType": "address[]",
          "name": "",
          "type": "address[]"
        }
      ],
      "stateMutability": "view",
      "type": "function"
    },
    {
      "inputs": [
        {
          "internalType": "uint256",
          "name": "idx",
          "type": "uint256"
        }
      ],
      "name": "getGrantorsAt",
      "outputs": [
        {
          "internalType": "address",
          "name": "",
          "type": "address"
        }
      ],
      "stateMutability": "view",
      "type": "function"
    },
    {
      "inputs": [],
      "name": "getGrantorsLength",
      "outputs": [
        {
          "internalType": "uint256",
          "name": "",
          "type": "uint256"
        }
      ],
      "stateMutability": "view",
      "type": "function"
    },
    {
      "inputs": [
        {
          "internalType": "address",
          "name": "_grantor",
          "type": "address"
        }
      ],
      "name": "getGrantorsTokenID",
      "outputs": [
        {
          "internalType": "uint256",
          "name": "",
          "type": "uint256"
        }
      ],
      "stateMutability": "view",
      "type": "function"
    },
    {
      "inputs": [
        {
          "internalType": "bytes32",
          "name": "role",
          "type": "bytes32"
        }
      ],
      "name": "getRoleAdmin",
      "outputs": [
        {
          "internalType": "bytes32",
          "name": "",
          "type": "bytes32"
        }
      ],
      "stateMutability": "view",
      "type": "function"
    },
    {
      "inputs": [],
      "name": "getShares",
      "outputs": [
        {
          "internalType": "uint256",
          "name": "",
          "type": "uint256"
        }
      ],
      "stateMutability": "view",
      "type": "function"
    },
    {
      "inputs": [],
      "name": "getTrustAddress",
      "outputs": [
        {
          "internalType": "address",
          "name": "",
          "type": "address"
        }
      ],
      "stateMutability": "view",
      "type": "function"
    },
    {
      "inputs": [],
      "name": "getTrustee",
      "outputs": [
        {
          "internalType": "address[]",
          "name": "",
          "type": "address[]"
        }
      ],
      "stateMutability": "view",
      "type": "function"
    },
    {
      "inputs": [
        {
          "internalType": "bytes32",
          "name": "role",
          "type": "bytes32"
        },
        {
          "internalType": "address",
          "name": "account",
          "type": "address"
        }
      ],
      "name": "grantRole",
      "outputs": [],
      "stateMutability": "nonpayable",
      "type": "function"
    },
    {
      "inputs": [],
      "name": "grantorRemoveSelf",
      "outputs": [],
      "stateMutability": "nonpayable",
      "type": "function"
    },
    {
      "inputs": [
        {
          "internalType": "uint256",
          "name": "",
          "type": "uint256"
        }
      ],
      "name": "grantors",
      "outputs": [
        {
          "internalType": "address",
          "name": "",
          "type": "address"
        }
      ],
      "stateMutability": "view",
      "type": "function"
    },
    {
      "inputs": [
        {
          "internalType": "bytes32",
          "name": "role",
          "type": "bytes32"
        },
        {
          "internalType": "address",
          "name": "account",
          "type": "address"
        }
      ],
      "name": "hasRole",
      "outputs": [
        {
          "internalType": "bool",
          "name": "",
          "type": "bool"
        }
      ],
      "stateMutability": "view",
      "type": "function"
    },
    {
      "inputs": [],
      "name": "initializedTrust",
      "outputs": [
        {
          "internalType": "uint256",
          "name": "",
          "type": "uint256"
        }
      ],
      "stateMutability": "view",
      "type": "function"
    },
    {
      "inputs": [
        {
          "internalType": "address",
          "name": "account",
          "type": "address"
        },
        {
          "internalType": "address",
          "name": "operator",
          "type": "address"
        }
      ],
      "name": "isApprovedForAll",
      "outputs": [
        {
          "internalType": "bool",
          "name": "",
          "type": "bool"
        }
      ],
      "stateMutability": "view",
      "type": "function"
    },
    {
      "inputs": [],
      "name": "name",
      "outputs": [
        {
          "internalType": "string",
          "name": "",
          "type": "string"
        }
      ],
      "stateMutability": "view",
      "type": "function"
    },
    {
      "inputs": [
        {
          "internalType": "address",
          "name": "",
          "type": "address"
        },
        {
          "internalType": "address",
          "name": "",
          "type": "address"
        },
        {
          "internalType": "uint256[]",
          "name": "",
          "type": "uint256[]"
        },
        {
          "internalType": "uint256[]",
          "name": "",
          "type": "uint256[]"
        },
        {
          "internalType": "bytes",
          "name": "",
          "type": "bytes"
        }
      ],
      "name": "onERC1155BatchReceived",
      "outputs": [
        {
          "internalType": "bytes4",
          "name": "",
          "type": "bytes4"
        }
      ],
      "stateMutability": "nonpayable",
      "type": "function"
    },
    {
      "inputs": [
        {
          "internalType": "address",
          "name": "",
          "type": "address"
        },
        {
          "internalType": "address",
          "name": "",
          "type": "address"
        },
        {
          "internalType": "uint256",
          "name": "",
          "type": "uint256"
        },
        {
          "internalType": "uint256",
          "name": "",
          "type": "uint256"
        },
        {
          "internalType": "bytes",
          "name": "",
          "type": "bytes"
        }
      ],
      "name": "onERC1155Received",
      "outputs": [
        {
          "internalType": "bytes4",
          "name": "",
          "type": "bytes4"
        }
      ],
      "stateMutability": "nonpayable",
      "type": "function"
    },
    {
      "inputs": [],
      "name": "periods",
      "outputs": [
        {
          "internalType": "uint128",
          "name": "",
          "type": "uint128"
        }
      ],
      "stateMutability": "view",
      "type": "function"
    },
    {
      "inputs": [],
      "name": "releaseAssets",
      "outputs": [],
      "stateMutability": "nonpayable",
      "type": "function"
    },
    {
      "inputs": [
        {
          "internalType": "address",
          "name": "trusteeAddress",
          "type": "address"
        }
      ],
      "name": "removeTrustee",
      "outputs": [],
      "stateMutability": "nonpayable",
      "type": "function"
    },
    {
      "inputs": [
        {
          "internalType": "bytes32",
          "name": "role",
          "type": "bytes32"
        },
        {
          "internalType": "address",
          "name": "account",
          "type": "address"
        }
      ],
      "name": "renounceRole",
      "outputs": [],
      "stateMutability": "nonpayable",
      "type": "function"
    },
    {
      "inputs": [],
      "name": "resetTrustees",
      "outputs": [],
      "stateMutability": "nonpayable",
      "type": "function"
    },
    {
      "inputs": [],
      "name": "returnState",
      "outputs": [
        {
          "internalType": "string",
          "name": "",
          "type": "string"
        }
      ],
      "stateMutability": "view",
      "type": "function"
    },
    {
      "inputs": [
        {
          "internalType": "bytes32",
          "name": "role",
          "type": "bytes32"
        },
        {
          "internalType": "address",
          "name": "account",
          "type": "address"
        }
      ],
      "name": "revokeRole",
      "outputs": [],
      "stateMutability": "nonpayable",
      "type": "function"
    },
    {
      "inputs": [
        {
          "internalType": "address",
          "name": "from",
          "type": "address"
        },
        {
          "internalType": "address",
          "name": "to",
          "type": "address"
        },
        {
          "internalType": "uint256[]",
          "name": "ids",
          "type": "uint256[]"
        },
        {
          "internalType": "uint256[]",
          "name": "amounts",
          "type": "uint256[]"
        },
        {
          "internalType": "bytes",
          "name": "data",
          "type": "bytes"
        }
      ],
      "name": "safeBatchTransferFrom",
      "outputs": [],
      "stateMutability": "nonpayable",
      "type": "function"
    },
    {
      "inputs": [
        {
          "internalType": "address",
          "name": "from",
          "type": "address"
        },
        {
          "internalType": "address",
          "name": "to",
          "type": "address"
        },
        {
          "internalType": "uint256",
          "name": "id",
          "type": "uint256"
        },
        {
          "internalType": "uint256",
          "name": "amount",
          "type": "uint256"
        },
        {
          "internalType": "bytes",
          "name": "data",
          "type": "bytes"
        }
      ],
      "name": "safeTransferFrom",
      "outputs": [],
      "stateMutability": "nonpayable",
      "type": "function"
    },
    {
      "inputs": [
        {
          "internalType": "address",
          "name": "operator",
          "type": "address"
        },
        {
          "internalType": "bool",
          "name": "approved",
          "type": "bool"
        }
      ],
      "name": "setApprovalForAll",
      "outputs": [],
      "stateMutability": "nonpayable",
      "type": "function"
    },
    {
      "inputs": [
        {
          "internalType": "address[]",
          "name": "_beneficiaries",
          "type": "address[]"
        },
        {
          "internalType": "uint256[]",
          "name": "shares_",
          "type": "uint256[]"
        }
      ],
      "name": "setBeneficiaries",
      "outputs": [],
      "stateMutability": "nonpayable",
      "type": "function"
    },
    {
      "inputs": [
        {
          "internalType": "address",
          "name": "initialTrusteeAddress",
          "type": "address"
        }
      ],
      "name": "setInitialTrustee",
      "outputs": [],
      "stateMutability": "nonpayable",
      "type": "function"
    },
    {
      "inputs": [
        {
          "internalType": "uint128",
          "name": "newPeriod",
          "type": "uint128"
        }
      ],
      "name": "setPeriods",
      "outputs": [],
      "stateMutability": "nonpayable",
      "type": "function"
    },
    {
      "inputs": [
        {
          "internalType": "uint128",
          "name": "newPeriod",
          "type": "uint128"
        }
      ],
      "name": "setSuccessorPeriod",
      "outputs": [],
      "stateMutability": "nonpayable",
      "type": "function"
    },
    {
      "inputs": [
        {
          "internalType": "string",
          "name": "newuri",
          "type": "string"
        }
      ],
      "name": "setURI",
      "outputs": [],
      "stateMutability": "nonpayable",
      "type": "function"
    },
    {
      "inputs": [],
      "name": "successorTrusteePeriod",
      "outputs": [
        {
          "internalType": "uint128",
          "name": "",
          "type": "uint128"
        }
      ],
      "stateMutability": "view",
      "type": "function"
    },
    {
      "inputs": [
        {
          "internalType": "bytes4",
          "name": "interfaceId",
          "type": "bytes4"
        }
      ],
      "name": "supportsInterface",
      "outputs": [
        {
          "internalType": "bool",
          "name": "",
          "type": "bool"
        }
      ],
      "stateMutability": "view",
      "type": "function"
    },
    {
      "inputs": [],
      "name": "trustEnd",
      "outputs": [
        {
          "internalType": "uint256",
          "name": "",
          "type": "uint256"
        }
      ],
      "stateMutability": "view",
      "type": "function"
    },
    {
      "inputs": [],
      "name": "trustState",
      "outputs": [
        {
          "internalType": "enum Roles.TrustStates",
          "name": "",
          "type": "uint8"
        }
      ],
      "stateMutability": "view",
      "type": "function"
    },
    {
      "inputs": [],
      "name": "trustee",
      "outputs": [
        {
          "internalType": "address",
          "name": "",
          "type": "address"
        }
      ],
      "stateMutability": "view",
      "type": "function"
    },
    {
      "inputs": [
        {
          "internalType": "uint256",
          "name": "",
          "type": "uint256"
        }
      ],
      "name": "trustees",
      "outputs": [
        {
          "internalType": "address",
          "name": "",
          "type": "address"
        }
      ],
      "stateMutability": "view",
      "type": "function"
    },
    {
      "inputs": [
        {
          "internalType": "uint256",
          "name": "",
          "type": "uint256"
        }
      ],
      "name": "uri",
      "outputs": [
        {
          "internalType": "string",
          "name": "",
          "type": "string"
        }
      ],
      "stateMutability": "view",
      "type": "function"
    }
  ],
  "bytecode": "0x60806040523480156200001157600080fd5b5060405162005a7f38038062005a7f8339810160408190526200003491620016d3565b6040805160208101909152600081526200004e8162000212565b5060106200005d8a826200188b565b50426012819055601355601580546001600160801b0319166001600160801b038916908117909155620000959062278d00906200196d565b601354620000a4919062001987565b60148190556016556011805460ff19169055620000d260008051602062005a5f833981519152600062000224565b6200010d7f700b68d05515876e1b5bee45535f56f17ecf1fbb63ac93e8914591401365025d60008051602062005a5f83398151915262000224565b6200013760008051602062005a3f83398151915260008051602062005a5f83398151915262000224565b620001446000336200026f565b6200015f60008051602062005a5f833981519152336200026f565b6200016a886200027b565b620001758762000360565b6200018086620004b1565b6200018b8562000520565b62000196886200058a565b620001a28282620006b3565b336001600160a01b038916146200020357620001c06000896200083c565b620001db60008051602062005a5f833981519152896200083c565b620001f660008051602062005a5f8339815191523362000865565b6200020360003362000865565b50505050505050505062001bc4565b60026200022082826200188b565b5050565b600082815260036020526040808220600101805490849055905190918391839186917fbd79b86ffe0ab8e8776151514217cd7cacd52c909f66475c3af44e129f0b00ff9190a4505050565b6200022082826200088e565b6000620002888162000918565b6001600160a01b038216620002e45760405162461bcd60e51b815260206004820152601f60248201527f616464726573732063616e206e6f74206265207a65726f20616464726573730060448201526064015b60405180910390fd5b600980546001600160a01b0319166001600160a01b0384161790556200031a60008051602062005a5f833981519152836200083c565b604080513381526001600160a01b03841660208201527f9f2f3bb1e001850c78e18c2e52a4bcd24afad4f0f0f8be8ec9ac72b54611898f91015b60405180910390a15050565b60008051602062005a5f8339815191526200037b8162000918565b6001826001600160801b03161015620003ec5760405162461bcd60e51b815260206004820152602c60248201527f4e657720706572696f64206d75737420626520616e20696e746567657220677260448201526b06561746572207468616e20360a41b6064820152608401620002db565b600c826001600160801b031611156200045b5760405162461bcd60e51b815260206004820152602a60248201527f4e657720706572696f64206d75737420626520616e20696e7465676572206c656044820152697373207468616e20313360b01b6064820152608401620002db565b601580546001600160801b0319166001600160801b0384169081179091556040805133815260208101929092527fb428e0a5c0640e8ed52241fa7a5cd4e9690205e730b2e9437fee6f177119fc68910162000354565b60008051602062005a5f833981519152620004cc8162000918565b60005b82518110156200051b5762000506838281518110620004f257620004f26200199d565b60200260200101516200092760201b60201c565b806200051281620019b3565b915050620004cf565b505050565b60008051602062005a5f8339815191526200053b8162000918565b60005b82518110156200051b57620005758382815181106200056157620005616200199d565b60200260200101516200058a60201b60201c565b806200058181620019b3565b9150506200053e565b60008051602062005a5f833981519152620005a58162000918565b6001600160a01b038216620005fd5760405162461bcd60e51b815260206004820152601f60248201527f616464726573732063616e206e6f74206265207a65726f2061646472657373006044820152606401620002db565b600a80546001810182556000919091527fc65a7bb8d6351c1cf70c95a316cc6a92839c986682d98bc35f958f4883f9d2a80180546001600160a01b0319166001600160a01b038416179055620006747ff7155988d98fbd671d755d54d33dd2cbf3395493f927ad2494ca6aaeb3c08281836200083c565b604080513381526001600160a01b03841660208201527f42fd43da6f2263d7d0e82fade699c6a530d0039110839aae8e6941daa7cd5de3910162000354565b60008051602062005a5f833981519152620006ce8162000918565b6000835111620007475760405162461bcd60e51b815260206004820152603660248201527f42656e65666963696172793a204174206c6561737420312062656e656669636960448201527f617279206d757374206265207370656369666965642e000000000000000000006064820152608401620002db565b8151835114620007c05760405162461bcd60e51b815260206004820152603d60248201527f42656e65666963696172793a2062656e6566696369617269657320616e64207360448201527f6861726573206d757368206861766520657175616c206c656e6774682e0000006064820152608401620002db565b620007ca62000b2d565b60005b8351811015620008365762000821848281518110620007f057620007f06200199d565b60200260200101518483815181106200080d576200080d6200199d565b602002602001015162000bc960201b60201c565b806200082d81620019b3565b915050620007cd565b50505050565b600082815260036020526040902060010154620008598162000918565b6200051b83836200088e565b600082815260036020526040902060010154620008828162000918565b6200051b838362000dd0565b6200089a828262000e3a565b620002205760008281526003602090815260408083206001600160a01b03851684529091529020805460ff19166001179055620008d43390565b6001600160a01b0316816001600160a01b0316837f2f8788117e7eff1d82e926ec794901d17c78024a50270940304540a733656f0d60405160405180910390a45050565b62000924813362000e67565b50565b60008051602062005a5f833981519152620009428162000918565b6001600160a01b038216620009ab5760405162461bcd60e51b815260206004820152602860248201527f4772616e746f723a20616464726573732063616e206e6f74206265207a65726f604482015267206164647265737360c01b6064820152608401620002db565b620009b68262000eea565b1562000a055760405162461bcd60e51b815260206004820181905260248201527f4772616e746f723a206164647265737320616c7265616479206772616e746f726044820152606401620002db565b600062000a1e600f62000f5460201b62001fd11760201c565b600e8054600181019091557fbb7b4a454dc3493923482f07822329ed19e8244eff582cc204f8554c3620c3fd0180546001600160a01b0319166001600160a01b0386169081179091556000908152600c602090815260408083208490558051918201905290815290915062000aa19084908390670de0b6b3a76400009062000f58565b62000ab8600f6200107660201b62001fd51760201c565b62000ae47fd10feaa7fea55567e367a112bc53907318a50949442dfc0570945570c5af57cf846200083c565b7f2d2500ad452ae259e6723284b4b4133d18c42ac9e3212498b64d2a381580b57b33604080516001600160a01b03928316815291861660208301520160405180910390a1505050565b6000805b60085481101562000bb2576008818154811062000b525762000b526200199d565b6000918252602090912001546001600160a01b0316915062000b8460008051602062005a3f8339815191528362000865565b6001600160a01b0382166000908152600660205260408120558062000ba981620019b3565b91505062000b31565b5062000bc16008600062001470565b506000600555565b6001600160a01b03821662000c325760405162461bcd60e51b815260206004820152602860248201527f42656e65666963696172793a206163636f756e7420697320746865207a65726f604482015267206164647265737360c01b6064820152608401620002db565b6000811162000c845760405162461bcd60e51b815260206004820152601960248201527f42656e65666963696172793a20736861726573206172652030000000000000006044820152606401620002db565b6001600160a01b0382166000908152600660205260409020541562000cfc5760405162461bcd60e51b815260206004820152602760248201527f42656e65666963696172793a206163636f756e7420616c7265616479206861736044820152662073686172657360c81b6064820152608401620002db565b600880546001810182556000919091527ff3f7a9fe364faab93b216da50a3214154f22a0a2b415b23a84c8169e8b636ee30180546001600160a01b0319166001600160a01b03841617905562000d6260008051602062005a3f833981519152836200083c565b6001600160a01b038216600090815260066020526040902081905560055462000d8d90829062001987565b600555604080516001600160a01b0384168152602081018390527fe6b83177f11971ba30369bb38b914ffba97d5969a3c857b286fa8fdbb150b3ba910162000354565b62000ddc828262000e3a565b15620002205760008281526003602090815260408083206001600160a01b0385168085529252808320805460ff1916905551339285917ff6391f5c32d9c69d2a47ea670b442974b53935d1edc7fd64eb21e047a839171b9190a45050565b60008281526003602090815260408083206001600160a01b038516845290915290205460ff165b92915050565b62000e73828262000e3a565b620002205762000e99816001600160a01b031660146200107f60201b62001fde1760201c565b62000eaf83602062001fde6200107f821b17811c565b60405160200162000ec2929190620019cf565b60408051601f198184030181529082905262461bcd60e51b8252620002db9160040162001a76565b6000805b600e5481101562000f4e57600e818154811062000f0f5762000f0f6200199d565b6000918252602090912001546001600160a01b039081169084160362000f39576001915062000f4e565b8062000f4581620019b3565b91505062000eee565b50919050565b5490565b6001600160a01b03841662000fba5760405162461bcd60e51b815260206004820152602160248201527f455243313135353a206d696e7420746f20746865207a65726f206164647265736044820152607360f81b6064820152608401620002db565b33600062000fc8856200123f565b9050600062000fd7856200123f565b90506000868152602081815260408083206001600160a01b038b168452909152812080548792906200100b90849062001987565b909155505060408051878152602081018790526001600160a01b03808a1692600092918716917fc3d58168c5ae7397731d063d5bbf3d657854427343f4c083240f7aacaa2d0f62910160405180910390a46200106d8360008989898962001295565b50505050505050565b80546001019055565b60606000620010908360026200196d565b6200109d90600262001987565b6001600160401b03811115620010b757620010b7620014a5565b6040519080825280601f01601f191660200182016040528015620010e2576020820181803683370190505b509050600360fc1b816000815181106200110057620011006200199d565b60200101906001600160f81b031916908160001a905350600f60fb1b816001815181106200113257620011326200199d565b60200101906001600160f81b031916908160001a9053506000620011588460026200196d565b6200116590600162001987565b90505b6001811115620011e7576f181899199a1a9b1b9c1cb0b131b232b360811b85600f16601081106200119d576200119d6200199d565b1a60f81b828281518110620011b657620011b66200199d565b60200101906001600160f81b031916908160001a90535060049490941c93620011df8162001a8b565b905062001168565b508315620012385760405162461bcd60e51b815260206004820181905260248201527f537472696e67733a20686578206c656e67746820696e73756666696369656e746044820152606401620002db565b9392505050565b604080516001808252818301909252606091600091906020808301908036833701905050905082816000815181106200127c576200127c6200199d565b602090810291909101015292915050565b505050505050565b620012b4846001600160a01b03166200146160201b620021801760201c565b156200128d5760405163f23a6e6160e01b81526001600160a01b0385169063f23a6e6190620012f0908990899088908890889060040162001aa5565b6020604051808303816000875af19250505080156200132e575060408051601f3d908101601f191682019092526200132b9181019062001aec565b60015b620013ee576200133d62001b18565b806308c379a0036200137d57506200135462001b35565b806200136157506200137f565b8060405162461bcd60e51b8152600401620002db919062001a76565b505b60405162461bcd60e51b815260206004820152603460248201527f455243313135353a207472616e7366657220746f206e6f6e204552433131353560448201527f526563656976657220696d706c656d656e7465720000000000000000000000006064820152608401620002db565b6001600160e01b0319811663f23a6e6160e01b146200106d5760405162461bcd60e51b815260206004820152602860248201527f455243313135353a204552433131353552656365697665722072656a656374656044820152676420746f6b656e7360c01b6064820152608401620002db565b6001600160a01b03163b151590565b50805460008255906000526020600020908101906200092491905b80821115620014a157600081556001016200148b565b5090565b634e487b7160e01b600052604160045260246000fd5b601f8201601f191681016001600160401b0381118282101715620014e357620014e3620014a5565b6040525050565b60005b8381101562001507578181015183820152602001620014ed565b50506000910152565b600082601f8301126200152257600080fd5b81516001600160401b038111156200153e576200153e620014a5565b60405162001557601f8301601f191660200182620014bb565b8181528460208386010111156200156d57600080fd5b62001580826020830160208701620014ea565b949350505050565b80516001600160a01b0381168114620015a057600080fd5b919050565b80516001600160801b0381168114620015a057600080fd5b60006001600160401b03821115620015d957620015d9620014a5565b5060051b60200190565b600082601f830112620015f557600080fd5b815160206200160482620015bd565b604051620016138282620014bb565b83815260059390931b85018201928281019150868411156200163457600080fd5b8286015b848110156200165a576200164c8162001588565b835291830191830162001638565b509695505050505050565b600082601f8301126200167757600080fd5b815160206200168682620015bd565b604051620016958282620014bb565b83815260059390931b8501820192828101915086841115620016b657600080fd5b8286015b848110156200165a5780518352918301918301620016ba565b60008060008060008060008060006101208a8c031215620016f357600080fd5b89516001600160401b03808211156200170b57600080fd5b620017198d838e0162001510565b9a506200172960208d0162001588565b99506200173960408d01620015a5565b985060608c01519150808211156200175057600080fd5b6200175e8d838e01620015e3565b975060808c01519150808211156200177557600080fd5b620017838d838e01620015e3565b965060a08c01519150808211156200179a57600080fd5b620017a88d838e0162001665565b955060c08c0151945060e08c0151915080821115620017c657600080fd5b620017d48d838e01620015e3565b93506101008c0151915080821115620017ec57600080fd5b50620017fb8c828d0162001665565b9150509295985092959850929598565b600181811c908216806200182057607f821691505b60208210810362000f4e57634e487b7160e01b600052602260045260246000fd5b601f8211156200051b57600081815260208120601f850160051c810160208610156200186a5750805b601f850160051c820191505b818110156200128d5782815560010162001876565b81516001600160401b03811115620018a757620018a7620014a5565b620018bf81620018b884546200180b565b8462001841565b602080601f831160018114620018f75760008415620018de5750858301515b600019600386901b1c1916600185901b1785556200128d565b600085815260208120601f198616915b82811015620019285788860151825594840194600190910190840162001907565b5085821015620019475787850151600019600388901b60f8161c191681555b5050505050600190811b01905550565b634e487b7160e01b600052601160045260246000fd5b808202811582820484141762000e615762000e6162001957565b8082018082111562000e615762000e6162001957565b634e487b7160e01b600052603260045260246000fd5b600060018201620019c857620019c862001957565b5060010190565b7f416363657373436f6e74726f6c3a206163636f756e742000000000000000000081526000835162001a09816017850160208801620014ea565b7001034b99036b4b9b9b4b733903937b6329607d1b601791840191820152835162001a3c816028840160208801620014ea565b01602801949350505050565b6000815180845262001a62816020860160208601620014ea565b601f01601f19169290920160200192915050565b60208152600062001238602083018462001a48565b60008162001a9d5762001a9d62001957565b506000190190565b6001600160a01b03868116825285166020820152604081018490526060810183905260a06080820181905260009062001ae19083018462001a48565b979650505050505050565b60006020828403121562001aff57600080fd5b81516001600160e01b0319811681146200123857600080fd5b600060033d111562001b325760046000803e5060005160e01c5b90565b600060443d101562001b445790565b6040516003193d81016004833e81513d6001600160401b03808311602484018310171562001b7457505050505090565b828501915081518181111562001b8d5750505050505090565b843d870101602082850101111562001ba85750505050505090565b62001bb960208286010187620014bb565b509095945050505050565b613e6b8062001bd46000396000f3fe608060405234801561001057600080fd5b50600436106103fb5760003560e01c80636ed89c9011610215578063ac4a286611610125578063d73fe0aa116100b8578063f23a6e6111610087578063f23a6e6114610948578063f242432a14610967578063f8be342e1461097a578063fdf97cb214610982578063ffa1ad741461099557600080fd5b8063d73fe0aa146108cf578063e15fb83f146108e4578063e985e9c5146108f9578063efeb5e581461093557600080fd5b8063c03cdde2116100f4578063c03cdde214610871578063c72200251461087e578063ced3a403146108a7578063d547741f146108bc57600080fd5b8063ac4a2866146107e8578063b34c8caf1461080f578063bc197c811461082f578063befcabbd1461086757600080fd5b80638b85ef3c116101a8578063a217fddf11610177578063a217fddf14610794578063a22cb4651461079c578063a3d591f4146107af578063a4caeb42146107c2578063a69e264a146107d557600080fd5b80638b85ef3c14610767578063913b722c1461077057806391d14854146107785780639ccfff431461078b57600080fd5b80637c720767116101e45780637c7207671461072f578063835a02bf14610737578063844aba121461074c578063869bf82b1461075f57600080fd5b80636ed89c90146106e05780636f969453146106ef578063717d63a4146106f5578063727776491461070857600080fd5b80632eb2c2d6116103105780634e1273f4116102a35780636216b6e3116102725780636216b6e31461068d57806364412658146106a257806367f0cc75146106aa5780636a35bf18146106b35780636e801bd2146106cd57600080fd5b80634e1273f4146106555780634e71d92d1461067557806358b455571461067d578063609d356d1461068557600080fd5b8063345f39b1116102df578063345f39b1146105e457806336568abe14610604578063393152c01461061757806341f0f79e1461064257600080fd5b80632eb2c2d6146105985780632f2d87d2146105ab5780632f2ff15d146105be57806330610f8a146105d157600080fd5b80630e89341c116103935780632093d0ed116103625780632093d0ed14610517578063248a9ca31461054257806329f3e8a6146105655780632a23d8381461056d5780632cac761c1461059057600080fd5b80630e89341c146104d557806313f0da84146104e857806317314d99146104fb5780631734d9551461050e57600080fd5b8063065dc4c1116103cf578063065dc4c11461047157806306fdde031461048457806309494bce146104995780630de86e25146104ac57600080fd5b8062fdd58e1461040057806301ffc9a71461042657806302fe530514610449578063031205061461045e575b600080fd5b61041361040e366004613237565b6109bd565b6040519081526020015b60405180910390f35b610439610434366004613277565b610a56565b604051901515815260200161041d565b61045c610457366004613333565b610a61565b005b61045c61046c366004613383565b610a86565b61045c61047f36600461349f565b610c08565b61048c610d6f565b60405161041d9190613552565b61045c6104a7366004613383565b610dfd565b6104136104ba366004613383565b6001600160a01b03166000908152600c602052604090205490565b61048c6104e3366004613565565b610ed7565b61045c6104f6366004613383565b610f6b565b610439610509366004613383565b61113b565b61041360165481565b600b5461052a906001600160801b031681565b6040516001600160801b03909116815260200161041d565b610413610550366004613565565b60009081526003602052604090206001015490565b61045c61119c565b61043961057b366004613383565b600d6020526000908152604090205460ff1681565b61045c6111c0565b61045c6105a636600461359e565b6111fa565b61045c6105b9366004613647565b611246565b61045c6105cc36600461367b565b61129e565b61045c6105df366004613383565b6112c3565b6104136105f2366004613383565b600c6020526000908152604090205481565b61045c61061236600461367b565b6113e4565b61062a610625366004613565565b61145e565b6040516001600160a01b03909116815260200161041d565b61045c6106503660046136a7565b61148e565b61066861066336600461349f565b611592565b60405161041d919061370b565b61045c6116bb565b61048c6118e4565b61045c6119f4565b610695611b71565b60405161041d919061371e565b600e54610413565b61041360125481565b6004546106c09060ff1681565b60405161041d9190613781565b61045c6106db366004613647565b611bd3565b610413670de0b6b3a764000081565b3061062a565b61062a610703366004613565565b611c2b565b6104137f700b68d05515876e1b5bee45535f56f17ecf1fbb63ac93e8914591401365025d81565b610695611c55565b610413600080516020613e1683398151915281565b61045c61075a366004613383565b611cb5565b61045c611cc9565b61041360135481565b610695611d23565b61043961078636600461367b565b611d83565b61041360145481565b610413600081565b61045c6107aa3660046137a9565b611dae565b61062a6107bd366004613565565b611db9565b60155461052a906001600160801b031681565b61045c6107e33660046136a7565b611dc9565b6104137ff7155988d98fbd671d755d54d33dd2cbf3395493f927ad2494ca6aaeb3c0828181565b61041361081d366004613383565b60066020526000908152604090205481565b61084e61083d36600461359e565b63bc197c8160e01b95945050505050565b6040516001600160e01b0319909116815260200161041d565b61041362278d0081565b6011546104399060ff1681565b61041361088c366004613383565b6001600160a01b031660009081526006602052604090205490565b610413600080516020613df683398151915281565b61045c6108ca36600461367b565b611ecd565b33600090815260066020526040902054610413565b610413600080516020613dd683398151915281565b6104396109073660046137e5565b6001600160a01b03918216600090815260016020908152604080832093909416825291909152205460ff1690565b61062a610943366004613565565b611ef2565b61084e61095636600461380f565b63f23a6e6160e01b95945050505050565b61045c61097536600461380f565b611f02565b6106c0600081565b60095461062a906001600160a01b031681565b61048c604051806040016040528060098152602001680323032322e31302e360bc1b81525081565b60006001600160a01b038316610a2d5760405162461bcd60e51b815260206004820152602a60248201527f455243313135353a2061646472657373207a65726f206973206e6f742061207660448201526930b634b21037bbb732b960b11b60648201526084015b60405180910390fd5b506000818152602081815260408083206001600160a01b03861684529091529020545b92915050565b6000610a508261218f565b600080516020613dd6833981519152610a79816121b4565b610a82826121be565b5050565b600080516020613e16833981519152610a9e816121b4565b60005b600a54811015610c0357600a8181548110610abe57610abe613873565b6000918252602090912001546001600160a01b0390811690841603610bf157600a54600103610af457610aef611cc9565b610bf1565b600a8054610b049060019061389f565b81548110610b1457610b14613873565b600091825260209091200154600a80546001600160a01b039092169183908110610b4057610b40613873565b9060005260206000200160006101000a8154816001600160a01b0302191690836001600160a01b03160217905550600a805480610b7f57610b7f6138b2565b600082815260209020810160001990810180546001600160a01b03191690550190556040517f5b7d4fa1769cbfe0631cd21a5bc8a2e09645e697ef883f5d7f84ea32caadca7c90610be890339086906001600160a01b0392831681529116602082015260400190565b60405180910390a15b80610bfb816138c8565b915050610aa1565b505050565b600080516020613e16833981519152610c20816121b4565b6000835111610c905760405162461bcd60e51b815260206004820152603660248201527f42656e65666963696172793a204174206c6561737420312062656e656669636960448201527530b93c9036bab9ba1031329039b832b1b4b334b2b21760511b6064820152608401610a24565b8151835114610d075760405162461bcd60e51b815260206004820152603d60248201527f42656e65666963696172793a2062656e6566696369617269657320616e64207360448201527f6861726573206d757368206861766520657175616c206c656e6774682e0000006064820152608401610a24565b610d0f6121ca565b60005b8351811015610d6957610d57848281518110610d3057610d30613873565b6020026020010151848381518110610d4a57610d4a613873565b602002602001015161225a565b80610d61816138c8565b915050610d12565b50505050565b60108054610d7c906138e1565b80601f0160208091040260200160405190810160405280929190818152602001828054610da8906138e1565b8015610df55780601f10610dca57610100808354040283529160200191610df5565b820191906000526020600020905b815481529060010190602001808311610dd857829003601f168201915b505050505081565b6000610e08816121b4565b6001600160a01b038216610e5e5760405162461bcd60e51b815260206004820152601f60248201527f616464726573732063616e206e6f74206265207a65726f2061646472657373006044820152606401610a24565b600980546001600160a01b0319166001600160a01b038416179055610e91600080516020613e168339815191528361129e565b604080513381526001600160a01b03841660208201527f9f2f3bb1e001850c78e18c2e52a4bcd24afad4f0f0f8be8ec9ac72b54611898f91015b60405180910390a15050565b606060028054610ee6906138e1565b80601f0160208091040260200160405190810160405280929190818152602001828054610f12906138e1565b8015610f5f5780601f10610f3457610100808354040283529160200191610f5f565b820191906000526020600020905b815481529060010190602001808311610f4257829003601f168201915b50505050509050919050565b600080516020613e16833981519152610f83816121b4565b6001600160a01b038216610fea5760405162461bcd60e51b815260206004820152602860248201527f4772616e746f723a20616464726573732063616e206e6f74206265207a65726f604482015267206164647265737360c01b6064820152608401610a24565b610ff38261113b565b156110405760405162461bcd60e51b815260206004820181905260248201527f4772616e746f723a206164647265737320616c7265616479206772616e746f726044820152606401610a24565b600061104b600f5490565b600e8054600181019091557fbb7b4a454dc3493923482f07822329ed19e8244eff582cc204f8554c3620c3fd0180546001600160a01b0319166001600160a01b0386169081179091556000908152600c60209081526040808320849055805191820190529081529091506110cc9084908390670de0b6b3a764000090612455565b6110da600f80546001019055565b6110f2600080516020613dd68339815191528461129e565b7f2d2500ad452ae259e6723284b4b4133d18c42ac9e3212498b64d2a381580b57b33604080516001600160a01b03928316815291861660208301520160405180910390a1505050565b6000805b600e5481101561119657600e818154811061115c5761115c613873565b6000918252602090912001546001600160a01b03908116908416036111845760019150611196565b8061118e816138c8565b91505061113f565b50919050565b600080516020613dd68339815191526111b4816121b4565b6111bd33612569565b50565b7f700b68d05515876e1b5bee45535f56f17ecf1fbb63ac93e8914591401365025d6111ea816121b4565b506011805460ff19166001179055565b6001600160a01b03851633148061121657506112168533610907565b6112325760405162461bcd60e51b8152600401610a2490613915565b61123f8585858585612799565b5050505050565b600080516020613e1683398151915261125e816121b4565b60005b8251811015610c035761128c83828151811061127f5761127f613873565b6020026020010151610f6b565b80611296816138c8565b915050611261565b6000828152600360205260409020600101546112b9816121b4565b610c038383612976565b600080516020613e168339815191526112db816121b4565b6001600160a01b0382166113315760405162461bcd60e51b815260206004820152601f60248201527f616464726573732063616e206e6f74206265207a65726f2061646472657373006044820152606401610a24565b600a80546001810182556000919091527fc65a7bb8d6351c1cf70c95a316cc6a92839c986682d98bc35f958f4883f9d2a80180546001600160a01b0319166001600160a01b0384161790556113a67ff7155988d98fbd671d755d54d33dd2cbf3395493f927ad2494ca6aaeb3c082818361129e565b604080513381526001600160a01b03841660208201527f42fd43da6f2263d7d0e82fade699c6a530d0039110839aae8e6941daa7cd5de39101610ecb565b6001600160a01b03811633146114545760405162461bcd60e51b815260206004820152602f60248201527f416363657373436f6e74726f6c3a2063616e206f6e6c792072656e6f756e636560448201526e103937b632b9903337b91039b2b63360891b6064820152608401610a24565b610a8282826129fc565b6000600e828154811061147357611473613873565b6000918252602090912001546001600160a01b031692915050565b600080516020613e168339815191526114a6816121b4565b6001826001600160801b031610156114d05760405162461bcd60e51b8152600401610a2490613964565b600c826001600160801b0316111561153d5760405162461bcd60e51b815260206004820152602a60248201527f4e657720706572696f64206d75737420626520616e20696e7465676572206c656044820152697373207468616e20313360b01b6064820152608401610a24565b601580546001600160801b0319166001600160801b0384169081179091556040805133815260208101929092527fb428e0a5c0640e8ed52241fa7a5cd4e9690205e730b2e9437fee6f177119fc689101610ecb565b606081518351146115f75760405162461bcd60e51b815260206004820152602960248201527f455243313135353a206163636f756e747320616e6420696473206c656e677468604482015268040dad2e6dac2e8c6d60bb1b6064820152608401610a24565b600083516001600160401b0381111561161257611612613294565b60405190808252806020026020018201604052801561163b578160200160208202803683370190505b50905060005b84518110156116b35761168685828151811061165f5761165f613873565b602002602001015185838151811061167957611679613873565b60200260200101516109bd565b82828151811061169857611698613873565b60209081029190910101526116ac816138c8565b9050611641565b509392505050565b600080516020613df68339815191526116d3816121b4565b60115460ff166117355760405162461bcd60e51b815260206004820152602760248201527f53696d706c65543a204173736574732068617665206e6f74206265656e2072656044820152663632b0b9b2b21760c91b6064820152608401610a24565b336000908152600660205260409020546117915760405162461bcd60e51b815260206004820152601e60248201527f53696d706c65543a206163636f756e7420686173206e6f2073686172657300006044820152606401610a24565b600e546000816001600160401b038111156117ae576117ae613294565b6040519080825280602002602001820160405280156117d7578160200160208202803683370190505b5090506000826001600160401b038111156117f4576117f4613294565b60405190808252806020026020018201604052801561181d578160200160208202803683370190505b50905060005b838110156118c7576000600e828154811061184057611840613873565b60009182526020808320909101546001600160a01b0316808352600c909152604090912054855191925090819086908590811061187f5761187f613873565b602002602001018181525050670de0b6b3a76400008484815181106118a6576118a6613873565b602002602001018181525050505080806118bf906138c8565b915050611823565b50610d693033848460405180602001604052806000815250612799565b60045460609060ff1660008160038111156119015761190161376b565b0361192a575050604080518082019091526008815267496e61637469766560c01b602082015290565b600181600381111561193e5761193e61376b565b0361196557505060408051808201909152600681526541637469766560d01b602082015290565b60028160038111156119795761197961376b565b036119a3575050604080518082019091526009815268457865637574696e6760b81b602082015290565b60038160038111156119b7576119b761376b565b036119e0575050604080518082019091526008815267115e1958dd5d195960c21b602082015290565b505060408051602081019091526000815290565b600080516020613dd6833981519152611a0c816121b4565b336000818152600c602052604081205491611a28905b836109bd565b11611a6e5760405162461bcd60e51b81526020600482015260166024820152754772616e746f723a20686173206e6f20746f6b656e7360501b6044820152606401610a24565b670de0b6b3a7640000611a8033611a22565b14611ad95760405162461bcd60e51b8152602060048201526024808201527f4772616e746f723a20646f6573206e6f74206861766520656e6f75676820746f6044820152636b656e7360e01b6064820152608401610a24565b611afd333083670de0b6b3a764000060405180602001604052806000815250611f02565b336000908152600d60205260408120805460ff1916600117905560045460ff166003811115611b2e57611b2e61376b565b03611b41576004805460ff191660011790555b6040513381527ff7efa194e78c695700a8a53fe398b5cceba12ee3304aee9a7d0c9ec53f2748a990602001610ecb565b6060600a805480602002602001604051908101604052809291908181526020018280548015611bc957602002820191906000526020600020905b81546001600160a01b03168152600190910190602001808311611bab575b5050505050905090565b600080516020613e16833981519152611beb816121b4565b60005b8251811015610c0357611c19838281518110611c0c57611c0c613873565b60200260200101516112c3565b80611c23816138c8565b915050611bee565b600a8181548110611c3b57600080fd5b6000918252602090912001546001600160a01b0316905081565b6060600e805480602002602001604051908101604052809291908181526020018280548015611bc9576020028201919060005260206000209081546001600160a01b03168152600190910190602001808311611bab575050505050905090565b6000611cc0816121b4565b610a8282612569565b600080516020613e16833981519152611ce1816121b4565b611ced600a60006131e9565b6040513381527f211d738206bd274b575601b1ef45e3ea69b59b3425b822ff3b0384ef3e9c01ef9060200160405180910390a150565b60606008805480602002602001604051908101604052809291908181526020018280548015611bc9576020028201919060005260206000209081546001600160a01b03168152600190910190602001808311611bab575050505050905090565b60009182526003602090815260408084206001600160a01b0393909316845291905290205460ff1690565b610a82338383612a63565b600e8181548110611c3b57600080fd5b600080516020613e16833981519152611de1816121b4565b6001826001600160801b03161015611e0b5760405162461bcd60e51b8152600401610a2490613964565b6024826001600160801b03161115611e785760405162461bcd60e51b815260206004820152602a60248201527f4e657720706572696f64206d75737420626520616e20696e7465676572206c6560448201526939b9903a3430b710199b60b11b6064820152608401610a24565b600b80546001600160801b0319166001600160801b0384169081179091556040805133815260208101929092527f9396f9b2442d7bfab813d1720d515ac25569031ccbb18073cd118155b0c4eb009101610ecb565b600082815260036020526040902060010154611ee8816121b4565b610c0383836129fc565b60088181548110611c3b57600080fd5b6001600160a01b0384163014611f6d5760405162461bcd60e51b815260206004820152602a60248201527f455243313135353a204f6e6c792073656e6420746f6b656e7320746f2054727560448201526939ba1037b910213ab93760b11b6064820152608401610a24565b670de0b6b3a76400008214611fc45760405162461bcd60e51b815260206004820152601d60248201527f455243313135353a204d7573742073656e6420616c6c20746f6b656e730000006044820152606401610a24565b61123f8585858585612b43565b5490565b80546001019055565b60606000611fed8360026139b0565b611ff89060026139c7565b6001600160401b0381111561200f5761200f613294565b6040519080825280601f01601f191660200182016040528015612039576020820181803683370190505b509050600360fc1b8160008151811061205457612054613873565b60200101906001600160f81b031916908160001a905350600f60fb1b8160018151811061208357612083613873565b60200101906001600160f81b031916908160001a90535060006120a78460026139b0565b6120b29060016139c7565b90505b600181111561212a576f181899199a1a9b1b9c1cb0b131b232b360811b85600f16601081106120e6576120e6613873565b1a60f81b8282815181106120fc576120fc613873565b60200101906001600160f81b031916908160001a90535060049490941c93612123816139da565b90506120b5565b5083156121795760405162461bcd60e51b815260206004820181905260248201527f537472696e67733a20686578206c656e67746820696e73756666696369656e746044820152606401610a24565b9392505050565b6001600160a01b03163b151590565b60006001600160e01b03198216637965db0b60e01b1480610a505750610a5082612b88565b6111bd8133612bc8565b6002610a828282613a37565b6000805b60085481101561224557600881815481106121eb576121eb613873565b6000918252602090912001546001600160a01b0316915061221a600080516020613df683398151915283611ecd565b6001600160a01b0382166000908152600660205260408120558061223d816138c8565b9150506121ce565b50612252600860006131e9565b506000600555565b6001600160a01b0382166122c15760405162461bcd60e51b815260206004820152602860248201527f42656e65666963696172793a206163636f756e7420697320746865207a65726f604482015267206164647265737360c01b6064820152608401610a24565b600081116123115760405162461bcd60e51b815260206004820152601960248201527f42656e65666963696172793a20736861726573206172652030000000000000006044820152606401610a24565b6001600160a01b038216600090815260066020526040902054156123875760405162461bcd60e51b815260206004820152602760248201527f42656e65666963696172793a206163636f756e7420616c7265616479206861736044820152662073686172657360c81b6064820152608401610a24565b600880546001810182556000919091527ff3f7a9fe364faab93b216da50a3214154f22a0a2b415b23a84c8169e8b636ee30180546001600160a01b0319166001600160a01b0384161790556123ea600080516020613df68339815191528361129e565b6001600160a01b03821660009081526006602052604090208190556005546124139082906139c7565b600555604080516001600160a01b0384168152602081018390527fe6b83177f11971ba30369bb38b914ffba97d5969a3c857b286fa8fdbb150b3ba9101610ecb565b6001600160a01b0384166124b55760405162461bcd60e51b815260206004820152602160248201527f455243313135353a206d696e7420746f20746865207a65726f206164647265736044820152607360f81b6064820152608401610a24565b3360006124c185612c2c565b905060006124ce85612c2c565b90506000868152602081815260408083206001600160a01b038b168452909152812080548792906125009084906139c7565b909155505060408051878152602081018790526001600160a01b03808a1692600092918716917fc3d58168c5ae7397731d063d5bbf3d657854427343f4c083240f7aacaa2d0f62910160405180910390a461256083600089898989612c77565b50505050505050565b60005b600e54811015610a8257600e818154811061258957612589613873565b6000918252602090912001546001600160a01b039081169083160361278757600e80546125b89060019061389f565b815481106125c8576125c8613873565b600091825260209091200154600e80546001600160a01b0390921691839081106125f4576125f4613873565b9060005260206000200160006101000a8154816001600160a01b0302191690836001600160a01b03160217905550600e805480612633576126336138b2565b600082815260209020810160001990810180546001600160a01b03191690550190556001600160a01b03821633036126825761267d600080516020613dd6833981519152836113e4565b61269a565b61269a600080516020613dd683398151915283611ecd565b6001600160a01b0382166000908152600d602052604090205460ff16156126ed576001600160a01b0382166000908152600c60205260409020546126e8903090670de0b6b3a7640000612dd2565b61271a565b6001600160a01b0382166000908152600c602052604090205461271a908390670de0b6b3a7640000612dd2565b6001600160a01b0382166000908152600d60205260409020805460ff19169055612742612f4e565b7f701072609ecdc9f1dec8d59310d034f818b105c61460db326e9df9014eb3b8f933604080516001600160a01b03928316815291851660208301520160405180910390a15b80612791816138c8565b91505061256c565b81518351146127fb5760405162461bcd60e51b815260206004820152602860248201527f455243313135353a2069647320616e6420616d6f756e7473206c656e677468206044820152670dad2e6dac2e8c6d60c31b6064820152608401610a24565b6001600160a01b0384166128215760405162461bcd60e51b8152600401610a2490613af6565b3360005b845181101561290857600085828151811061284257612842613873565b60200260200101519050600085838151811061286057612860613873565b602090810291909101810151600084815280835260408082206001600160a01b038e1683529093529190912054909150818110156128b05760405162461bcd60e51b8152600401610a2490613b3b565b6000838152602081815260408083206001600160a01b038e8116855292528083208585039055908b168252812080548492906128ed9084906139c7565b9250508190555050505080612901906138c8565b9050612825565b50846001600160a01b0316866001600160a01b0316826001600160a01b03167f4a39dc06d4c0dbc64b70af90fd698a233a518aa5d07e595d983b8c0526c8f7fb8787604051612958929190613b85565b60405180910390a461296e818787878787612fcf565b505050505050565b6129808282611d83565b610a825760008281526003602090815260408083206001600160a01b03851684529091529020805460ff191660011790556129b83390565b6001600160a01b0316816001600160a01b0316837f2f8788117e7eff1d82e926ec794901d17c78024a50270940304540a733656f0d60405160405180910390a45050565b612a068282611d83565b15610a825760008281526003602090815260408083206001600160a01b0385168085529252808320805460ff1916905551339285917ff6391f5c32d9c69d2a47ea670b442974b53935d1edc7fd64eb21e047a839171b9190a45050565b816001600160a01b0316836001600160a01b031603612ad65760405162461bcd60e51b815260206004820152602960248201527f455243313135353a2073657474696e6720617070726f76616c20737461747573604482015268103337b91039b2b63360b91b6064820152608401610a24565b6001600160a01b03838116600081815260016020908152604080832094871680845294825291829020805460ff191686151590811790915591519182527f17307eab39ab6107e8899845ad3d59bd9653f200f220920489ca2b5937696c31910160405180910390a3505050565b6001600160a01b038516331480612b5f5750612b5f8533610907565b612b7b5760405162461bcd60e51b8152600401610a2490613915565b61123f858585858561308a565b60006001600160e01b03198216636cdb3d1360e11b1480612bb957506001600160e01b031982166303a24d0760e21b145b80610a505750610a50826131b4565b612bd28282611d83565b610a8257612bea816001600160a01b03166014611fde565b612bf5836020611fde565b604051602001612c06929190613bb3565b60408051601f198184030181529082905262461bcd60e51b8252610a2491600401613552565b60408051600180825281830190925260609160009190602080830190803683370190505090508281600081518110612c6657612c66613873565b602090810291909101015292915050565b6001600160a01b0384163b1561296e5760405163f23a6e6160e01b81526001600160a01b0385169063f23a6e6190612cbb9089908990889088908890600401613c28565b6020604051808303816000875af1925050508015612cf6575060408051601f3d908101601f19168201909252612cf391810190613c6d565b60015b612da257612d02613c8a565b806308c379a003612d3b5750612d16613ca6565b80612d215750612d3d565b8060405162461bcd60e51b8152600401610a249190613552565b505b60405162461bcd60e51b815260206004820152603460248201527f455243313135353a207472616e7366657220746f206e6f6e20455243313135356044820152732932b1b2b4bb32b91034b6b83632b6b2b73a32b960611b6064820152608401610a24565b6001600160e01b0319811663f23a6e6160e01b146125605760405162461bcd60e51b8152600401610a2490613d2f565b6001600160a01b038316612e345760405162461bcd60e51b815260206004820152602360248201527f455243313135353a206275726e2066726f6d20746865207a65726f206164647260448201526265737360e81b6064820152608401610a24565b336000612e4084612c2c565b90506000612e4d84612c2c565b60408051602080820183526000918290528882528181528282206001600160a01b038b1683529052205490915084811015612ed65760405162461bcd60e51b8152602060048201526024808201527f455243313135353a206275726e20616d6f756e7420657863656564732062616c604482015263616e636560e01b6064820152608401610a24565b6000868152602081815260408083206001600160a01b038b81168086529184528285208a8703905582518b81529384018a90529092908816917fc3d58168c5ae7397731d063d5bbf3d657854427343f4c083240f7aacaa2d0f62910160405180910390a4604080516020810190915260009052612560565b6004805460ff1916905560005b600e548110156111bd57600d6000600e8381548110612f7c57612f7c613873565b60009182526020808320909101546001600160a01b0316835282019290925260400190205460ff161515600103612fbd57506004805460ff19166001179055565b80612fc7816138c8565b915050612f5b565b6001600160a01b0384163b1561296e5760405163bc197c8160e01b81526001600160a01b0385169063bc197c81906130139089908990889088908890600401613d77565b6020604051808303816000875af192505050801561304e575060408051601f3d908101601f1916820190925261304b91810190613c6d565b60015b61305a57612d02613c8a565b6001600160e01b0319811663bc197c8160e01b146125605760405162461bcd60e51b8152600401610a2490613d2f565b6001600160a01b0384166130b05760405162461bcd60e51b8152600401610a2490613af6565b3360006130bc85612c2c565b905060006130c985612c2c565b90506000868152602081815260408083206001600160a01b038c1684529091529020548581101561310c5760405162461bcd60e51b8152600401610a2490613b3b565b6000878152602081815260408083206001600160a01b038d8116855292528083208985039055908a168252812080548892906131499084906139c7565b909155505060408051888152602081018890526001600160a01b03808b16928c821692918816917fc3d58168c5ae7397731d063d5bbf3d657854427343f4c083240f7aacaa2d0f62910160405180910390a46131a9848a8a8a8a8a612c77565b505050505050505050565b60006001600160e01b03198216630271189760e51b1480610a5057506301ffc9a760e01b6001600160e01b0319831614610a50565b50805460008255906000526020600020908101906111bd91905b808211156132175760008155600101613203565b5090565b80356001600160a01b038116811461323257600080fd5b919050565b6000806040838503121561324a57600080fd5b6132538361321b565b946020939093013593505050565b6001600160e01b0319811681146111bd57600080fd5b60006020828403121561328957600080fd5b813561217981613261565b634e487b7160e01b600052604160045260246000fd5b601f8201601f191681016001600160401b03811182821017156132cf576132cf613294565b6040525050565b60006001600160401b038311156132ef576132ef613294565b604051613306601f8501601f1916602001826132aa565b80915083815284848401111561331b57600080fd5b83836020830137600060208583010152509392505050565b60006020828403121561334557600080fd5b81356001600160401b0381111561335b57600080fd5b8201601f8101841361336c57600080fd5b61337b848235602084016132d6565b949350505050565b60006020828403121561339557600080fd5b6121798261321b565b60006001600160401b038211156133b7576133b7613294565b5060051b60200190565b600082601f8301126133d257600080fd5b813560206133df8261339e565b6040516133ec82826132aa565b83815260059390931b850182019282810191508684111561340c57600080fd5b8286015b8481101561342e576134218161321b565b8352918301918301613410565b509695505050505050565b600082601f83011261344a57600080fd5b813560206134578261339e565b60405161346482826132aa565b83815260059390931b850182019282810191508684111561348457600080fd5b8286015b8481101561342e5780358352918301918301613488565b600080604083850312156134b257600080fd5b82356001600160401b03808211156134c957600080fd5b6134d5868387016133c1565b935060208501359150808211156134eb57600080fd5b506134f885828601613439565b9150509250929050565b60005b8381101561351d578181015183820152602001613505565b50506000910152565b6000815180845261353e816020860160208601613502565b601f01601f19169290920160200192915050565b6020815260006121796020830184613526565b60006020828403121561357757600080fd5b5035919050565b600082601f83011261358f57600080fd5b612179838335602085016132d6565b600080600080600060a086880312156135b657600080fd5b6135bf8661321b565b94506135cd6020870161321b565b935060408601356001600160401b03808211156135e957600080fd5b6135f589838a01613439565b9450606088013591508082111561360b57600080fd5b61361789838a01613439565b9350608088013591508082111561362d57600080fd5b5061363a8882890161357e565b9150509295509295909350565b60006020828403121561365957600080fd5b81356001600160401b0381111561366f57600080fd5b61337b848285016133c1565b6000806040838503121561368e57600080fd5b8235915061369e6020840161321b565b90509250929050565b6000602082840312156136b957600080fd5b81356001600160801b038116811461217957600080fd5b600081518084526020808501945080840160005b83811015613700578151875295820195908201906001016136e4565b509495945050505050565b60208152600061217960208301846136d0565b6020808252825182820181905260009190848201906040850190845b8181101561375f5783516001600160a01b03168352928401929184019160010161373a565b50909695505050505050565b634e487b7160e01b600052602160045260246000fd5b60208101600483106137a357634e487b7160e01b600052602160045260246000fd5b91905290565b600080604083850312156137bc57600080fd5b6137c58361321b565b9150602083013580151581146137da57600080fd5b809150509250929050565b600080604083850312156137f857600080fd5b6138018361321b565b915061369e6020840161321b565b600080600080600060a0868803121561382757600080fd5b6138308661321b565b945061383e6020870161321b565b9350604086013592506060860135915060808601356001600160401b0381111561386757600080fd5b61363a8882890161357e565b634e487b7160e01b600052603260045260246000fd5b634e487b7160e01b600052601160045260246000fd5b81810381811115610a5057610a50613889565b634e487b7160e01b600052603160045260246000fd5b6000600182016138da576138da613889565b5060010190565b600181811c908216806138f557607f821691505b60208210810361119657634e487b7160e01b600052602260045260246000fd5b6020808252602f908201527f455243313135353a2063616c6c6572206973206e6f7420746f6b656e206f776e60408201526e195c881b9bdc88185c1c1c9bdd9959608a1b606082015260800190565b6020808252602c908201527f4e657720706572696f64206d75737420626520616e20696e746567657220677260408201526b06561746572207468616e20360a41b606082015260800190565b8082028115828204841417610a5057610a50613889565b80820180821115610a5057610a50613889565b6000816139e9576139e9613889565b506000190190565b601f821115610c0357600081815260208120601f850160051c81016020861015613a185750805b601f850160051c820191505b8181101561296e57828155600101613a24565b81516001600160401b03811115613a5057613a50613294565b613a6481613a5e84546138e1565b846139f1565b602080601f831160018114613a995760008415613a815750858301515b600019600386901b1c1916600185901b17855561296e565b600085815260208120601f198616915b82811015613ac857888601518255948401946001909101908401613aa9565b5085821015613ae65787850151600019600388901b60f8161c191681555b5050505050600190811b01905550565b60208082526025908201527f455243313135353a207472616e7366657220746f20746865207a65726f206164604082015264647265737360d81b606082015260800190565b6020808252602a908201527f455243313135353a20696e73756666696369656e742062616c616e636520666f60408201526939103a3930b739b332b960b11b606082015260800190565b604081526000613b9860408301856136d0565b8281036020840152613baa81856136d0565b95945050505050565b7f416363657373436f6e74726f6c3a206163636f756e7420000000000000000000815260008351613beb816017850160208801613502565b7001034b99036b4b9b9b4b733903937b6329607d1b6017918401918201528351613c1c816028840160208801613502565b01602801949350505050565b6001600160a01b03868116825285166020820152604081018490526060810183905260a060808201819052600090613c6290830184613526565b979650505050505050565b600060208284031215613c7f57600080fd5b815161217981613261565b600060033d1115613ca35760046000803e5060005160e01c5b90565b600060443d1015613cb45790565b6040516003193d81016004833e81513d6001600160401b038160248401118184111715613ce357505050505090565b8285019150815181811115613cfb5750505050505090565b843d8701016020828501011115613d155750505050505090565b613d24602082860101876132aa565b509095945050505050565b60208082526028908201527f455243313135353a204552433131353552656365697665722072656a656374656040820152676420746f6b656e7360c01b606082015260800190565b6001600160a01b0386811682528516602082015260a060408201819052600090613da3908301866136d0565b8281036060840152613db581866136d0565b90508281036080840152613dc98185613526565b9897505050505050505056fed10feaa7fea55567e367a112bc53907318a50949442dfc0570945570c5af57cfc8a41221bcd7fcf2c225f5a9265e1d4d39949d89197159d59e5f4b87b62c419ec9f8fbeef45513c3dbb0ea7f6fd9e5c2854dede44cb2b85e62b9cf86683e5abda26469706673582212207e334b66ac71208a0c607798fba2e1694099a86dd16ea399b8714fbca3f927cf64736f6c63430008110033c8a41221bcd7fcf2c225f5a9265e1d4d39949d89197159d59e5f4b87b62c419ec9f8fbeef45513c3dbb0ea7f6fd9e5c2854dede44cb2b85e62b9cf86683e5abd",
  "linkReferences": {},
  "deployedLinkReferences": {}
}