{
  "_format": "hh-sol-artifact-1",
  "contractName": "SimpleT",
  "sourceName": "contracts/SimpleT.sol",
  "abi": [
    {
      "inputs": [
        {
          "internalType": "address",
          "name": "_grantor",
          "type": "address"
        },
        {
          "internalType": "address",
          "name": "_initial_trustee",
          "type": "address"
        },
        {
          "internalType": "address[]",
          "name": "_beneficiaries",
          "type": "address[]"
        },
        {
          "internalType": "uint256[]",
          "name": "_percentages",
          "type": "uint256[]"
        }
      ],
      "stateMutability": "nonpayable",
      "type": "constructor"
    },
    {
      "anonymous": false,
      "inputs": [
        {
          "indexed": false,
          "internalType": "address",
          "name": "owner",
          "type": "address"
        },
        {
          "indexed": false,
          "internalType": "address",
          "name": "grantorAddress",
          "type": "address"
        }
      ],
      "name": "AddedGrantor",
      "type": "event"
    },
    {
      "anonymous": false,
      "inputs": [
        {
          "indexed": false,
          "internalType": "address",
          "name": "owner",
          "type": "address"
        },
        {
          "indexed": false,
          "internalType": "address",
          "name": "trusteeAddress",
          "type": "address"
        }
      ],
      "name": "AddedTrustee",
      "type": "event"
    },
    {
      "anonymous": false,
      "inputs": [
        {
          "indexed": true,
          "internalType": "address",
          "name": "account",
          "type": "address"
        },
        {
          "indexed": true,
          "internalType": "address",
          "name": "operator",
          "type": "address"
        },
        {
          "indexed": false,
          "internalType": "bool",
          "name": "approved",
          "type": "bool"
        }
      ],
      "name": "ApprovalForAll",
      "type": "event"
    },
    {
      "anonymous": false,
      "inputs": [
        {
          "indexed": false,
          "internalType": "address",
          "name": "from",
          "type": "address"
        },
        {
          "indexed": false,
          "internalType": "uint256",
          "name": "amount",
          "type": "uint256"
        }
      ],
      "name": "AssetsReceived",
      "type": "event"
    },
    {
      "anonymous": false,
      "inputs": [
        {
          "indexed": false,
          "internalType": "address",
          "name": "to",
          "type": "address"
        },
        {
          "indexed": false,
          "internalType": "uint256",
          "name": "amount",
          "type": "uint256"
        }
      ],
      "name": "AssetsReleased",
      "type": "event"
    },
    {
      "anonymous": false,
      "inputs": [
        {
          "indexed": false,
          "internalType": "address",
          "name": "account",
          "type": "address"
        },
        {
          "indexed": false,
          "internalType": "uint256",
          "name": "shares",
          "type": "uint256"
        }
      ],
      "name": "BeneficiaryAdded",
      "type": "event"
    },
    {
      "anonymous": false,
      "inputs": [
        {
          "indexed": false,
          "internalType": "address",
          "name": "owner",
          "type": "address"
        },
        {
          "indexed": false,
          "internalType": "uint256",
          "name": "newStart",
          "type": "uint256"
        },
        {
          "indexed": false,
          "internalType": "uint256",
          "name": "newEnd",
          "type": "uint256"
        }
      ],
      "name": "CkeckIn",
      "type": "event"
    },
    {
      "anonymous": false,
      "inputs": [
        {
          "indexed": false,
          "internalType": "address",
          "name": "owner",
          "type": "address"
        },
        {
          "indexed": false,
          "internalType": "uint256",
          "name": "newPeriod",
          "type": "uint256"
        }
      ],
      "name": "PeriodSet",
      "type": "event"
    },
    {
      "anonymous": false,
      "inputs": [
        {
          "indexed": false,
          "internalType": "address",
          "name": "owner",
          "type": "address"
        },
        {
          "indexed": false,
          "internalType": "address",
          "name": "grantorAddress",
          "type": "address"
        }
      ],
      "name": "RemovedGrantor",
      "type": "event"
    },
    {
      "anonymous": false,
      "inputs": [
        {
          "indexed": false,
          "internalType": "address",
          "name": "owner",
          "type": "address"
        },
        {
          "indexed": false,
          "internalType": "address",
          "name": "trusteeAddress",
          "type": "address"
        }
      ],
      "name": "RemovedTrustee",
      "type": "event"
    },
    {
      "anonymous": false,
      "inputs": [
        {
          "indexed": false,
          "internalType": "address",
          "name": "owner",
          "type": "address"
        }
      ],
      "name": "ResetGrantor",
      "type": "event"
    },
    {
      "anonymous": false,
      "inputs": [
        {
          "indexed": false,
          "internalType": "address",
          "name": "owner",
          "type": "address"
        }
      ],
      "name": "ResetTrustees",
      "type": "event"
    },
    {
      "anonymous": false,
      "inputs": [
        {
          "indexed": true,
          "internalType": "bytes32",
          "name": "role",
          "type": "bytes32"
        },
        {
          "indexed": true,
          "internalType": "bytes32",
          "name": "previousAdminRole",
          "type": "bytes32"
        },
        {
          "indexed": true,
          "internalType": "bytes32",
          "name": "newAdminRole",
          "type": "bytes32"
        }
      ],
      "name": "RoleAdminChanged",
      "type": "event"
    },
    {
      "anonymous": false,
      "inputs": [
        {
          "indexed": true,
          "internalType": "bytes32",
          "name": "role",
          "type": "bytes32"
        },
        {
          "indexed": true,
          "internalType": "address",
          "name": "account",
          "type": "address"
        },
        {
          "indexed": true,
          "internalType": "address",
          "name": "sender",
          "type": "address"
        }
      ],
      "name": "RoleGranted",
      "type": "event"
    },
    {
      "anonymous": false,
      "inputs": [
        {
          "indexed": true,
          "internalType": "bytes32",
          "name": "role",
          "type": "bytes32"
        },
        {
          "indexed": true,
          "internalType": "address",
          "name": "account",
          "type": "address"
        },
        {
          "indexed": true,
          "internalType": "address",
          "name": "sender",
          "type": "address"
        }
      ],
      "name": "RoleRevoked",
      "type": "event"
    },
    {
      "anonymous": false,
      "inputs": [
        {
          "indexed": true,
          "internalType": "address",
          "name": "operator",
          "type": "address"
        },
        {
          "indexed": true,
          "internalType": "address",
          "name": "from",
          "type": "address"
        },
        {
          "indexed": true,
          "internalType": "address",
          "name": "to",
          "type": "address"
        },
        {
          "indexed": false,
          "internalType": "uint256[]",
          "name": "ids",
          "type": "uint256[]"
        },
        {
          "indexed": false,
          "internalType": "uint256[]",
          "name": "values",
          "type": "uint256[]"
        }
      ],
      "name": "TransferBatch",
      "type": "event"
    },
    {
      "anonymous": false,
      "inputs": [
        {
          "indexed": true,
          "internalType": "address",
          "name": "operator",
          "type": "address"
        },
        {
          "indexed": true,
          "internalType": "address",
          "name": "from",
          "type": "address"
        },
        {
          "indexed": true,
          "internalType": "address",
          "name": "to",
          "type": "address"
        },
        {
          "indexed": false,
          "internalType": "uint256",
          "name": "id",
          "type": "uint256"
        },
        {
          "indexed": false,
          "internalType": "uint256",
          "name": "value",
          "type": "uint256"
        }
      ],
      "name": "TransferSingle",
      "type": "event"
    },
    {
      "anonymous": false,
      "inputs": [
        {
          "indexed": false,
          "internalType": "string",
          "name": "value",
          "type": "string"
        },
        {
          "indexed": true,
          "internalType": "uint256",
          "name": "id",
          "type": "uint256"
        }
      ],
      "name": "URI",
      "type": "event"
    },
    {
      "inputs": [],
      "name": "BENEFICIARY_ROLE",
      "outputs": [
        {
          "internalType": "bytes32",
          "name": "",
          "type": "bytes32"
        }
      ],
      "stateMutability": "view",
      "type": "function"
    },
    {
      "inputs": [],
      "name": "DEFAULT_ADMIN_ROLE",
      "outputs": [
        {
          "internalType": "bytes32",
          "name": "",
          "type": "bytes32"
        }
      ],
      "stateMutability": "view",
      "type": "function"
    },
    {
      "inputs": [],
      "name": "GRANTOR_ADMIN_ROLE",
      "outputs": [
        {
          "internalType": "bytes32",
          "name": "",
          "type": "bytes32"
        }
      ],
      "stateMutability": "view",
      "type": "function"
    },
    {
      "inputs": [],
      "name": "GRANTOR_ROLE",
      "outputs": [
        {
          "internalType": "bytes32",
          "name": "",
          "type": "bytes32"
        }
      ],
      "stateMutability": "view",
      "type": "function"
    },
    {
      "inputs": [],
      "name": "TRUSTEE_ROLE",
      "outputs": [
        {
          "internalType": "bytes32",
          "name": "",
          "type": "bytes32"
        }
      ],
      "stateMutability": "view",
      "type": "function"
    },
    {
      "inputs": [
        {
          "internalType": "address",
          "name": "",
          "type": "address"
        }
      ],
      "name": "_shares",
      "outputs": [
        {
          "internalType": "uint256",
          "name": "",
          "type": "uint256"
        }
      ],
      "stateMutability": "view",
      "type": "function"
    },
    {
      "inputs": [
        {
          "internalType": "address",
          "name": "",
          "type": "address"
        }
      ],
      "name": "_token_ids",
      "outputs": [
        {
          "internalType": "uint256",
          "name": "",
          "type": "uint256"
        }
      ],
      "stateMutability": "view",
      "type": "function"
    },
    {
      "inputs": [
        {
          "internalType": "address",
          "name": "_grantorAddress",
          "type": "address"
        }
      ],
      "name": "addGrantor",
      "outputs": [],
      "stateMutability": "nonpayable",
      "type": "function"
    },
    {
      "inputs": [
        {
          "internalType": "address",
          "name": "trusteeAddress",
          "type": "address"
        }
      ],
      "name": "addTrustee",
      "outputs": [],
      "stateMutability": "nonpayable",
      "type": "function"
    },
    {
      "inputs": [],
      "name": "assetsReleased",
      "outputs": [
        {
          "internalType": "bool",
          "name": "",
          "type": "bool"
        }
      ],
      "stateMutability": "view",
      "type": "function"
    },
    {
      "inputs": [],
      "name": "assignAssetsToTrust",
      "outputs": [],
      "stateMutability": "nonpayable",
      "type": "function"
    },
    {
      "inputs": [
        {
          "internalType": "address",
          "name": "account",
          "type": "address"
        },
        {
          "internalType": "uint256",
          "name": "id",
          "type": "uint256"
        }
      ],
      "name": "balanceOf",
      "outputs": [
        {
          "internalType": "uint256",
          "name": "",
          "type": "uint256"
        }
      ],
      "stateMutability": "view",
      "type": "function"
    },
    {
      "inputs": [
        {
          "internalType": "address[]",
          "name": "accounts",
          "type": "address[]"
        },
        {
          "internalType": "uint256[]",
          "name": "ids",
          "type": "uint256[]"
        }
      ],
      "name": "balanceOfBatch",
      "outputs": [
        {
          "internalType": "uint256[]",
          "name": "",
          "type": "uint256[]"
        }
      ],
      "stateMutability": "view",
      "type": "function"
    },
    {
      "inputs": [
        {
          "internalType": "uint256",
          "name": "",
          "type": "uint256"
        }
      ],
      "name": "beneficiaries",
      "outputs": [
        {
          "internalType": "address",
          "name": "",
          "type": "address"
        }
      ],
      "stateMutability": "view",
      "type": "function"
    },
    {
      "inputs": [],
      "name": "checkInPeriodEnd",
      "outputs": [
        {
          "internalType": "uint256",
          "name": "",
          "type": "uint256"
        }
      ],
      "stateMutability": "view",
      "type": "function"
    },
    {
      "inputs": [],
      "name": "checkInPeriodStart",
      "outputs": [
        {
          "internalType": "uint256",
          "name": "",
          "type": "uint256"
        }
      ],
      "stateMutability": "view",
      "type": "function"
    },
    {
      "inputs": [],
      "name": "claim",
      "outputs": [],
      "stateMutability": "nonpayable",
      "type": "function"
    },
    {
      "inputs": [
        {
          "internalType": "address",
          "name": "_addr",
          "type": "address"
        }
      ],
      "name": "getAddressShares",
      "outputs": [
        {
          "internalType": "uint256",
          "name": "",
          "type": "uint256"
        }
      ],
      "stateMutability": "view",
      "type": "function"
    },
    {
      "inputs": [],
      "name": "getBeneficiaries",
      "outputs": [
        {
          "internalType": "address[]",
          "name": "",
          "type": "address[]"
        }
      ],
      "stateMutability": "view",
      "type": "function"
    },
    {
      "inputs": [],
      "name": "getGrantors",
      "outputs": [
        {
          "internalType": "address[]",
          "name": "",
          "type": "address[]"
        }
      ],
      "stateMutability": "view",
      "type": "function"
    },
    {
      "inputs": [
        {
          "internalType": "uint256",
          "name": "idx",
          "type": "uint256"
        }
      ],
      "name": "getGrantorsAt",
      "outputs": [
        {
          "internalType": "address",
          "name": "",
          "type": "address"
        }
      ],
      "stateMutability": "view",
      "type": "function"
    },
    {
      "inputs": [],
      "name": "getGrantorsLength",
      "outputs": [
        {
          "internalType": "uint256",
          "name": "",
          "type": "uint256"
        }
      ],
      "stateMutability": "view",
      "type": "function"
    },
    {
      "inputs": [
        {
          "internalType": "address",
          "name": "_grantor",
          "type": "address"
        }
      ],
      "name": "getGrantorsTokenID",
      "outputs": [
        {
          "internalType": "uint256",
          "name": "",
          "type": "uint256"
        }
      ],
      "stateMutability": "view",
      "type": "function"
    },
    {
      "inputs": [
        {
          "internalType": "bytes32",
          "name": "role",
          "type": "bytes32"
        }
      ],
      "name": "getRoleAdmin",
      "outputs": [
        {
          "internalType": "bytes32",
          "name": "",
          "type": "bytes32"
        }
      ],
      "stateMutability": "view",
      "type": "function"
    },
    {
      "inputs": [],
      "name": "getShares",
      "outputs": [
        {
          "internalType": "uint256",
          "name": "",
          "type": "uint256"
        }
      ],
      "stateMutability": "view",
      "type": "function"
    },
    {
      "inputs": [],
      "name": "getTrustAddress",
      "outputs": [
        {
          "internalType": "address",
          "name": "",
          "type": "address"
        }
      ],
      "stateMutability": "view",
      "type": "function"
    },
    {
      "inputs": [],
      "name": "getTrustee",
      "outputs": [
        {
          "internalType": "address[]",
          "name": "",
          "type": "address[]"
        }
      ],
      "stateMutability": "view",
      "type": "function"
    },
    {
      "inputs": [
        {
          "internalType": "bytes32",
          "name": "role",
          "type": "bytes32"
        },
        {
          "internalType": "address",
          "name": "account",
          "type": "address"
        }
      ],
      "name": "grantRole",
      "outputs": [],
      "stateMutability": "nonpayable",
      "type": "function"
    },
    {
      "inputs": [
        {
          "internalType": "uint256",
          "name": "",
          "type": "uint256"
        }
      ],
      "name": "grantors",
      "outputs": [
        {
          "internalType": "address",
          "name": "",
          "type": "address"
        }
      ],
      "stateMutability": "view",
      "type": "function"
    },
    {
      "inputs": [
        {
          "internalType": "bytes32",
          "name": "role",
          "type": "bytes32"
        },
        {
          "internalType": "address",
          "name": "account",
          "type": "address"
        }
      ],
      "name": "hasRole",
      "outputs": [
        {
          "internalType": "bool",
          "name": "",
          "type": "bool"
        }
      ],
      "stateMutability": "view",
      "type": "function"
    },
    {
      "inputs": [],
      "name": "initializedTrust",
      "outputs": [
        {
          "internalType": "uint256",
          "name": "",
          "type": "uint256"
        }
      ],
      "stateMutability": "view",
      "type": "function"
    },
    {
      "inputs": [
        {
          "internalType": "address",
          "name": "account",
          "type": "address"
        },
        {
          "internalType": "address",
          "name": "operator",
          "type": "address"
        }
      ],
      "name": "isApprovedForAll",
      "outputs": [
        {
          "internalType": "bool",
          "name": "",
          "type": "bool"
        }
      ],
      "stateMutability": "view",
      "type": "function"
    },
    {
      "inputs": [],
      "name": "name",
      "outputs": [
        {
          "internalType": "string",
          "name": "",
          "type": "string"
        }
      ],
      "stateMutability": "view",
      "type": "function"
    },
    {
      "inputs": [
        {
          "internalType": "address",
          "name": "",
          "type": "address"
        },
        {
          "internalType": "address",
          "name": "",
          "type": "address"
        },
        {
          "internalType": "uint256[]",
          "name": "",
          "type": "uint256[]"
        },
        {
          "internalType": "uint256[]",
          "name": "",
          "type": "uint256[]"
        },
        {
          "internalType": "bytes",
          "name": "",
          "type": "bytes"
        }
      ],
      "name": "onERC1155BatchReceived",
      "outputs": [
        {
          "internalType": "bytes4",
          "name": "",
          "type": "bytes4"
        }
      ],
      "stateMutability": "nonpayable",
      "type": "function"
    },
    {
      "inputs": [
        {
          "internalType": "address",
          "name": "",
          "type": "address"
        },
        {
          "internalType": "address",
          "name": "",
          "type": "address"
        },
        {
          "internalType": "uint256",
          "name": "",
          "type": "uint256"
        },
        {
          "internalType": "uint256",
          "name": "",
          "type": "uint256"
        },
        {
          "internalType": "bytes",
          "name": "",
          "type": "bytes"
        }
      ],
      "name": "onERC1155Received",
      "outputs": [
        {
          "internalType": "bytes4",
          "name": "",
          "type": "bytes4"
        }
      ],
      "stateMutability": "nonpayable",
      "type": "function"
    },
    {
      "inputs": [],
      "name": "periods",
      "outputs": [
        {
          "internalType": "uint128",
          "name": "",
          "type": "uint128"
        }
      ],
      "stateMutability": "view",
      "type": "function"
    },
    {
      "inputs": [],
      "name": "releaseAssets",
      "outputs": [],
      "stateMutability": "nonpayable",
      "type": "function"
    },
    {
      "inputs": [
        {
          "internalType": "address",
          "name": "trusteeAddress",
          "type": "address"
        }
      ],
      "name": "removeTrustee",
      "outputs": [],
      "stateMutability": "nonpayable",
      "type": "function"
    },
    {
      "inputs": [
        {
          "internalType": "bytes32",
          "name": "role",
          "type": "bytes32"
        },
        {
          "internalType": "address",
          "name": "account",
          "type": "address"
        }
      ],
      "name": "renounceRole",
      "outputs": [],
      "stateMutability": "nonpayable",
      "type": "function"
    },
    {
      "inputs": [],
      "name": "resetTrustees",
      "outputs": [],
      "stateMutability": "nonpayable",
      "type": "function"
    },
    {
      "inputs": [
        {
          "internalType": "bytes32",
          "name": "role",
          "type": "bytes32"
        },
        {
          "internalType": "address",
          "name": "account",
          "type": "address"
        }
      ],
      "name": "revokeRole",
      "outputs": [],
      "stateMutability": "nonpayable",
      "type": "function"
    },
    {
      "inputs": [
        {
          "internalType": "address",
          "name": "from",
          "type": "address"
        },
        {
          "internalType": "address",
          "name": "to",
          "type": "address"
        },
        {
          "internalType": "uint256[]",
          "name": "ids",
          "type": "uint256[]"
        },
        {
          "internalType": "uint256[]",
          "name": "amounts",
          "type": "uint256[]"
        },
        {
          "internalType": "bytes",
          "name": "data",
          "type": "bytes"
        }
      ],
      "name": "safeBatchTransferFrom",
      "outputs": [],
      "stateMutability": "nonpayable",
      "type": "function"
    },
    {
      "inputs": [
        {
          "internalType": "address",
          "name": "from",
          "type": "address"
        },
        {
          "internalType": "address",
          "name": "to",
          "type": "address"
        },
        {
          "internalType": "uint256",
          "name": "id",
          "type": "uint256"
        },
        {
          "internalType": "uint256",
          "name": "amount",
          "type": "uint256"
        },
        {
          "internalType": "bytes",
          "name": "data",
          "type": "bytes"
        }
      ],
      "name": "safeTransferFrom",
      "outputs": [],
      "stateMutability": "nonpayable",
      "type": "function"
    },
    {
      "inputs": [],
      "name": "secondsIn30Days",
      "outputs": [
        {
          "internalType": "uint256",
          "name": "",
          "type": "uint256"
        }
      ],
      "stateMutability": "view",
      "type": "function"
    },
    {
      "inputs": [
        {
          "internalType": "address",
          "name": "operator",
          "type": "address"
        },
        {
          "internalType": "bool",
          "name": "approved",
          "type": "bool"
        }
      ],
      "name": "setApprovalForAll",
      "outputs": [],
      "stateMutability": "nonpayable",
      "type": "function"
    },
    {
      "inputs": [
        {
          "internalType": "address[]",
          "name": "_beneficiaries",
          "type": "address[]"
        },
        {
          "internalType": "uint256[]",
          "name": "shares_",
          "type": "uint256[]"
        }
      ],
      "name": "setBeneficiaries",
      "outputs": [],
      "stateMutability": "nonpayable",
      "type": "function"
    },
    {
      "inputs": [
        {
          "internalType": "uint128",
          "name": "newPeriod",
          "type": "uint128"
        }
      ],
      "name": "setPeriods",
      "outputs": [],
      "stateMutability": "nonpayable",
      "type": "function"
    },
    {
      "inputs": [
        {
          "internalType": "string",
          "name": "newuri",
          "type": "string"
        }
      ],
      "name": "setURI",
      "outputs": [],
      "stateMutability": "nonpayable",
      "type": "function"
    },
    {
      "inputs": [
        {
          "internalType": "bytes4",
          "name": "interfaceId",
          "type": "bytes4"
        }
      ],
      "name": "supportsInterface",
      "outputs": [
        {
          "internalType": "bool",
          "name": "",
          "type": "bool"
        }
      ],
      "stateMutability": "view",
      "type": "function"
    },
    {
      "inputs": [],
      "name": "tokensPerGrantor",
      "outputs": [
        {
          "internalType": "uint256",
          "name": "",
          "type": "uint256"
        }
      ],
      "stateMutability": "view",
      "type": "function"
    },
    {
      "inputs": [],
      "name": "trustEnd",
      "outputs": [
        {
          "internalType": "uint256",
          "name": "",
          "type": "uint256"
        }
      ],
      "stateMutability": "view",
      "type": "function"
    },
    {
      "inputs": [
        {
          "internalType": "uint256",
          "name": "",
          "type": "uint256"
        }
      ],
      "name": "trustees",
      "outputs": [
        {
          "internalType": "address",
          "name": "",
          "type": "address"
        }
      ],
      "stateMutability": "view",
      "type": "function"
    },
    {
      "inputs": [
        {
          "internalType": "uint256",
          "name": "",
          "type": "uint256"
        }
      ],
      "name": "uri",
      "outputs": [
        {
          "internalType": "string",
          "name": "",
          "type": "string"
        }
      ],
      "stateMutability": "view",
      "type": "function"
    },
    {
      "stateMutability": "payable",
      "type": "receive"
    }
  ],
  "bytecode": "0x60806040523480156200001157600080fd5b5060405162004a4c38038062004a4c8339810160408190526200003491620012a6565b6040805160208101909152600081526200004e816200025a565b50426012819055601355601580546001600160801b031916600c9081179091556200007e9062278d0090620013be565b6013546200008d9190620013e0565b6014819055601655600c805460ff19169055620000bb600080516020620049ec833981519152600062000273565b620000e5600080516020620049cc833981519152600080516020620049ec83398151915262000273565b6200010f60008051602062004a2c833981519152600080516020620049ec83398151915262000273565b6200013960008051602062004a0c833981519152600080516020620049ec83398151915262000273565b62000146600033620002be565b62000161600080516020620049ec83398151915233620002be565b6200017c600080516020620049cc83398151915233620002be565b6200019760008051602062004a2c83398151915284620002be565b620001a284620002ca565b620001ad8362000467565b620001b9828262000568565b336001600160a01b038516146200025057620001d760008562000701565b620001f2600080516020620049ec8339815191528562000701565b6200020d600080516020620049cc8339815191528562000701565b62000228600080516020620049cc8339815191523362000730565b62000243600080516020620049ec8339815191523362000730565b6200025060003362000730565b505050506200168d565b80516200026f906002906020840190620010dc565b5050565b600082815260036020526040808220600101805490849055905190918391839186917fbd79b86ffe0ab8e8776151514217cd7cacd52c909f66475c3af44e129f0b00ff9190a4505050565b6200026f82826200075a565b600080516020620049ec833981519152620002e68133620007fe565b6001600160a01b038216620003535760405162461bcd60e51b815260206004820152602860248201527f4772616e746f723a20616464726573732063616e206e6f74206265207a65726f604482015267206164647265737360c01b60648201526084015b60405180910390fd5b60006200036c600b6200089b60201b62001b921760201c565b600a8054600181019091557fc65a7bb8d6351c1cf70c95a316cc6a92839c986682d98bc35f958f4883f9d2a80180546001600160a01b0319166001600160a01b038616908117909155600090815260096020908152604080832084905580519182019052908152909150620003ef9084908390670de0b6b3a7640000906200089f565b62000406600b620009bb60201b62001b961760201c565b62000421600080516020620049cc8339815191528462000701565b604080513381526001600160a01b03851660208201527f2d2500ad452ae259e6723284b4b4133d18c42ac9e3212498b64d2a381580b57b910160405180910390a1505050565b600080516020620049cc833981519152620004838133620007fe565b6001600160a01b038216620004db5760405162461bcd60e51b815260206004820152601f60248201527f616464726573732063616e206e6f74206265207a65726f20616464726573730060448201526064016200034a565b600880546001810182556000919091527ff3f7a9fe364faab93b216da50a3214154f22a0a2b415b23a84c8169e8b636ee30180546001600160a01b0319166001600160a01b0384169081179091556040805133815260208101929092527fbfce6ff8f0e004332f4116919776a585b1929096992c3e01f778bf64b9a72c8d91015b60405180910390a15050565b600080516020620049ec833981519152620005848133620007fe565b6000835111620005fd5760405162461bcd60e51b815260206004820152603660248201527f42656e65666963696172793a204174206c6561737420312062656e656669636960448201527f617279206d757374206265207370656369666965642e0000000000000000000060648201526084016200034a565b8151835114620006855760405162461bcd60e51b815260206004820152604660248201527f42656e65666963696172793a204d75737420737065636966792074686520736160448201527f6d65206e756d626572206f662062656e6566696369617269657320616e6420736064820152653430b932b99760d11b608482015260a4016200034a565b6200068f620009c4565b60005b8351811015620006fb57620006e6848281518110620006b557620006b5620013fb565b6020026020010151848381518110620006d257620006d2620013fb565b602002602001015162000a6060201b60201c565b80620006f28162001411565b91505062000692565b50505050565b6000828152600360205260409020600101546200071f8133620007fe565b6200072b83836200075a565b505050565b6000828152600360205260409020600101546200074e8133620007fe565b6200072b838362000c67565b60008281526003602090815260408083206001600160a01b038516845290915290205460ff166200026f5760008281526003602090815260408083206001600160a01b03851684529091529020805460ff19166001179055620007ba3390565b6001600160a01b0316816001600160a01b0316837f2f8788117e7eff1d82e926ec794901d17c78024a50270940304540a733656f0d60405160405180910390a45050565b60008281526003602090815260408083206001600160a01b038516845290915290205460ff166200026f576200084a816001600160a01b0316601462000ceb60201b62001b9f1760201c565b6200086083602062001b9f62000ceb821b17811c565b604051602001620008739291906200145c565b60408051601f198184030181529082905262461bcd60e51b82526200034a9160040162001503565b5490565b6001600160a01b038416620009015760405162461bcd60e51b815260206004820152602160248201527f455243313135353a206d696e7420746f20746865207a65726f206164647265736044820152607360f81b60648201526084016200034a565b336200092781600087620009158862000eab565b620009208862000eab565b5050505050565b6000848152602081815260408083206001600160a01b03891684529091528120805485929062000959908490620013e0565b909155505060408051858152602081018590526001600160a01b0380881692600092918516917fc3d58168c5ae7397731d063d5bbf3d657854427343f4c083240f7aacaa2d0f62910160405180910390a4620009208160008787878762000f01565b80546001019055565b6000805b60075481101562000a495760078181548110620009e957620009e9620013fb565b6000918252602090912001546001600160a01b0316915062000a1b60008051602062004a0c8339815191528362000730565b6001600160a01b0382166000908152600560205260408120558062000a408162001411565b915050620009c8565b5062000a58600760006200116b565b506000600455565b6001600160a01b03821662000ac95760405162461bcd60e51b815260206004820152602860248201527f42656e65666963696172793a206163636f756e7420697320746865207a65726f604482015267206164647265737360c01b60648201526084016200034a565b6000811162000b1b5760405162461bcd60e51b815260206004820152601960248201527f42656e65666963696172793a207368617265732061726520300000000000000060448201526064016200034a565b6001600160a01b0382166000908152600560205260409020541562000b935760405162461bcd60e51b815260206004820152602760248201527f42656e65666963696172793a206163636f756e7420616c7265616479206861736044820152662073686172657360c81b60648201526084016200034a565b600780546001810182556000919091527fa66cc928b5edb82af9bd49922954155ab7b0942694bea4ce44661d9a8736c6880180546001600160a01b0319166001600160a01b03841617905562000bf960008051602062004a0c8339815191528362000701565b6001600160a01b038216600090815260056020526040902081905560045462000c24908290620013e0565b600455604080516001600160a01b0384168152602081018390527fe6b83177f11971ba30369bb38b914ffba97d5969a3c857b286fa8fdbb150b3ba91016200055c565b60008281526003602090815260408083206001600160a01b038516845290915290205460ff16156200026f5760008281526003602090815260408083206001600160a01b0385168085529252808320805460ff1916905551339285917ff6391f5c32d9c69d2a47ea670b442974b53935d1edc7fd64eb21e047a839171b9190a45050565b6060600062000cfc836002620013be565b62000d09906002620013e0565b6001600160401b0381111562000d235762000d23620011c2565b6040519080825280601f01601f19166020018201604052801562000d4e576020820181803683370190505b509050600360fc1b8160008151811062000d6c5762000d6c620013fb565b60200101906001600160f81b031916908160001a905350600f60fb1b8160018151811062000d9e5762000d9e620013fb565b60200101906001600160f81b031916908160001a905350600062000dc4846002620013be565b62000dd1906001620013e0565b90505b600181111562000e53576f181899199a1a9b1b9c1cb0b131b232b360811b85600f166010811062000e095762000e09620013fb565b1a60f81b82828151811062000e225762000e22620013fb565b60200101906001600160f81b031916908160001a90535060049490941c9362000e4b8162001518565b905062000dd4565b50831562000ea45760405162461bcd60e51b815260206004820181905260248201527f537472696e67733a20686578206c656e67746820696e73756666696369656e7460448201526064016200034a565b9392505050565b6040805160018082528183019092526060916000919060208083019080368337019050509050828160008151811062000ee85762000ee8620013fb565b602090810291909101015292915050565b505050505050565b62000f20846001600160a01b0316620010d660201b62001d421760201c565b1562000ef95760405163f23a6e6160e01b81526001600160a01b0385169063f23a6e619062000f5c908990899088908890889060040162001532565b6020604051808303816000875af192505050801562000f9a575060408051601f3d908101601f1916820190925262000f979181019062001579565b60015b6200105a5762000fa9620015a5565b806308c379a00362000fe9575062000fc0620015c2565b8062000fcd575062000feb565b8060405162461bcd60e51b81526004016200034a919062001503565b505b60405162461bcd60e51b815260206004820152603460248201527f455243313135353a207472616e7366657220746f206e6f6e204552433131353560448201527f526563656976657220696d706c656d656e74657200000000000000000000000060648201526084016200034a565b6001600160e01b0319811663f23a6e6160e01b14620010cd5760405162461bcd60e51b815260206004820152602860248201527f455243313135353a204552433131353552656365697665722072656a656374656044820152676420746f6b656e7360c01b60648201526084016200034a565b50505050505050565b3b151590565b828054620010ea9062001651565b90600052602060002090601f0160209004810192826200110e576000855562001159565b82601f106200112957805160ff191683800117855562001159565b8280016001018555821562001159579182015b82811115620011595782518255916020019190600101906200113c565b50620011679291506200118e565b5090565b50805460008255906000526020600020908101906200118b91906200118e565b50565b5b808211156200116757600081556001016200118f565b80516001600160a01b0381168114620011bd57600080fd5b919050565b634e487b7160e01b600052604160045260246000fd5b601f8201601f191681016001600160401b0381118282101715620012005762001200620011c2565b6040525050565b60006001600160401b03821115620012235762001223620011c2565b5060051b60200190565b600082601f8301126200123f57600080fd5b815160206200124e8262001207565b6040516200125d8282620011d8565b83815260059390931b85018201928281019150868411156200127e57600080fd5b8286015b848110156200129b578051835291830191830162001282565b509695505050505050565b60008060008060808587031215620012bd57600080fd5b620012c885620011a5565b93506020620012d9818701620011a5565b60408701519094506001600160401b0380821115620012f757600080fd5b818801915088601f8301126200130c57600080fd5b8151620013198162001207565b604051620013288282620011d8565b82815260059290921b840185019185810191508b8311156200134957600080fd5b938501935b8285101562001372576200136285620011a5565b825293850193908501906200134e565b60608b015190975094505050808311156200138c57600080fd5b50506200139c878288016200122d565b91505092959194509250565b634e487b7160e01b600052601160045260246000fd5b6000816000190483118215151615620013db57620013db620013a8565b500290565b60008219821115620013f657620013f6620013a8565b500190565b634e487b7160e01b600052603260045260246000fd5b600060018201620014265762001426620013a8565b5060010190565b60005b838110156200144a57818101518382015260200162001430565b83811115620006fb5750506000910152565b7f416363657373436f6e74726f6c3a206163636f756e7420000000000000000000815260008351620014968160178501602088016200142d565b7001034b99036b4b9b9b4b733903937b6329607d1b6017918401918201528351620014c98160288401602088016200142d565b01602801949350505050565b60008151808452620014ef8160208601602086016200142d565b601f01601f19169290920160200192915050565b60208152600062000ea46020830184620014d5565b6000816200152a576200152a620013a8565b506000190190565b6001600160a01b03868116825285166020820152604081018490526060810183905260a0608082018190526000906200156e90830184620014d5565b979650505050505050565b6000602082840312156200158c57600080fd5b81516001600160e01b03198116811462000ea457600080fd5b600060033d1115620015bf5760046000803e5060005160e01c5b90565b600060443d1015620015d15790565b6040516003193d81016004833e81513d6001600160401b0380831160248401831017156200160157505050505090565b82850191508151818111156200161a5750505050505090565b843d8701016020828501011115620016355750505050505090565b6200164660208286010187620011d8565b509095945050505050565b600181811c908216806200166657607f821691505b6020821081036200168757634e487b7160e01b600052602260045260246000fd5b50919050565b61332f806200169d6000396000f3fe60806040526004361061031d5760003560e01c806372777649116101ab578063b34c8caf116100f7578063dc78ac1c11610095578063efeb5e581161006f578063efeb5e5814610a04578063f0f06c8b14610a24578063f23a6e6114610a40578063f242432a14610a6c57600080fd5b8063dc78ac1c14610979578063e15fb83f14610999578063e985e9c5146109bb57600080fd5b8063c7220025116100d1578063c7220025146108df578063ced3a40314610915578063d547741f14610937578063d73fe0aa1461095757600080fd5b8063b34c8caf14610853578063bc197c8114610880578063c03cdde2146108c557600080fd5b806391d1485411610164578063a22cb4651161013e578063a22cb465146107a7578063a3d591f4146107c7578063a4caeb42146107e7578063a59222b31461081f57600080fd5b806391d148541461075c5780639ccfff431461077c578063a217fddf1461079257600080fd5b806372777649146106bc5780637c720767146106f057806385a01f4114610705578063869bf82b1461071c5780638b85ef3c14610731578063913b722c1461074757600080fd5b80632eb2c2d61161026a5780634e71d92d1161022357806364412658116101fd578063644126581461065e57806367f0cc75146106735780636f96945314610689578063717d63a41461069c57600080fd5b80634e71d92d14610612578063609d356d146106275780636216b6e31461063c57600080fd5b80632eb2c2d61461052d5780632f2ff15d1461054d57806336568abe1461056d578063393152c01461058d57806341f0f79e146105c55780634e1273f4146105e557600080fd5b80630de86e25116102d75780631734d955116102b15780631734d955146104a5578063248a9ca3146104bb5780632876c012146104eb5780632cac761c1461051857600080fd5b80630de86e251461042f5780630e89341c1461046557806313f0da841461048557600080fd5b8062fdd58e1461032957806301ffc9a71461035c57806302fe53051461038c57806303120506146103ae578063065dc4c1146103ce57806306fdde03146103ee57600080fd5b3661032457005b600080fd5b34801561033557600080fd5b5061034961034436600461290c565b610a8c565b6040519081526020015b60405180910390f35b34801561036857600080fd5b5061037c61037736600461294c565b610b23565b6040519015158152602001610353565b34801561039857600080fd5b506103ac6103a7366004612a0a565b610b34565b005b3480156103ba57600080fd5b506103ac6103c9366004612a5b565b610b5a565b3480156103da57600080fd5b506103ac6103e9366004612b0b565b610cdd565b3480156103fa57600080fd5b506104226040518060400160405280600881526020016714da5b5c1b19481560c21b81525081565b6040516103539190612c2e565b34801561043b57600080fd5b5061034961044a366004612a5b565b6001600160a01b031660009081526009602052604090205490565b34801561047157600080fd5b50610422610480366004612c41565b610e66565b34801561049157600080fd5b506103ac6104a0366004612a5b565b610efa565b3480156104b157600080fd5b5061034960165481565b3480156104c757600080fd5b506103496104d6366004612c41565b60009081526003602052604090206001015490565b3480156104f757600080fd5b50610349610506366004612a5b565b60096020526000908152604090205481565b34801561052457600080fd5b506103ac611084565b34801561053957600080fd5b506103ac610548366004612c7a565b6110bf565b34801561055957600080fd5b506103ac610568366004612d24565b611156565b34801561057957600080fd5b506103ac610588366004612d24565b61117c565b34801561059957600080fd5b506105ad6105a8366004612c41565b6111f6565b6040516001600160a01b039091168152602001610353565b3480156105d157600080fd5b506103ac6105e0366004612d50565b611226565b3480156105f157600080fd5b50610605610600366004612b0b565b611381565b6040516103539190612db4565b34801561061e57600080fd5b506103ac6114ab565b34801561063357600080fd5b506103ac6116d7565b34801561064857600080fd5b50610651611729565b6040516103539190612dc7565b34801561066a57600080fd5b50600a54610349565b34801561067f57600080fd5b5061034960125481565b34801561069557600080fd5b50306105ad565b3480156106a857600080fd5b506105ad6106b7366004612c41565b61178b565b3480156106c857600080fd5b506103497f700b68d05515876e1b5bee45535f56f17ecf1fbb63ac93e8914591401365025d81565b3480156106fc57600080fd5b506106516117b5565b34801561071157600080fd5b5061034962278d0081565b34801561072857600080fd5b506103ac611815565b34801561073d57600080fd5b5061034960135481565b34801561075357600080fd5b50610651611870565b34801561076857600080fd5b5061037c610777366004612d24565b6118d0565b34801561078857600080fd5b5061034960145481565b34801561079e57600080fd5b50610349600081565b3480156107b357600080fd5b506103ac6107c2366004612e14565b6118fb565b3480156107d357600080fd5b506105ad6107e2366004612c41565b6119d1565b3480156107f357600080fd5b50601554610807906001600160801b031681565b6040516001600160801b039091168152602001610353565b34801561082b57600080fd5b506103497ff7649bbbb4e70022c2a0439fb47b745b72fdce7678b86a7a1162bc503f0093c681565b34801561085f57600080fd5b5061034961086e366004612a5b565b60056020526000908152604090205481565b34801561088c57600080fd5b506108ac61089b366004612c7a565b63bc197c8160e01b95945050505050565b6040516001600160e01b03199091168152602001610353565b3480156108d157600080fd5b50600c5461037c9060ff1681565b3480156108eb57600080fd5b506103496108fa366004612a5b565b6001600160a01b031660009081526005602052604090205490565b34801561092157600080fd5b506103496000805160206132da83398151915281565b34801561094357600080fd5b506103ac610952366004612d24565b6119e1565b34801561096357600080fd5b5033600090815260056020526040902054610349565b34801561098557600080fd5b506103ac610994366004612a5b565b611a07565b3480156109a557600080fd5b506103496000805160206132ba83398151915281565b3480156109c757600080fd5b5061037c6109d6366004612e50565b6001600160a01b03918216600090815260016020908152604080832093909416825291909152205460ff1690565b348015610a1057600080fd5b506105ad610a1f366004612c41565b611afb565b348015610a3057600080fd5b50610349670de0b6b3a764000081565b348015610a4c57600080fd5b506108ac610a5b366004612e7a565b63f23a6e6160e01b95945050505050565b348015610a7857600080fd5b506103ac610a87366004612e7a565b611b0b565b60006001600160a01b038316610afd5760405162461bcd60e51b815260206004820152602b60248201527f455243313135353a2062616c616e636520717565727920666f7220746865207a60448201526a65726f206164647265737360a81b60648201526084015b60405180910390fd5b506000908152602081815260408083206001600160a01b03949094168352929052205490565b6000610b2e82611d48565b92915050565b6000805160206132ba833981519152610b4d8133611d6d565b610b5682611dd1565b5050565b6000805160206132ba833981519152610b738133611d6d565b60005b600854811015610cd85760088181548110610b9357610b93612edf565b6000918252602090912001546001600160a01b0390811690841603610cc657600854600103610bc957610bc4611815565b610cc6565b60088054610bd990600190612f0b565b81548110610be957610be9612edf565b600091825260209091200154600880546001600160a01b039092169183908110610c1557610c15612edf565b9060005260206000200160006101000a8154816001600160a01b0302191690836001600160a01b031602179055506008805480610c5457610c54612f22565b600082815260209020810160001990810180546001600160a01b03191690550190556040517f5b7d4fa1769cbfe0631cd21a5bc8a2e09645e697ef883f5d7f84ea32caadca7c90610cbd90339086906001600160a01b0392831681529116602082015260400190565b60405180910390a15b80610cd081612f38565b915050610b76565b505050565b7ff7649bbbb4e70022c2a0439fb47b745b72fdce7678b86a7a1162bc503f0093c6610d088133611d6d565b6000835111610d785760405162461bcd60e51b815260206004820152603660248201527f42656e65666963696172793a204174206c6561737420312062656e656669636960448201527530b93c9036bab9ba1031329039b832b1b4b334b2b21760511b6064820152608401610af4565b8151835114610dfe5760405162461bcd60e51b815260206004820152604660248201527f42656e65666963696172793a204d75737420737065636966792074686520736160448201527f6d65206e756d626572206f662062656e6566696369617269657320616e6420736064820152653430b932b99760d11b608482015260a401610af4565b610e06611de4565b60005b8351811015610e6057610e4e848281518110610e2757610e27612edf565b6020026020010151848381518110610e4157610e41612edf565b6020026020010151611e74565b80610e5881612f38565b915050610e09565b50505050565b606060028054610e7590612f51565b80601f0160208091040260200160405190810160405280929190818152602001828054610ea190612f51565b8015610eee5780601f10610ec357610100808354040283529160200191610eee565b820191906000526020600020905b815481529060010190602001808311610ed157829003601f168201915b50505050509050919050565b7ff7649bbbb4e70022c2a0439fb47b745b72fdce7678b86a7a1162bc503f0093c6610f258133611d6d565b6001600160a01b038216610f8c5760405162461bcd60e51b815260206004820152602860248201527f4772616e746f723a20616464726573732063616e206e6f74206265207a65726f604482015267206164647265737360c01b6064820152608401610af4565b6000610f97600b5490565b600a8054600181019091557fc65a7bb8d6351c1cf70c95a316cc6a92839c986682d98bc35f958f4883f9d2a80180546001600160a01b0319166001600160a01b0386169081179091556000908152600960209081526040808320849055805191820190529081529091506110189084908390670de0b6b3a76400009061206f565b611026600b80546001019055565b61103e6000805160206132ba83398151915284611156565b604080513381526001600160a01b03851660208201527f2d2500ad452ae259e6723284b4b4133d18c42ac9e3212498b64d2a381580b57b910160405180910390a1505050565b7f700b68d05515876e1b5bee45535f56f17ecf1fbb63ac93e8914591401365025d6110af8133611d6d565b50600c805460ff19166001179055565b6001600160a01b0385163314806110db57506110db85336109d6565b6111425760405162461bcd60e51b815260206004820152603260248201527f455243313135353a207472616e736665722063616c6c6572206973206e6f74206044820152711bdddb995c881b9bdc88185c1c1c9bdd995960721b6064820152608401610af4565b61114f8585858585612179565b5050505050565b6000828152600360205260409020600101546111728133611d6d565b610cd88383612356565b6001600160a01b03811633146111ec5760405162461bcd60e51b815260206004820152602f60248201527f416363657373436f6e74726f6c3a2063616e206f6e6c792072656e6f756e636560448201526e103937b632b9903337b91039b2b63360891b6064820152608401610af4565b610b5682826123dc565b6000600a828154811061120b5761120b612edf565b6000918252602090912001546001600160a01b031692915050565b6000805160206132ba83398151915261123f8133611d6d565b6001826001600160801b031610156112ae5760405162461bcd60e51b815260206004820152602c60248201527f4e657720706572696f64206d75737420626520616e20696e746567657220677260448201526b06561746572207468616e20360a41b6064820152608401610af4565b600c826001600160801b0316111561131b5760405162461bcd60e51b815260206004820152602a60248201527f4e657720706572696f64206d75737420626520616e20696e7465676572206c656044820152697373207468616e20313360b01b6064820152608401610af4565b601580546fffffffffffffffffffffffffffffffff19166001600160801b0384169081179091556040805133815260208101929092527f09a388ec24176e675d9fd765f5fb4bd0cf32d2df3f7adab3b2d449ab1cea6f6491015b60405180910390a15050565b606081518351146113e65760405162461bcd60e51b815260206004820152602960248201527f455243313135353a206163636f756e747320616e6420696473206c656e677468604482015268040dad2e6dac2e8c6d60bb1b6064820152608401610af4565b6000835167ffffffffffffffff81111561140257611402612969565b60405190808252806020026020018201604052801561142b578160200160208202803683370190505b50905060005b84518110156114a35761147685828151811061144f5761144f612edf565b602002602001015185838151811061146957611469612edf565b6020026020010151610a8c565b82828151811061148857611488612edf565b602090810291909101015261149c81612f38565b9050611431565b509392505050565b6000805160206132da8339815191526114c48133611d6d565b600c5460ff166115265760405162461bcd60e51b815260206004820152602760248201527f53696d706c65543a204173736574732068617665206e6f74206265656e2072656044820152663632b0b9b2b21760c91b6064820152608401610af4565b336000908152600560205260409020546115825760405162461bcd60e51b815260206004820152601e60248201527f53696d706c65543a206163636f756e7420686173206e6f2073686172657300006044820152606401610af4565b600a5460008167ffffffffffffffff8111156115a0576115a0612969565b6040519080825280602002602001820160405280156115c9578160200160208202803683370190505b50905060008267ffffffffffffffff8111156115e7576115e7612969565b604051908082528060200260200182016040528015611610578160200160208202803683370190505b50905060005b838110156116ba576000600a828154811061163357611633612edf565b60009182526020808320909101546001600160a01b03168083526009909152604090912054855191925090819086908590811061167257611672612edf565b602002602001018181525050670de0b6b3a764000084848151811061169957611699612edf565b602002602001018181525050505080806116b290612f38565b915050611616565b50610e603033848460405180602001604052806000815250612179565b6000805160206132ba8339815191526116f08133611d6d565b336000818152600960205260408120549161170b9083610a8c565b9050610cd83330848460405180602001604052806000815250611b0b565b6060600880548060200260200160405190810160405280929190818152602001828054801561178157602002820191906000526020600020905b81546001600160a01b03168152600190910190602001808311611763575b5050505050905090565b6008818154811061179b57600080fd5b6000918252602090912001546001600160a01b0316905081565b6060600a805480602002602001604051908101604052809291908181526020018280548015611781576020028201919060005260206000209081546001600160a01b03168152600190910190602001808311611763575050505050905090565b6000805160206132ba83398151915261182e8133611d6d565b61183a60086000612836565b6040513381527f211d738206bd274b575601b1ef45e3ea69b59b3425b822ff3b0384ef3e9c01ef9060200160405180910390a150565b60606007805480602002602001604051908101604052809291908181526020018280548015611781576020028201919060005260206000209081546001600160a01b03168152600190910190602001808311611763575050505050905090565b60009182526003602090815260408084206001600160a01b0393909316845291905290205460ff1690565b6001600160a01b03821633036119655760405162461bcd60e51b815260206004820152602960248201527f455243313135353a2073657474696e6720617070726f76616c20737461747573604482015268103337b91039b2b63360b91b6064820152608401610af4565b3360008181526001602090815260408083206001600160a01b03871680855290835292819020805460ff191686151590811790915590519081529192917f17307eab39ab6107e8899845ad3d59bd9653f200f220920489ca2b5937696c31910160405180910390a35050565b600a818154811061179b57600080fd5b6000828152600360205260409020600101546119fd8133611d6d565b610cd883836123dc565b6000805160206132ba833981519152611a208133611d6d565b6001600160a01b038216611a765760405162461bcd60e51b815260206004820152601f60248201527f616464726573732063616e206e6f74206265207a65726f2061646472657373006044820152606401610af4565b600880546001810182556000919091527ff3f7a9fe364faab93b216da50a3214154f22a0a2b415b23a84c8169e8b636ee30180546001600160a01b0319166001600160a01b0384169081179091556040805133815260208101929092527fbfce6ff8f0e004332f4116919776a585b1929096992c3e01f778bf64b9a72c8d9101611375565b6007818154811061179b57600080fd5b6001600160a01b038516331480611b275750611b2785336109d6565b611b855760405162461bcd60e51b815260206004820152602960248201527f455243313135353a2063616c6c6572206973206e6f74206f776e6572206e6f7260448201526808185c1c1c9bdd995960ba1b6064820152608401610af4565b61114f8585858585612443565b5490565b80546001019055565b60606000611bae836002612f8b565b611bb9906002612faa565b67ffffffffffffffff811115611bd157611bd1612969565b6040519080825280601f01601f191660200182016040528015611bfb576020820181803683370190505b509050600360fc1b81600081518110611c1657611c16612edf565b60200101906001600160f81b031916908160001a905350600f60fb1b81600181518110611c4557611c45612edf565b60200101906001600160f81b031916908160001a9053506000611c69846002612f8b565b611c74906001612faa565b90505b6001811115611cec576f181899199a1a9b1b9c1cb0b131b232b360811b85600f1660108110611ca857611ca8612edf565b1a60f81b828281518110611cbe57611cbe612edf565b60200101906001600160f81b031916908160001a90535060049490941c93611ce581612fc2565b9050611c77565b508315611d3b5760405162461bcd60e51b815260206004820181905260248201527f537472696e67733a20686578206c656e67746820696e73756666696369656e746044820152606401610af4565b9392505050565b3b151590565b60006001600160e01b03198216637965db0b60e01b1480610b2e5750610b2e82612560565b611d7782826118d0565b610b5657611d8f816001600160a01b03166014611b9f565b611d9a836020611b9f565b604051602001611dab929190612fd9565b60408051601f198184030181529082905262461bcd60e51b8252610af491600401612c2e565b8051610b56906002906020840190612857565b6000805b600754811015611e5f5760078181548110611e0557611e05612edf565b6000918252602090912001546001600160a01b03169150611e346000805160206132da833981519152836119e1565b6001600160a01b03821660009081526005602052604081205580611e5781612f38565b915050611de8565b50611e6c60076000612836565b506000600455565b6001600160a01b038216611edb5760405162461bcd60e51b815260206004820152602860248201527f42656e65666963696172793a206163636f756e7420697320746865207a65726f604482015267206164647265737360c01b6064820152608401610af4565b60008111611f2b5760405162461bcd60e51b815260206004820152601960248201527f42656e65666963696172793a20736861726573206172652030000000000000006044820152606401610af4565b6001600160a01b03821660009081526005602052604090205415611fa15760405162461bcd60e51b815260206004820152602760248201527f42656e65666963696172793a206163636f756e7420616c7265616479206861736044820152662073686172657360c81b6064820152608401610af4565b600780546001810182556000919091527fa66cc928b5edb82af9bd49922954155ab7b0942694bea4ce44661d9a8736c6880180546001600160a01b0319166001600160a01b0384161790556120046000805160206132da83398151915283611156565b6001600160a01b038216600090815260056020526040902081905560045461202d908290612faa565b600455604080516001600160a01b0384168152602081018390527fe6b83177f11971ba30369bb38b914ffba97d5969a3c857b286fa8fdbb150b3ba9101611375565b6001600160a01b0384166120cf5760405162461bcd60e51b815260206004820152602160248201527f455243313135353a206d696e7420746f20746865207a65726f206164647265736044820152607360f81b6064820152608401610af4565b336120e9816000876120e0886125a0565b61114f886125a0565b6000848152602081815260408083206001600160a01b038916845290915281208054859290612119908490612faa565b909155505060408051858152602081018590526001600160a01b0380881692600092918516917fc3d58168c5ae7397731d063d5bbf3d657854427343f4c083240f7aacaa2d0f62910160405180910390a461114f816000878787876125eb565b81518351146121db5760405162461bcd60e51b815260206004820152602860248201527f455243313135353a2069647320616e6420616d6f756e7473206c656e677468206044820152670dad2e6dac2e8c6d60c31b6064820152608401610af4565b6001600160a01b0384166122015760405162461bcd60e51b8152600401610af49061304e565b3360005b84518110156122e857600085828151811061222257612222612edf565b60200260200101519050600085838151811061224057612240612edf565b602090810291909101810151600084815280835260408082206001600160a01b038e1683529093529190912054909150818110156122905760405162461bcd60e51b8152600401610af490613093565b6000838152602081815260408083206001600160a01b038e8116855292528083208585039055908b168252812080548492906122cd908490612faa565b92505081905550505050806122e190612f38565b9050612205565b50846001600160a01b0316866001600160a01b0316826001600160a01b03167f4a39dc06d4c0dbc64b70af90fd698a233a518aa5d07e595d983b8c0526c8f7fb87876040516123389291906130dd565b60405180910390a461234e818787878787612746565b505050505050565b61236082826118d0565b610b565760008281526003602090815260408083206001600160a01b03851684529091529020805460ff191660011790556123983390565b6001600160a01b0316816001600160a01b0316837f2f8788117e7eff1d82e926ec794901d17c78024a50270940304540a733656f0d60405160405180910390a45050565b6123e682826118d0565b15610b565760008281526003602090815260408083206001600160a01b0385168085529252808320805460ff1916905551339285917ff6391f5c32d9c69d2a47ea670b442974b53935d1edc7fd64eb21e047a839171b9190a45050565b6001600160a01b0384166124695760405162461bcd60e51b8152600401610af49061304e565b336124798187876120e0886125a0565b6000848152602081815260408083206001600160a01b038a168452909152902054838110156124ba5760405162461bcd60e51b8152600401610af490613093565b6000858152602081815260408083206001600160a01b038b81168552925280832087850390559088168252812080548692906124f7908490612faa565b909155505060408051868152602081018690526001600160a01b03808916928a821692918616917fc3d58168c5ae7397731d063d5bbf3d657854427343f4c083240f7aacaa2d0f62910160405180910390a46125578288888888886125eb565b50505050505050565b60006001600160e01b03198216636cdb3d1360e11b148061259157506001600160e01b031982166303a24d0760e21b145b80610b2e5750610b2e82612801565b604080516001808252818301909252606091600091906020808301908036833701905050905082816000815181106125da576125da612edf565b602090810291909101015292915050565b6001600160a01b0384163b1561234e5760405163f23a6e6160e01b81526001600160a01b0385169063f23a6e619061262f908990899088908890889060040161310b565b6020604051808303816000875af192505050801561266a575060408051601f3d908101601f1916820190925261266791810190613150565b60015b6127165761267661316d565b806308c379a0036126af575061268a613189565b8061269557506126b1565b8060405162461bcd60e51b8152600401610af49190612c2e565b505b60405162461bcd60e51b815260206004820152603460248201527f455243313135353a207472616e7366657220746f206e6f6e20455243313135356044820152732932b1b2b4bb32b91034b6b83632b6b2b73a32b960611b6064820152608401610af4565b6001600160e01b0319811663f23a6e6160e01b146125575760405162461bcd60e51b8152600401610af490613213565b6001600160a01b0384163b1561234e5760405163bc197c8160e01b81526001600160a01b0385169063bc197c819061278a908990899088908890889060040161325b565b6020604051808303816000875af19250505080156127c5575060408051601f3d908101601f191682019092526127c291810190613150565b60015b6127d15761267661316d565b6001600160e01b0319811663bc197c8160e01b146125575760405162461bcd60e51b8152600401610af490613213565b60006001600160e01b03198216630271189760e51b1480610b2e57506301ffc9a760e01b6001600160e01b0319831614610b2e565b508054600082559060005260206000209081019061285491906128db565b50565b82805461286390612f51565b90600052602060002090601f01602090048101928261288557600085556128cb565b82601f1061289e57805160ff19168380011785556128cb565b828001600101855582156128cb579182015b828111156128cb5782518255916020019190600101906128b0565b506128d79291506128db565b5090565b5b808211156128d757600081556001016128dc565b80356001600160a01b038116811461290757600080fd5b919050565b6000806040838503121561291f57600080fd5b612928836128f0565b946020939093013593505050565b6001600160e01b03198116811461285457600080fd5b60006020828403121561295e57600080fd5b8135611d3b81612936565b634e487b7160e01b600052604160045260246000fd5b601f8201601f1916810167ffffffffffffffff811182821017156129a5576129a5612969565b6040525050565b600067ffffffffffffffff8311156129c6576129c6612969565b6040516129dd601f8501601f19166020018261297f565b8091508381528484840111156129f257600080fd5b83836020830137600060208583010152509392505050565b600060208284031215612a1c57600080fd5b813567ffffffffffffffff811115612a3357600080fd5b8201601f81018413612a4457600080fd5b612a53848235602084016129ac565b949350505050565b600060208284031215612a6d57600080fd5b611d3b826128f0565b600067ffffffffffffffff821115612a9057612a90612969565b5060051b60200190565b600082601f830112612aab57600080fd5b81356020612ab882612a76565b604051612ac5828261297f565b83815260059390931b8501820192828101915086841115612ae557600080fd5b8286015b84811015612b005780358352918301918301612ae9565b509695505050505050565b60008060408385031215612b1e57600080fd5b823567ffffffffffffffff80821115612b3657600080fd5b818501915085601f830112612b4a57600080fd5b81356020612b5782612a76565b604051612b64828261297f565b83815260059390931b8501820192828101915089841115612b8457600080fd5b948201945b83861015612ba957612b9a866128f0565b82529482019490820190612b89565b96505086013592505080821115612bbf57600080fd5b50612bcc85828601612a9a565b9150509250929050565b60005b83811015612bf1578181015183820152602001612bd9565b83811115610e605750506000910152565b60008151808452612c1a816020860160208601612bd6565b601f01601f19169290920160200192915050565b602081526000611d3b6020830184612c02565b600060208284031215612c5357600080fd5b5035919050565b600082601f830112612c6b57600080fd5b611d3b838335602085016129ac565b600080600080600060a08688031215612c9257600080fd5b612c9b866128f0565b9450612ca9602087016128f0565b9350604086013567ffffffffffffffff80821115612cc657600080fd5b612cd289838a01612a9a565b94506060880135915080821115612ce857600080fd5b612cf489838a01612a9a565b93506080880135915080821115612d0a57600080fd5b50612d1788828901612c5a565b9150509295509295909350565b60008060408385031215612d3757600080fd5b82359150612d47602084016128f0565b90509250929050565b600060208284031215612d6257600080fd5b81356001600160801b0381168114611d3b57600080fd5b600081518084526020808501945080840160005b83811015612da957815187529582019590820190600101612d8d565b509495945050505050565b602081526000611d3b6020830184612d79565b6020808252825182820181905260009190848201906040850190845b81811015612e085783516001600160a01b031683529284019291840191600101612de3565b50909695505050505050565b60008060408385031215612e2757600080fd5b612e30836128f0565b915060208301358015158114612e4557600080fd5b809150509250929050565b60008060408385031215612e6357600080fd5b612e6c836128f0565b9150612d47602084016128f0565b600080600080600060a08688031215612e9257600080fd5b612e9b866128f0565b9450612ea9602087016128f0565b93506040860135925060608601359150608086013567ffffffffffffffff811115612ed357600080fd5b612d1788828901612c5a565b634e487b7160e01b600052603260045260246000fd5b634e487b7160e01b600052601160045260246000fd5b600082821015612f1d57612f1d612ef5565b500390565b634e487b7160e01b600052603160045260246000fd5b600060018201612f4a57612f4a612ef5565b5060010190565b600181811c90821680612f6557607f821691505b602082108103612f8557634e487b7160e01b600052602260045260246000fd5b50919050565b6000816000190483118215151615612fa557612fa5612ef5565b500290565b60008219821115612fbd57612fbd612ef5565b500190565b600081612fd157612fd1612ef5565b506000190190565b7f416363657373436f6e74726f6c3a206163636f756e7420000000000000000000815260008351613011816017850160208801612bd6565b7001034b99036b4b9b9b4b733903937b6329607d1b6017918401918201528351613042816028840160208801612bd6565b01602801949350505050565b60208082526025908201527f455243313135353a207472616e7366657220746f20746865207a65726f206164604082015264647265737360d81b606082015260800190565b6020808252602a908201527f455243313135353a20696e73756666696369656e742062616c616e636520666f60408201526939103a3930b739b332b960b11b606082015260800190565b6040815260006130f06040830185612d79565b82810360208401526131028185612d79565b95945050505050565b6001600160a01b03868116825285166020820152604081018490526060810183905260a06080820181905260009061314590830184612c02565b979650505050505050565b60006020828403121561316257600080fd5b8151611d3b81612936565b600060033d11156131865760046000803e5060005160e01c5b90565b600060443d10156131975790565b6040516003193d81016004833e81513d67ffffffffffffffff81602484011181841117156131c757505050505090565b82850191508151818111156131df5750505050505090565b843d87010160208285010111156131f95750505050505090565b6132086020828601018761297f565b509095945050505050565b60208082526028908201527f455243313135353a204552433131353552656365697665722072656a656374656040820152676420746f6b656e7360c01b606082015260800190565b6001600160a01b0386811682528516602082015260a06040820181905260009061328790830186612d79565b82810360608401526132998186612d79565b905082810360808401526132ad8185612c02565b9897505050505050505056fed10feaa7fea55567e367a112bc53907318a50949442dfc0570945570c5af57cfc8a41221bcd7fcf2c225f5a9265e1d4d39949d89197159d59e5f4b87b62c419ea2646970667358221220afc6fcf7a6855ba904b66ca00b64306220b29d293c2f6ab3a126740bbe4c1c9e64736f6c634300080e0033d10feaa7fea55567e367a112bc53907318a50949442dfc0570945570c5af57cff7649bbbb4e70022c2a0439fb47b745b72fdce7678b86a7a1162bc503f0093c6c8a41221bcd7fcf2c225f5a9265e1d4d39949d89197159d59e5f4b87b62c419e700b68d05515876e1b5bee45535f56f17ecf1fbb63ac93e8914591401365025d",
  "linkReferences": {},
  "deployedLinkReferences": {}
}